{
  "contractName": "Families",
  "abi": [
    {
      "inputs": [],
      "stateMutability": "nonpayable",
      "type": "constructor"
    },
    {
      "anonymous": false,
      "inputs": [
        {
          "indexed": true,
          "internalType": "uint256",
          "name": "id",
          "type": "uint256"
        },
        {
          "indexed": false,
          "internalType": "string",
          "name": "name",
          "type": "string"
        },
        {
          "indexed": true,
          "internalType": "address",
          "name": "personAccount",
          "type": "address"
        }
      ],
      "name": "FamilyAdded",
      "type": "event"
    },
    {
      "anonymous": false,
      "inputs": [
        {
          "indexed": true,
          "internalType": "address",
          "name": "account",
          "type": "address"
        },
        {
          "indexed": false,
          "internalType": "string",
          "name": "name",
          "type": "string"
        }
      ],
      "name": "FamilyNameSet",
      "type": "event"
    },
    {
      "anonymous": false,
      "inputs": [
        {
          "indexed": true,
          "internalType": "uint256",
          "name": "familyID",
          "type": "uint256"
        },
        {
          "indexed": true,
          "internalType": "address",
          "name": "account",
          "type": "address"
        },
        {
          "indexed": false,
          "internalType": "bytes32",
          "name": "invite",
          "type": "bytes32"
        }
      ],
      "name": "InviteAdded",
      "type": "event"
    },
    {
      "anonymous": false,
      "inputs": [
        {
          "indexed": true,
          "internalType": "uint256",
          "name": "familyID",
          "type": "uint256"
        },
        {
          "indexed": true,
          "internalType": "address",
          "name": "account",
          "type": "address"
        },
        {
          "indexed": false,
          "internalType": "bytes32",
          "name": "invite",
          "type": "bytes32"
        }
      ],
      "name": "InviteRedeemed",
      "type": "event"
    },
    {
      "anonymous": false,
      "inputs": [
        {
          "indexed": true,
          "internalType": "uint256",
          "name": "familyID",
          "type": "uint256"
        },
        {
          "indexed": true,
          "internalType": "address",
          "name": "account",
          "type": "address"
        },
        {
          "indexed": true,
          "internalType": "uint256",
          "name": "role",
          "type": "uint256"
        }
      ],
      "name": "JoinedFamily",
      "type": "event"
    },
    {
      "anonymous": false,
      "inputs": [
        {
          "indexed": true,
          "internalType": "uint256",
          "name": "familyID",
          "type": "uint256"
        },
        {
          "indexed": true,
          "internalType": "address",
          "name": "account",
          "type": "address"
        }
      ],
      "name": "LeftFamily",
      "type": "event"
    },
    {
      "anonymous": false,
      "inputs": [
        {
          "indexed": true,
          "internalType": "uint256",
          "name": "id",
          "type": "uint256"
        },
        {
          "indexed": true,
          "internalType": "address",
          "name": "account",
          "type": "address"
        },
        {
          "indexed": false,
          "internalType": "string",
          "name": "name",
          "type": "string"
        },
        {
          "indexed": false,
          "internalType": "string",
          "name": "avatar",
          "type": "string"
        }
      ],
      "name": "PersonAdded",
      "type": "event"
    },
    {
      "anonymous": false,
      "inputs": [
        {
          "indexed": true,
          "internalType": "address",
          "name": "account",
          "type": "address"
        },
        {
          "indexed": false,
          "internalType": "string",
          "name": "avatar",
          "type": "string"
        }
      ],
      "name": "PersonAvatarSet",
      "type": "event"
    },
    {
      "anonymous": false,
      "inputs": [
        {
          "indexed": true,
          "internalType": "address",
          "name": "account",
          "type": "address"
        },
        {
          "indexed": false,
          "internalType": "string",
          "name": "name",
          "type": "string"
        }
      ],
      "name": "PersonNameSet",
      "type": "event"
    },
    {
      "anonymous": false,
      "inputs": [
        {
          "indexed": true,
          "internalType": "address",
          "name": "account",
          "type": "address"
        },
        {
          "indexed": true,
          "internalType": "uint256",
          "name": "familyID",
          "type": "uint256"
        },
        {
          "indexed": true,
          "internalType": "uint256",
          "name": "personID",
          "type": "uint256"
        },
        {
          "indexed": false,
          "internalType": "uint256",
          "name": "role",
          "type": "uint256"
        }
      ],
      "name": "RoleSet",
      "type": "event"
    },
    {
      "inputs": [],
      "name": "RoleAdult",
      "outputs": [
        {
          "internalType": "uint256",
          "name": "",
          "type": "uint256"
        }
      ],
      "stateMutability": "view",
      "type": "function"
    },
    {
      "inputs": [],
      "name": "RoleChild",
      "outputs": [
        {
          "internalType": "uint256",
          "name": "",
          "type": "uint256"
        }
      ],
      "stateMutability": "view",
      "type": "function"
    },
    {
      "inputs": [],
      "name": "RoleNone",
      "outputs": [
        {
          "internalType": "uint256",
          "name": "",
          "type": "uint256"
        }
      ],
      "stateMutability": "view",
      "type": "function"
    },
    {
      "inputs": [],
      "name": "RoleResponsibleAdult",
      "outputs": [
        {
          "internalType": "uint256",
          "name": "",
          "type": "uint256"
        }
      ],
      "stateMutability": "view",
      "type": "function"
    },
    {
      "inputs": [
        {
          "internalType": "address",
          "name": "",
          "type": "address"
        }
      ],
      "name": "accountToPerson",
      "outputs": [
        {
          "internalType": "uint256",
          "name": "",
          "type": "uint256"
        }
      ],
      "stateMutability": "view",
      "type": "function"
    },
    {
      "inputs": [
        {
          "internalType": "uint256",
          "name": "",
          "type": "uint256"
        }
      ],
      "name": "families",
      "outputs": [
        {
          "internalType": "uint256",
          "name": "id",
          "type": "uint256"
        },
        {
          "internalType": "string",
          "name": "name",
          "type": "string"
        }
      ],
      "stateMutability": "view",
      "type": "function"
    },
    {
      "inputs": [
        {
          "internalType": "uint256",
          "name": "",
          "type": "uint256"
        },
        {
          "internalType": "bytes32",
          "name": "",
          "type": "bytes32"
        }
      ],
      "name": "familyInvites",
      "outputs": [
        {
          "internalType": "bool",
          "name": "",
          "type": "bool"
        }
      ],
      "stateMutability": "view",
      "type": "function"
    },
    {
      "inputs": [
        {
          "internalType": "uint256",
          "name": "",
          "type": "uint256"
        },
        {
          "internalType": "uint256",
          "name": "",
          "type": "uint256"
        }
      ],
      "name": "familyMembers",
      "outputs": [
        {
          "internalType": "bool",
          "name": "",
          "type": "bool"
        }
      ],
      "stateMutability": "view",
      "type": "function"
    },
    {
      "inputs": [
        {
          "internalType": "uint256",
          "name": "",
          "type": "uint256"
        }
      ],
      "name": "familyMembersCount",
      "outputs": [
        {
          "internalType": "uint256",
          "name": "",
          "type": "uint256"
        }
      ],
      "stateMutability": "view",
      "type": "function"
    },
    {
      "inputs": [
        {
          "internalType": "uint256",
          "name": "",
          "type": "uint256"
        },
        {
          "internalType": "uint256",
          "name": "",
          "type": "uint256"
        }
      ],
      "name": "familyRoles",
      "outputs": [
        {
          "internalType": "uint256",
          "name": "",
          "type": "uint256"
        }
      ],
      "stateMutability": "view",
      "type": "function"
    },
    {
      "inputs": [
        {
          "internalType": "string",
          "name": "",
          "type": "string"
        }
      ],
      "name": "nameToFamily",
      "outputs": [
        {
          "internalType": "uint256",
          "name": "",
          "type": "uint256"
        }
      ],
      "stateMutability": "view",
      "type": "function"
    },
    {
      "inputs": [],
      "name": "owner",
      "outputs": [
        {
          "internalType": "address",
          "name": "",
          "type": "address"
        }
      ],
      "stateMutability": "view",
      "type": "function"
    },
    {
      "inputs": [
        {
          "internalType": "uint256",
          "name": "",
          "type": "uint256"
        }
      ],
      "name": "people",
      "outputs": [
        {
          "internalType": "uint256",
          "name": "id",
          "type": "uint256"
        },
        {
          "internalType": "address",
          "name": "account",
          "type": "address"
        },
        {
          "internalType": "string",
          "name": "name",
          "type": "string"
        },
        {
          "internalType": "string",
          "name": "avatar",
          "type": "string"
        },
        {
          "internalType": "uint256",
          "name": "role",
          "type": "uint256"
        }
      ],
      "stateMutability": "view",
      "type": "function"
    },
    {
      "inputs": [
        {
          "internalType": "string",
          "name": "familyName",
          "type": "string"
        }
      ],
      "name": "startFamily",
      "outputs": [
        {
          "internalType": "uint256",
          "name": "",
          "type": "uint256"
        }
      ],
      "stateMutability": "nonpayable",
      "type": "function"
    },
    {
      "inputs": [
        {
          "internalType": "uint256",
          "name": "familyID",
          "type": "uint256"
        },
        {
          "internalType": "string",
          "name": "familyName",
          "type": "string"
        }
      ],
      "name": "setFamilyName",
      "outputs": [],
      "stateMutability": "nonpayable",
      "type": "function"
    },
    {
      "inputs": [
        {
          "internalType": "address",
          "name": "account",
          "type": "address"
        }
      ],
      "name": "getPersonIDByAccount",
      "outputs": [
        {
          "internalType": "uint256",
          "name": "",
          "type": "uint256"
        }
      ],
      "stateMutability": "view",
      "type": "function"
    },
    {
      "inputs": [
        {
          "internalType": "string",
          "name": "personName",
          "type": "string"
        }
      ],
      "name": "setPersonName",
      "outputs": [],
      "stateMutability": "nonpayable",
      "type": "function"
    },
    {
      "inputs": [
        {
          "internalType": "string",
          "name": "avatar",
          "type": "string"
        }
      ],
      "name": "setPersonAvatar",
      "outputs": [],
      "stateMutability": "nonpayable",
      "type": "function"
    },
    {
      "inputs": [
        {
          "internalType": "uint256",
          "name": "familyID",
          "type": "uint256"
        },
        {
          "internalType": "address",
          "name": "personAccount",
          "type": "address"
        },
        {
          "internalType": "uint256",
          "name": "role",
          "type": "uint256"
        }
      ],
      "name": "setPersonRoleInFamily",
      "outputs": [],
      "stateMutability": "nonpayable",
      "type": "function"
    },
    {
      "inputs": [
        {
          "internalType": "string",
          "name": "familyName",
          "type": "string"
        },
        {
          "internalType": "string",
          "name": "personName",
          "type": "string"
        },
        {
          "internalType": "string",
          "name": "avatar",
          "type": "string"
        }
      ],
      "name": "startFirstFamily",
      "outputs": [
        {
          "internalType": "uint256",
          "name": "",
          "type": "uint256"
        },
        {
          "internalType": "uint256",
          "name": "",
          "type": "uint256"
        }
      ],
      "stateMutability": "nonpayable",
      "type": "function"
    },
    {
      "inputs": [
        {
          "internalType": "uint256",
          "name": "offset",
          "type": "uint256"
        },
        {
          "internalType": "uint256",
          "name": "limit",
          "type": "uint256"
        }
      ],
      "name": "getFamilies",
      "outputs": [
        {
          "components": [
            {
              "internalType": "uint256",
              "name": "id",
              "type": "uint256"
            },
            {
              "internalType": "string",
              "name": "name",
              "type": "string"
            }
          ],
          "internalType": "struct Families.Family[]",
          "name": "",
          "type": "tuple[]"
        }
      ],
      "stateMutability": "view",
      "type": "function"
    },
    {
      "inputs": [
        {
          "internalType": "uint256",
          "name": "offset",
          "type": "uint256"
        },
        {
          "internalType": "uint256",
          "name": "limit",
          "type": "uint256"
        }
      ],
      "name": "getPeople",
      "outputs": [
        {
          "components": [
            {
              "internalType": "uint256",
              "name": "id",
              "type": "uint256"
            },
            {
              "internalType": "address",
              "name": "account",
              "type": "address"
            },
            {
              "internalType": "string",
              "name": "name",
              "type": "string"
            },
            {
              "internalType": "string",
              "name": "avatar",
              "type": "string"
            },
            {
              "internalType": "uint256",
              "name": "role",
              "type": "uint256"
            }
          ],
          "internalType": "struct Families.Person[]",
          "name": "",
          "type": "tuple[]"
        }
      ],
      "stateMutability": "view",
      "type": "function"
    },
    {
      "inputs": [
        {
          "internalType": "uint256",
          "name": "familyID",
          "type": "uint256"
        },
        {
          "internalType": "uint256",
          "name": "offset",
          "type": "uint256"
        },
        {
          "internalType": "uint256",
          "name": "limit",
          "type": "uint256"
        }
      ],
      "name": "getFamilyMembers",
      "outputs": [
        {
          "components": [
            {
              "internalType": "uint256",
              "name": "id",
              "type": "uint256"
            },
            {
              "internalType": "address",
              "name": "account",
              "type": "address"
            },
            {
              "internalType": "string",
              "name": "name",
              "type": "string"
            },
            {
              "internalType": "string",
              "name": "avatar",
              "type": "string"
            },
            {
              "internalType": "uint256",
              "name": "role",
              "type": "uint256"
            }
          ],
          "internalType": "struct Families.Person[]",
          "name": "",
          "type": "tuple[]"
        }
      ],
      "stateMutability": "view",
      "type": "function"
    },
    {
      "inputs": [
        {
          "internalType": "address",
          "name": "personAccount",
          "type": "address"
        },
        {
          "internalType": "uint256",
          "name": "offset",
          "type": "uint256"
        },
        {
          "internalType": "uint256",
          "name": "limit",
          "type": "uint256"
        }
      ],
      "name": "getFamilyMemberships",
      "outputs": [
        {
          "components": [
            {
              "internalType": "uint256",
              "name": "id",
              "type": "uint256"
            },
            {
              "internalType": "string",
              "name": "name",
              "type": "string"
            }
          ],
          "internalType": "struct Families.Family[]",
          "name": "",
          "type": "tuple[]"
        }
      ],
      "stateMutability": "view",
      "type": "function"
    },
    {
      "inputs": [
        {
          "internalType": "uint256",
          "name": "familyID",
          "type": "uint256"
        },
        {
          "internalType": "string",
          "name": "nonce",
          "type": "string"
        },
        {
          "internalType": "uint256",
          "name": "role",
          "type": "uint256"
        }
      ],
      "name": "generateInvite",
      "outputs": [
        {
          "internalType": "bytes32",
          "name": "",
          "type": "bytes32"
        }
      ],
      "stateMutability": "pure",
      "type": "function"
    },
    {
      "inputs": [
        {
          "internalType": "uint256",
          "name": "familyID",
          "type": "uint256"
        },
        {
          "internalType": "bytes32",
          "name": "invite",
          "type": "bytes32"
        }
      ],
      "name": "addInvite",
      "outputs": [],
      "stateMutability": "nonpayable",
      "type": "function"
    },
    {
      "inputs": [
        {
          "internalType": "uint256",
          "name": "familyID",
          "type": "uint256"
        },
        {
          "internalType": "string",
          "name": "nonce",
          "type": "string"
        },
        {
          "internalType": "uint256",
          "name": "role",
          "type": "uint256"
        }
      ],
      "name": "joinFamily",
      "outputs": [],
      "stateMutability": "nonpayable",
      "type": "function"
    },
    {
      "inputs": [
        {
          "internalType": "uint256",
          "name": "familyID",
          "type": "uint256"
        },
        {
          "internalType": "string",
          "name": "nonce",
          "type": "string"
        },
        {
          "internalType": "uint256",
          "name": "role",
          "type": "uint256"
        },
        {
          "internalType": "string",
          "name": "personName",
          "type": "string"
        },
        {
          "internalType": "string",
          "name": "avatar",
          "type": "string"
        }
      ],
      "name": "joinFirstFamily",
      "outputs": [
        {
          "internalType": "uint256",
          "name": "",
          "type": "uint256"
        }
      ],
      "stateMutability": "nonpayable",
      "type": "function"
    },
    {
      "inputs": [
        {
          "internalType": "uint256",
          "name": "familyID",
          "type": "uint256"
        },
        {
          "internalType": "address",
          "name": "personAccount",
          "type": "address"
        }
      ],
      "name": "removeFamilyMember",
      "outputs": [],
      "stateMutability": "nonpayable",
      "type": "function"
    },
    {
      "inputs": [
        {
          "internalType": "uint256",
          "name": "familyID",
          "type": "uint256"
        },
        {
          "internalType": "address",
          "name": "personAccount",
          "type": "address"
        }
      ],
      "name": "areTheyFamily",
      "outputs": [
        {
          "internalType": "bool",
          "name": "",
          "type": "bool"
        }
      ],
      "stateMutability": "view",
      "type": "function"
    }
  ],
  "bytecode": "0x608060405234801561001057600080fd5b50600080546001600160a01b03191633179055612494806100326000396000f3fe608060405234801561001057600080fd5b50600436106101da5760003560e01c80637783599111610104578063b0e71fb5116100a2578063cde7c98711610071578063cde7c9871461040f578063dd4bc9d814610422578063e72b616814610435578063f4ca166314610448576101da565b8063b0e71fb5146103b6578063bb30a169146103c9578063bc777940146103dc578063bc8ce6bc146103fc576101da565b80638e5d6b76116100de5780638e5d6b7614610364578063997ca0c31461036c5780639e7a13ad1461037f578063a8b2c358146103a3576101da565b806377835991146103295780637e631e0f1461033c5780638da5cb5b1461034f576101da565b80632274334c1161017c5780634e8632711161014b5780634e863271146102dd57806350793234146102f057806363242389146103035780636e96002114610316576101da565b80632274334c1461028f578063289dd058146102a25780632e3937ee146102c2578063352b07de146102d5576101da565b80630ce10677116101b85780630ce10677146102335780630d52bf351461023b57806311ca9eb51461025c5780631f446a6d1461027c576101da565b8063078beae5146101df57806308ab3ac4146102095780630c61f7691461021e575b600080fd5b6101f26101ed366004611e1d565b61045b565b604051610200929190612407565b60405180910390f35b61021c610217366004611e96565b610510565b005b6102266105fe565b60405161020091906121a7565b610226610603565b61024e610249366004611d99565b610608565b604051610200929190612420565b61026f61026a366004611e96565b610631565b6040516102009190612096565b61022661028a366004611d09565b6107b9565b61021c61029d366004611efc565b610843565b6102b56102b0366004611e96565b610972565b604051610200919061219c565b61021c6102d0366004611d5e565b610992565b610226610a38565b61021c6102eb366004611d5e565b610a3d565b6102266102fe366004611efc565b610ad7565b61021c610311366004611e35565b610b0d565b610226610324366004611f4a565b610c07565b610226610337366004611d5e565b610c2b565b6102b561034a366004611e96565b610dd3565b610357610df3565b6040516102009190612082565b610226610e02565b6102b561037a366004611e35565b610e07565b61039261038d366004611e1d565b610e38565b6040516102009594939291906123b8565b6102266103b1366004611d5e565b610f96565b61021c6103c4366004611e61565b610fb3565b6102266103d7366004611e96565b6110a1565b6103ef6103ea366004611fe2565b6110be565b60405161020091906120fa565b61022661040a366004611e1d565b6113f2565b61021c61041d366004611eb7565b611404565b6103ef610430366004611e96565b6114e5565b610226610443366004611d09565b611709565b61026f610456366004611d2b565b61171b565b6001818154811061046857fe5b60009182526020918290206002918202018054600180830180546040805193821615610100026000190190911695909504601f81018790048702830187019095528482529195509193919290918301828280156105065780601f106104db57610100808354040283529160200191610506565b820191906000526020600020905b8154815290600101906020018083116104e957829003601f168201915b5050505050905082565b600061051b336107b9565b600084815260056020908152604080832084845290915290205490915060ff166105605760405162461bcd60e51b815260040161055790612253565b60405180910390fd5b60008381526007602090815260408083208484529091529020546001146105995760405162461bcd60e51b8152600401610557906122f7565b600083815260086020908152604080832085845290915290819020805460ff1916600117905551339084907f223f6fc55b68604ac0ddb43efe27ce0c5df3b46113bd2f3a13231eefa7cd7f70906105f19086906121a7565b60405180910390a3505050565b600281565b600381565b60008060006106178585611960565b9050600061062487610c2b565b9791965090945050505050565b600154606090831115610647576000915061065c565b600154838301111561065c5760015483900391505b60608267ffffffffffffffff8111801561067557600080fd5b506040519080825280602002602001820160405280156106af57816020015b61069c611b87565b8152602001906001900390816106945790505b509050835b8385820310156107b157600181815481106106cb57fe5b906000526020600020906002020160405180604001604052908160008201548152602001600182018054600181600116156101000203166002900480601f0160208091040260200160405190810160405280929190818152602001828054600181600116156101000203166002900480156107875780601f1061075c57610100808354040283529160200191610787565b820191906000526020600020905b81548152906001019060200180831161076a57829003601f168201915b505050505081525050828683038151811061079e57fe5b60209081029190910101526001016106b4565b505092915050565b6001600160a01b038116600090815260046020526040812054600354811080156107e4575060035415155b80156108215750826001600160a01b03166003828154811061080257fe5b60009182526020909120600160059092020101546001600160a01b0316145b61083d5760405162461bcd60e51b81526004016105579061228a565b92915050565b600061084e336107b9565b9050600061085d858585610ad7565b600086815260086020908152604080832084845290915290205490915060ff166108995760405162461bcd60e51b8152600401610557906122cf565b600085815260086020908152604080832084845290915290819020805460ff1916905551339086907f8afac2af312df535cf859c24a0060c2a254ca7ebf63ad1407b1c8b89e47ac276906108ee9085906121a7565b60405180910390a360008581526005602090815260408083208584528252808320805460ff19166001908117909155888452600683528184208054909101905560078252808320858452909152808220859055518491339188917faef8a7519876cbb59f0f542092231b3800ad9861480219077105a0be0b5d9c4191a45050505050565b600560209081526000928352604080842090915290825290205460ff1681565b60008151116109b35760405162461bcd60e51b81526004016105579061221c565b60006109be336107b9565b905081600382815481106109ce57fe5b906000526020600020906005020160030190805190602001906109f2929190611ba1565b50336001600160a01b03167fe75d32c5ff8d021157f19973ee1eec9aa009eb2c36bf353402ac4f070234387383604051610a2c91906121b0565b60405180910390a25050565b600181565b6000815111610a5e5760405162461bcd60e51b81526004016105579061221c565b6000610a69336107b9565b90508160038281548110610a7957fe5b90600052602060002090600502016002019080519060200190610a9d929190611ba1565b50336001600160a01b03167ffdc4a4c67c50a692b7ca2a03a1e257a7dfc4d735fd2ad82d6ba0348c670f4fbf83604051610a2c91906121b0565b6000838383604051602001610aee93929190612055565b6040516020818303038152906040528051906020012090509392505050565b6000610b18336107b9565b90506000610b25836107b9565b600085815260056020908152604080832084845290915290205490915060ff16610b615760405162461bcd60e51b815260040161055790612253565b600084815260076020908152604080832085845290915290205460011480610b8857508082145b610ba45760405162461bcd60e51b8152600401610557906122f7565b60008481526005602090815260408083208484528252808320805460ff191690558683526006909152808220805460001901905551339186917fcdb8aee2f025866feed8775842d18b9233e143db65210f6c0b906f57503924129190a350505050565b600080610c148484611960565b9050610c21878787610843565b9695505050505050565b600080825111610c4d5760405162461bcd60e51b81526004016105579061221c565b610c55611b87565b50604080518082019091526001805480835260208084018681528284018455600093909352835160029092027fb10e2d527612073b26eecdfd717e6a320cf44b4afac2b0732d9fcbe2b7fa0cf68101928355925180518594610cdd937fb10e2d527612073b26eecdfd717e6a320cf44b4afac2b0732d9fcbe2b7fa0cf7909101920190611ba1565b5050508060000151600284604051610cf59190612039565b90815260405190819003602001812091909155815133917ff6412ea8a4b2dd1e6a68f504769fd3aac31bd2bbed490be3845ae09a93c6f67a90610d399087906121b0565b60405180910390a36000610d4c336107b9565b825160009081526005602090815260408083208484528252808320805460ff191660019081179091558651845260068352818420805482019055865184526007835281842085855290925280832082905585519051939450909233927faef8a7519876cbb59f0f542092231b3800ad9861480219077105a0be0b5d9c4191a4505192915050565b600860209081526000928352604080842090915290825290205460ff1681565b6000546001600160a01b031681565b600081565b600080610e13836107b9565b6000858152600560209081526040808320938352929052205460ff1691505092915050565b60038181548110610e4557fe5b6000918252602091829020600591909102018054600180830154600280850180546040805161010096831615969096026000190190911692909204601f81018890048802850188019092528184529396506001600160a01b0390911694919291830182828015610ef65780601f10610ecb57610100808354040283529160200191610ef6565b820191906000526020600020905b815481529060010190602001808311610ed957829003601f168201915b5050505060038301805460408051602060026001851615610100026000190190941693909304601f8101849004840282018401909252818152949594935090830182828015610f865780601f10610f5b57610100808354040283529160200191610f86565b820191906000526020600020905b815481529060010190602001808311610f6957829003601f168201915b5050505050908060040154905085565b805160208183018101805160028252928201919093012091525481565b6000610fbe336107b9565b90506000610fcb846107b9565b600086815260056020908152604080832084845290915290205490915060ff166110075760405162461bcd60e51b815260040161055790612253565b60008581526007602090815260408083208584529091529020546001146110405760405162461bcd60e51b8152600401610557906122f7565b600085815260076020908152604080832084845290915290819020849055518190869033907f20fc9c93838b3905ef7f6343f1985e15abd42f7e1bebfe5e29babfe6d8972771906110929088906121a7565b60405180910390a45050505050565b600760209081526000928352604080842090915290825290205481565b60015460609084106110e25760405162461bcd60e51b8152600401610557906121f1565b600080805b85821080156110f7575060035481105b1561113357600087815260056020908152604080832084845290915290205460ff161561112b576001808201935091909101905b6001016110e7565b5060009050815b848210801561114a575060035481105b1561118057600087815260056020908152604080832084845290915290205460ff1615611178576001909101905b60010161113a565b5060608167ffffffffffffffff8111801561119a57600080fd5b506040519080825280602002602001820160405280156111d457816020015b6111c1611c1f565b8152602001906001900390816111b95790505b5090506000835b83821080156111eb575060035481105b156113e557600089815260056020908152604080832084845290915290205460ff16156113dd576003818154811061121f57fe5b60009182526020918290206040805160a081018252600593909302909101805483526001808201546001600160a01b0316848601526002808301805485516101009482161594909402600019011691909104601f81018790048702830187018552808352949592949386019391929091908301828280156112e15780601f106112b6576101008083540402835291602001916112e1565b820191906000526020600020905b8154815290600101906020018083116112c457829003601f168201915b505050918352505060038201805460408051602060026001851615610100026000190190941693909304601f81018490048402820184019092528181529382019392918301828280156113755780601f1061134a57610100808354040283529160200191611375565b820191906000526020600020905b81548152906001019060200180831161135857829003601f168201915b5050505050815260200160048201548152505083838151811061139457fe5b60209081029190910181019190915260008a8152600782526040808220848352909252205483518490849081106113c757fe5b6020908102919091010151608001526001909101905b6001016111db565b5090979650505050505050565b60066020526000908152604090205481565b60008151116114255760405162461bcd60e51b81526004016105579061221c565b6000611430336107b9565b600084815260076020908152604080832084845290915290205490915060011461146c5760405162461bcd60e51b8152600401610557906122f7565b816001848154811061147a57fe5b9060005260206000209060020201600101908051906020019061149e929190611ba1565b50336001600160a01b03167f376b2d032e84a90743165f49e0fe9bc34b316699db5d4fbe3ae57627419f11e2836040516114d891906121b0565b60405180910390a2505050565b6003546060908311156114fb5760009150611510565b60035483830111156115105760035483900391505b60608267ffffffffffffffff8111801561152957600080fd5b5060405190808252806020026020018201604052801561156357816020015b611550611c1f565b8152602001906001900390816115485790505b509050835b8385820310156107b1576003818154811061157f57fe5b60009182526020918290206040805160a081018252600593909302909101805483526001808201546001600160a01b0316848601526002808301805485516101009482161594909402600019011691909104601f81018790048702830187018552808352949592949386019391929091908301828280156116415780601f1061161657610100808354040283529160200191611641565b820191906000526020600020905b81548152906001019060200180831161162457829003601f168201915b505050918352505060038201805460408051602060026001851615610100026000190190941693909304601f81018490048402820184019092528181529382019392918301828280156116d55780601f106116aa576101008083540402835291602001916116d5565b820191906000526020600020905b8154815290600101906020018083116116b857829003601f168201915b5050505050815260200160048201548152505082868303815181106116f657fe5b6020908102919091010152600101611568565b60046020526000908152604090205481565b60606000611728856107b9565b9050600080805b868210801561173f575060015481105b1561177b57600081815260056020908152604080832087845290915290205460ff1615611773576001808201935091909101905b60010161172f565b5060009050815b8582108015611792575060015481105b156117c857600081815260056020908152604080832087845290915290205460ff16156117c0576001909101905b600101611782565b5060608167ffffffffffffffff811180156117e257600080fd5b5060405190808252806020026020018201604052801561181c57816020015b611809611b87565b8152602001906001900390816118015790505b5090506000835b8382108015611833575060015481105b1561195257600081815260056020908152604080832089845290915290205460ff161561194a576001818154811061186757fe5b906000526020600020906002020160405180604001604052908160008201548152602001600182018054600181600116156101000203166002900480601f0160208091040260200160405190810160405280929190818152602001828054600181600116156101000203166002900480156119235780601f106118f857610100808354040283529160200191611923565b820191906000526020600020905b81548152906001019060200180831161190657829003601f168201915b50505050508152505083838151811061193857fe5b60209081029190910101526001909101905b600101611823565b509098975050505050505050565b6000808351116119825760405162461bcd60e51b81526004016105579061221c565b60008251116119a35760405162461bcd60e51b815260040161055790612377565b60035415806119ec5750336000818152600460205260409020546003805490919081106119cc57fe5b60009182526020909120600160059092020101546001600160a01b031614155b611a085760405162461bcd60e51b81526004016105579061232e565b611a10611c1f565b506040805160a08101825260038054808352336020808501918252948401888152606085018890526000608086018190526001840185559390935283517fc2575a0e9e593c00f959f8c92f12db2869c3395a3b0502d05e2516446f71f85b600590930292830190815590517fc2575a0e9e593c00f959f8c92f12db2869c3395a3b0502d05e2516446f71f85c830180546001600160a01b0319166001600160a01b039092169190911790559151805193948594611af3937fc2575a0e9e593c00f959f8c92f12db2869c3395a3b0502d05e2516446f71f85d019290910190611ba1565b5060608201518051611b0f916003840191602090910190611ba1565b5060809190910151600491820155815133600090815260209283526040908190209190915590820151825191516001600160a01b0390911691907ff34f506ea19328cfdfb06027b1f114e7304bb0b8ce3025906353144354d991cd90611b7890889088906121c3565b60405180910390a35092915050565b604051806040016040528060008152602001606081525090565b828054600181600116156101000203166002900490600052602060002090601f016020900481019282601f10611be257805160ff1916838001178555611c0f565b82800160010185558215611c0f579182015b82811115611c0f578251825591602001919060010190611bf4565b50611c1b929150611c57565b5090565b6040518060a001604052806000815260200160006001600160a01b031681526020016060815260200160608152602001600081525090565b611c7191905b80821115611c1b5760008155600101611c5d565b90565b80356001600160a01b038116811461083d57600080fd5b600082601f830112611c9b578081fd5b813567ffffffffffffffff80821115611cb2578283fd5b604051601f8301601f191681016020018281118282101715611cd2578485fd5b604052828152925082848301602001861015611ced57600080fd5b8260208601602083013760006020848301015250505092915050565b600060208284031215611d1a578081fd5b611d248383611c74565b9392505050565b600080600060608486031215611d3f578182fd5b611d498585611c74565b95602085013595506040909401359392505050565b600060208284031215611d6f578081fd5b813567ffffffffffffffff811115611d85578182fd5b611d9184828501611c8b565b949350505050565b600080600060608486031215611dad578283fd5b833567ffffffffffffffff80821115611dc4578485fd5b611dd087838801611c8b565b94506020860135915080821115611de5578384fd5b611df187838801611c8b565b93506040860135915080821115611e06578283fd5b50611e1386828701611c8b565b9150509250925092565b600060208284031215611e2e578081fd5b5035919050565b60008060408385031215611e47578182fd5b82359150611e588460208501611c74565b90509250929050565b600080600060608486031215611e75578283fd5b83359250611e868560208601611c74565b9150604084013590509250925092565b60008060408385031215611ea8578182fd5b50508035926020909101359150565b60008060408385031215611ec9578182fd5b82359150602083013567ffffffffffffffff811115611ee6578182fd5b611ef285828601611c8b565b9150509250929050565b600080600060608486031215611f10578283fd5b83359250602084013567ffffffffffffffff811115611f2d578283fd5b611f3986828701611c8b565b925050604084013590509250925092565b600080600080600060a08688031215611f61578081fd5b85359450602086013567ffffffffffffffff80821115611f7f578283fd5b611f8b89838a01611c8b565b9550604088013594506060880135915080821115611fa7578283fd5b611fb389838a01611c8b565b93506080880135915080821115611fc8578283fd5b50611fd588828901611c8b565b9150509295509295909350565b600080600060608486031215611ff6578283fd5b505081359360208301359350604090920135919050565b6000815180845261202581602086016020860161242e565b601f01601f19169290920160200192915050565b6000825161204b81846020870161242e565b9190910192915050565b6000848252835161206d81602085016020880161242e565b60209201918201929092526040019392505050565b6001600160a01b0391909116815260200190565b60208082528251828201819052600091906040908185019080840286018301878501865b8381101561195257603f198984030185528151805184528781015187898601526120e68886018261200d565b9689019694505050908601906001016120ba565b60208082528251828201819052600091906040908185019080840286018301878501865b8381101561195257888303603f19018552815180518452878101516001600160a01b0316888501528681015160a08886018190529061215f8287018261200d565b606092508284015191508681038388015261217a818361200d565b608094850151979094019690965250509487019492509086019060010161211e565b901515815260200190565b90815260200190565b600060208252611d24602083018461200d565b6000604082526121d6604083018561200d565b82810360208401526121e8818561200d565b95945050505050565b6020808252601190820152701a5b9d985b1a590819985b5a5b1e481251607a1b604082015260600190565b6020808252601f908201527f6e616d652063616e6e6f742062652074686520656d70747920737472696e6700604082015260600190565b6020808252601b908201527f6e6f742061206d656d626572206f6620746861742066616d696c790000000000604082015260600190565b60208082526025908201527f6163636f756e74206973206e6f74207265676973746572656420746f2061207060408201526432b939b7b760d91b606082015260800190565b6020808252600e908201526d696e76616c696420696e7669746560901b604082015260600190565b60208082526017908201527f6e6f74206120726573706f6e7369626c65206164756c74000000000000000000604082015260600190565b60208082526029908201527f6163636f756e7420697320616c7265616479207265676973746572656420746f6040820152681030903832b939b7b760b91b606082015260800190565b60208082526021908201527f6176617461722063616e6e6f742062652074686520656d70747920737472696e6040820152606760f81b606082015260800190565b8581526001600160a01b038516602082015260a0604082018190526000906123e29083018661200d565b82810360608401526123f4818661200d565b9150508260808301529695505050505050565b600083825260406020830152611d91604083018461200d565b918252602082015260400190565b60005b83811015612449578181015183820152602001612431565b83811115612458576000848401525b5050505056fea2646970667358221220487ba8d6d017ec11de6206b26271b629e0c69b5fc85af66cd29a99eacf439bb264736f6c63430006080033",
  "immutableReferences": {},
  "source": "// SPDX-License-Identifier: MIT\n\npragma solidity ^0.6.0;\n\npragma experimental ABIEncoderV2;\n\ncontract Families {\n    address public owner;\n\n    struct Family {\n        uint256 id;\n        string name;\n    }\n\n    Family[] public families;\n    mapping(string => uint256) public nameToFamily; // familyName => familyID\n\n    struct Person {\n        uint256 id;\n        address account;\n        string name;\n        string avatar;\n        uint256 role; // only sometimes filled in\n    }\n\n    Person[] public people;\n    mapping(address => uint256) public accountToPerson; // account => personID\n\n    // note: this is not the way to do this for production, but we're taking a shortcut for a hackathon\n    mapping(uint256 => mapping(uint256 => bool)) public familyMembers; // familyID => personID => valid\n    mapping(uint256 => uint256) public familyMembersCount; // familyID => person count\n    mapping(uint256 => mapping(uint256 => uint256)) public familyRoles; // familyID => personID => role\n    mapping(uint256 => mapping(bytes32 => bool)) public familyInvites; // familyID => hashed invite => valid\n\n    constructor() public {\n        owner = msg.sender;\n    }\n\n    event FamilyAdded(\n        uint256 indexed id,\n        string name,\n        address indexed personAccount\n    );\n    event FamilyNameSet(address indexed account, string name);\n    event PersonAdded(\n        uint256 indexed id,\n        address indexed account,\n        string name,\n        string avatar\n    );\n    event PersonNameSet(address indexed account, string name);\n    event PersonAvatarSet(address indexed account, string avatar);\n    event JoinedFamily(\n        uint256 indexed familyID,\n        address indexed account,\n        uint256 indexed role\n    );\n    event LeftFamily(uint256 indexed familyID, address indexed account);\n    event InviteAdded(\n        uint256 indexed familyID,\n        address indexed account,\n        bytes32 invite\n    );\n    event InviteRedeemed(\n        uint256 indexed familyID,\n        address indexed account,\n        bytes32 invite\n    );\n    event RoleSet(\n        address indexed account,\n        uint256 indexed familyID,\n        uint256 indexed personID,\n        uint256 role\n    );\n\n    uint256 public constant RoleNone = 0;\n    uint256 public constant RoleResponsibleAdult = 1;\n    uint256 public constant RoleAdult = 2;\n    uint256 public constant RoleChild = 3;\n\n    /// @dev Start a new family. The msg.sender must already be registered as a person.\n    /// @param familyName name of the family\n    /// @return ID of the newly created family\n    function startFamily(string memory familyName) public returns (uint256) {\n        require(\n            bytes(familyName).length > 0,\n            \"name cannot be the empty string\"\n        );\n\n        Family memory family = Family({id: families.length, name: familyName});\n\n        families.push(family);\n        nameToFamily[familyName] = family.id;\n\n        emit FamilyAdded(family.id, familyName, msg.sender);\n\n        // add this person to the family\n        uint256 personID = getPersonIDByAccount(msg.sender);\n\n        familyMembers[family.id][personID] = true;\n        familyMembersCount[family.id]++;\n        familyRoles[family.id][personID] = RoleResponsibleAdult;\n\n        emit JoinedFamily(family.id, msg.sender, RoleResponsibleAdult);\n\n        return family.id;\n    }\n\n    /// @dev Update a family's name\n    /// @param familyID family ID\n    /// @param familyName new family name\n    function setFamilyName(uint256 familyID, string memory familyName) public {\n        require(\n            bytes(familyName).length > 0,\n            \"name cannot be the empty string\"\n        );\n        uint256 personID = getPersonIDByAccount(msg.sender);\n\n        require(\n            familyRoles[familyID][personID] == RoleResponsibleAdult,\n            \"not a responsible adult\"\n        );\n\n        families[familyID].name = familyName;\n\n        emit FamilyNameSet(msg.sender, familyName);\n    }\n\n    /// @dev Retrieve a person ID by their account\n    /// @param account account address of the person\n    /// @return person ID\n    function getPersonIDByAccount(address account)\n        public\n        view\n        returns (uint256)\n    {\n        uint256 id = accountToPerson[account];\n        require(\n            id < people.length &&\n                people.length > 0 &&\n                people[id].account == account,\n            \"account is not registered to a person\"\n        );\n        return id;\n    }\n\n    /// @dev Add a person\n    /// @param personName the person's name\n    /// @param avatar the person's avatar\n    /// @return person ID\n    function addPerson(string memory personName, string memory avatar)\n        internal\n        returns (uint256)\n    {\n        require(\n            bytes(personName).length > 0,\n            \"name cannot be the empty string\"\n        );\n        require(bytes(avatar).length > 0, \"avatar cannot be the empty string\");\n        require(\n            people.length == 0 ||\n                people[accountToPerson[msg.sender]].account != msg.sender,\n            \"account is already registered to a person\"\n        );\n\n        Person memory person =\n            Person({\n                id: people.length,\n                account: msg.sender,\n                name: personName,\n                avatar: avatar,\n                role: RoleNone\n            });\n\n        people.push(person);\n        accountToPerson[msg.sender] = person.id;\n\n        emit PersonAdded(person.id, person.account, personName, avatar);\n    }\n\n    /// @dev Update a person's name\n    /// @param personName the person's new name\n    function setPersonName(string memory personName) public {\n        require(\n            bytes(personName).length > 0,\n            \"name cannot be the empty string\"\n        );\n        uint256 personID = getPersonIDByAccount(msg.sender);\n\n        people[personID].name = personName;\n\n        emit PersonNameSet(msg.sender, personName);\n    }\n\n    /// @dev Update a person's avatar\n    /// @param avatar the person's avatar\n    function setPersonAvatar(string memory avatar) public {\n        require(bytes(avatar).length > 0, \"name cannot be the empty string\");\n        uint256 personID = getPersonIDByAccount(msg.sender);\n\n        people[personID].avatar = avatar;\n\n        emit PersonAvatarSet(msg.sender, avatar);\n    }\n\n    /// @dev Update a person's role in a family\n    /// @param familyID family ID\n    /// @param personAccount account of the person update\n    /// @param role new role\n    function setPersonRoleInFamily(\n        uint256 familyID,\n        address personAccount,\n        uint256 role\n    ) public {\n        uint256 senderPersonID = getPersonIDByAccount(msg.sender);\n        uint256 personID = getPersonIDByAccount(personAccount);\n\n        require(\n            familyMembers[familyID][personID],\n            \"not a member of that family\"\n        );\n        require(\n            familyRoles[familyID][senderPersonID] == RoleResponsibleAdult,\n            \"not a responsible adult\"\n        );\n\n        familyRoles[familyID][personID] = role;\n\n        emit RoleSet(msg.sender, familyID, personID, role);\n    }\n\n    /// @dev Start a new family. The msg.sender will also be registered as a person.\n    /// @param familyName name of the family\n    /// @param personName the person's name\n    /// @param avatar the person's avatar\n    /// @return IDs of the newly created family and person\n    function startFirstFamily(\n        string memory familyName,\n        string memory personName,\n        string memory avatar\n    ) public returns (uint256, uint256) {\n        uint256 personID = addPerson(personName, avatar);\n        uint256 familyID = startFamily(familyName);\n\n        return (familyID, personID);\n    }\n\n    /// @dev Retrieve families\n    /// @param offset offset to return from\n    /// @param limit maximum number to return\n    /// @return families\n    function getFamilies(uint256 offset, uint256 limit)\n        public\n        view\n        returns (Family[] memory)\n    {\n        // note: this will not scale to production, but we're taking a shortcut for a hackathon\n        if (offset > families.length) {\n            limit = 0;\n        } else if (offset + limit > families.length) {\n            limit = families.length - offset;\n        }\n\n        Family[] memory selectFamilies = new Family[](limit);\n\n        for (uint256 i = offset; i - offset < limit; i++) {\n            selectFamilies[i - offset] = families[i];\n        }\n    }\n\n    /// @dev Retrieve people\n    /// @param offset offset to return from\n    /// @param limit maximum number to return\n    /// @return people\n    function getPeople(uint256 offset, uint256 limit)\n        public\n        view\n        returns (Person[] memory)\n    {\n        // note: this will not scale to production, but we're taking a shortcut for a hackathon\n        if (offset > people.length) {\n            limit = 0;\n        } else if (offset + limit > people.length) {\n            limit = people.length - offset;\n        }\n\n        Person[] memory selectPeople = new Person[](limit);\n\n        for (uint256 i = offset; i - offset < limit; i++) {\n            selectPeople[i - offset] = people[i];\n        }\n    }\n\n    /// @dev Retrieve family members\n    /// @param offset offset to return from\n    /// @param limit maximum number to return\n    /// @return people\n    function getFamilyMembers(\n        uint256 familyID,\n        uint256 offset,\n        uint256 limit\n    ) public view returns (Person[] memory) {\n        // note: this will not scale to production, but we're taking a shortcut for a hackathon\n        require(familyID < families.length, \"invalid family ID\");\n\n        // count forward by 'offset' matching people\n        uint256 start = 0;\n        uint256 count = 0;\n        for (uint256 i = 0; count < offset && i < people.length; i++) {\n            if (familyMembers[familyID][i]) {\n                start = i + 1;\n                count++;\n            }\n        }\n\n        // count the number of matching people\n        count = 0;\n        for (uint256 i = start; count < limit && i < people.length; i++) {\n            if (familyMembers[familyID][i]) {\n                count++;\n            }\n        }\n\n        Person[] memory selectPeople = new Person[](count);\n\n        uint256 j = 0;\n        for (uint256 i = start; j < count && i < people.length; i++) {\n            if (familyMembers[familyID][i]) {\n                selectPeople[j] = people[i];\n                selectPeople[j].role = familyRoles[familyID][i];\n                j++;\n            }\n        }\n\n        return selectPeople;\n    }\n\n    /// @dev Retrieve the families a person is a part of\n    /// @param offset offset to return from\n    /// @param limit maximum number to return\n    /// @return families\n    function getFamilyMemberships(\n        address personAccount,\n        uint256 offset,\n        uint256 limit\n    ) public view returns (Family[] memory) {\n        // note: this will not scale to production, but we're taking a shortcut for a hackathon\n        uint256 personID = getPersonIDByAccount(personAccount);\n\n        // count forward by 'offset' matching families\n        uint256 start = 0;\n        uint256 count = 0;\n        for (uint256 i = 0; count < offset && i < families.length; i++) {\n            if (familyMembers[i][personID]) {\n                start = i + 1;\n                count++;\n            }\n        }\n\n        // count the number of matching families\n        count = 0;\n        for (uint256 i = start; count < limit && i < families.length; i++) {\n            if (familyMembers[i][personID]) {\n                count++;\n            }\n        }\n\n        Family[] memory selectFamilies = new Family[](count);\n\n        uint256 j = 0;\n        for (uint256 i = start; j < count && i < families.length; i++) {\n            if (familyMembers[i][personID]) {\n                selectFamilies[j] = families[i];\n                j++;\n            }\n        }\n\n        return selectFamilies;\n    }\n\n    /// @dev Generates an invite\n    /// @param familyID family ID\n    /// @param nonce random nonce generated off-chain\n    /// @param role the role of the person\n    /// @return hashed invite\n    function generateInvite(\n        uint256 familyID,\n        string memory nonce,\n        uint256 role\n    ) public pure returns (bytes32) {\n        return (keccak256(abi.encodePacked(familyID, nonce, role)));\n    }\n\n    /// @dev Adds an invite\n    /// @param familyID family ID\n    /// @param invite the hashed invite\n    function addInvite(uint256 familyID, bytes32 invite) public {\n        uint256 personID = getPersonIDByAccount(msg.sender);\n\n        require(\n            familyMembers[familyID][personID],\n            \"not a member of that family\"\n        );\n        require(\n            familyRoles[familyID][personID] == RoleResponsibleAdult,\n            \"not a responsible adult\"\n        );\n\n        familyInvites[familyID][invite] = true;\n\n        emit InviteAdded(familyID, msg.sender, invite);\n    }\n\n    /// @dev Join a family by invitation\n    /// @param familyID family ID\n    /// @param nonce random nonce generated off-chain\n    /// @param role the role of the person\n    function joinFamily(\n        uint256 familyID,\n        string memory nonce,\n        uint256 role\n    ) public {\n        // note: this can be front-run in production, but we're taking a shortcut for a hackathon\n        uint256 personID = getPersonIDByAccount(msg.sender);\n\n        // validate invite\n        bytes32 invite = generateInvite(familyID, nonce, role);\n        require(familyInvites[familyID][invite], \"invalid invite\");\n\n        // mark invite as used\n        familyInvites[familyID][invite] = false;\n        emit InviteRedeemed(familyID, msg.sender, invite);\n\n        // add them to the family\n        familyMembers[familyID][personID] = true;\n        familyMembersCount[familyID]++;\n        familyRoles[familyID][personID] = role;\n\n        emit JoinedFamily(familyID, msg.sender, role);\n    }\n\n    /// @dev Join a family by invitation, and add the person\n    /// @param familyID family ID\n    /// @param nonce random nonce generated off-chain\n    /// @param role the role of the person\n    /// @param personName the person's name\n    /// @param avatar the person's avatar\n    /// @return ID of the newly created person\n    function joinFirstFamily(\n        uint256 familyID,\n        string memory nonce,\n        uint256 role,\n        string memory personName,\n        string memory avatar\n    ) public returns (uint256) {\n        // note: this can be front-run in production, but we're taking a shortcut for a hackathon\n        uint256 personID = addPerson(personName, avatar);\n        joinFamily(familyID, nonce, role);\n\n        return personID;\n    }\n\n    /// @dev Remove a family member\n    /// @param familyID family ID\n    /// @param personAccount account of the person to remove\n    function removeFamilyMember(uint256 familyID, address personAccount)\n        public\n    {\n        uint256 senderPersonID = getPersonIDByAccount(msg.sender);\n        uint256 personID = getPersonIDByAccount(personAccount);\n\n        require(\n            familyMembers[familyID][personID],\n            \"not a member of that family\"\n        );\n        require(\n            familyRoles[familyID][senderPersonID] == RoleResponsibleAdult ||\n                senderPersonID == personID,\n            \"not a responsible adult\"\n        );\n\n        familyMembers[familyID][personID] = false;\n        familyMembersCount[familyID]--;\n\n        emit LeftFamily(familyID, msg.sender);\n    }\n\n    /// @dev Is someone in a family\n    /// @param familyID family ID\n    /// @param personAccount account of the person to check\n    function areTheyFamily(uint256 familyID, address personAccount)\n        public\n        view\n        returns (bool)\n    {\n        uint256 personID = getPersonIDByAccount(personAccount);\n\n        return familyMembers[familyID][personID];\n    }\n}\n",
  "sourcePath": "/Users/jeff/projects/curvegrid/nftjr/contracts/contracts/Families.sol",
  "compiler": {
    "name": "solc",
    "version": "0.6.8+commit.0bbfe453.Emscripten.clang"
  },
  "schemaVersion": "3.3.4",
  "updatedAt": "2021-03-21T07:50:56.480Z",
  "devdoc": {
    "methods": {
      "addInvite(uint256,bytes32)": {
        "details": "Adds an invite",
        "params": {
          "familyID": "family ID",
          "invite": "the hashed invite"
        }
      },
      "areTheyFamily(uint256,address)": {
        "details": "Is someone in a family",
        "params": {
          "familyID": "family ID",
          "personAccount": "account of the person to check"
        }
      },
      "generateInvite(uint256,string,uint256)": {
        "details": "Generates an invite",
        "params": {
          "familyID": "family ID",
          "nonce": "random nonce generated off-chain",
          "role": "the role of the person"
        },
        "returns": {
          "_0": "hashed invite"
        }
      },
      "getFamilies(uint256,uint256)": {
        "details": "Retrieve families",
        "params": {
          "limit": "maximum number to return",
          "offset": "offset to return from"
        },
        "returns": {
          "_0": "families"
        }
      },
      "getFamilyMembers(uint256,uint256,uint256)": {
        "details": "Retrieve family members",
        "params": {
          "limit": "maximum number to return",
          "offset": "offset to return from"
        },
        "returns": {
          "_0": "people"
        }
      },
      "getFamilyMemberships(address,uint256,uint256)": {
        "details": "Retrieve the families a person is a part of",
        "params": {
          "limit": "maximum number to return",
          "offset": "offset to return from"
        },
        "returns": {
          "_0": "families"
        }
      },
      "getPeople(uint256,uint256)": {
        "details": "Retrieve people",
        "params": {
          "limit": "maximum number to return",
          "offset": "offset to return from"
        },
        "returns": {
          "_0": "people"
        }
      },
      "getPersonIDByAccount(address)": {
        "details": "Retrieve a person ID by their account",
        "params": {
          "account": "account address of the person"
        },
        "returns": {
          "_0": "person ID"
        }
      },
      "joinFamily(uint256,string,uint256)": {
        "details": "Join a family by invitation",
        "params": {
          "familyID": "family ID",
          "nonce": "random nonce generated off-chain",
          "role": "the role of the person"
        }
      },
      "joinFirstFamily(uint256,string,uint256,string,string)": {
        "details": "Join a family by invitation, and add the person",
        "params": {
          "avatar": "the person's avatar",
          "familyID": "family ID",
          "nonce": "random nonce generated off-chain",
          "personName": "the person's name",
          "role": "the role of the person"
        },
        "returns": {
          "_0": "ID of the newly created person"
        }
      },
      "removeFamilyMember(uint256,address)": {
        "details": "Remove a family member",
        "params": {
          "familyID": "family ID",
          "personAccount": "account of the person to remove"
        }
      },
      "setFamilyName(uint256,string)": {
        "details": "Update a family's name",
        "params": {
          "familyID": "family ID",
          "familyName": "new family name"
        }
      },
      "setPersonAvatar(string)": {
        "details": "Update a person's avatar",
        "params": {
          "avatar": "the person's avatar"
        }
      },
      "setPersonName(string)": {
        "details": "Update a person's name",
        "params": {
          "personName": "the person's new name"
        }
      },
      "setPersonRoleInFamily(uint256,address,uint256)": {
        "details": "Update a person's role in a family",
        "params": {
          "familyID": "family ID",
          "personAccount": "account of the person update",
          "role": "new role"
        }
      },
      "startFamily(string)": {
        "details": "Start a new family. The msg.sender must already be registered as a person.",
        "params": {
          "familyName": "name of the family"
        },
        "returns": {
          "_0": "ID of the newly created family"
        }
      },
      "startFirstFamily(string,string,string)": {
        "details": "Start a new family. The msg.sender will also be registered as a person.",
        "params": {
          "avatar": "the person's avatar",
          "familyName": "name of the family",
          "personName": "the person's name"
        },
        "returns": {
          "_0": "IDs of the newly created family and person"
        }
      }
    }
  },
  "userdoc": {
    "methods": {}
  }
}