{
  "contractName": "Families",
  "abi": [
    {
      "inputs": [],
      "stateMutability": "nonpayable",
      "type": "constructor"
    },
    {
      "anonymous": false,
      "inputs": [
        {
          "indexed": true,
          "internalType": "uint256",
          "name": "id",
          "type": "uint256"
        },
        {
          "indexed": false,
          "internalType": "string",
          "name": "name",
          "type": "string"
        },
        {
          "indexed": true,
          "internalType": "address",
          "name": "personAccount",
          "type": "address"
        }
      ],
      "name": "FamilyAdded",
      "type": "event"
    },
    {
      "anonymous": false,
      "inputs": [
        {
          "indexed": true,
          "internalType": "address",
          "name": "account",
          "type": "address"
        },
        {
          "indexed": false,
          "internalType": "string",
          "name": "name",
          "type": "string"
        }
      ],
      "name": "FamilyNameSet",
      "type": "event"
    },
    {
      "anonymous": false,
      "inputs": [
        {
          "indexed": true,
          "internalType": "uint256",
          "name": "familyID",
          "type": "uint256"
        },
        {
          "indexed": true,
          "internalType": "address",
          "name": "account",
          "type": "address"
        },
        {
          "indexed": false,
          "internalType": "bytes32",
          "name": "invite",
          "type": "bytes32"
        }
      ],
      "name": "InviteAdded",
      "type": "event"
    },
    {
      "anonymous": false,
      "inputs": [
        {
          "indexed": true,
          "internalType": "uint256",
          "name": "familyID",
          "type": "uint256"
        },
        {
          "indexed": true,
          "internalType": "address",
          "name": "account",
          "type": "address"
        },
        {
          "indexed": false,
          "internalType": "bytes32",
          "name": "invite",
          "type": "bytes32"
        }
      ],
      "name": "InviteRedeemed",
      "type": "event"
    },
    {
      "anonymous": false,
      "inputs": [
        {
          "indexed": true,
          "internalType": "uint256",
          "name": "familyID",
          "type": "uint256"
        },
        {
          "indexed": true,
          "internalType": "address",
          "name": "account",
          "type": "address"
        },
        {
          "indexed": true,
          "internalType": "uint256",
          "name": "role",
          "type": "uint256"
        }
      ],
      "name": "JoinedFamily",
      "type": "event"
    },
    {
      "anonymous": false,
      "inputs": [
        {
          "indexed": true,
          "internalType": "uint256",
          "name": "familyID",
          "type": "uint256"
        },
        {
          "indexed": true,
          "internalType": "address",
          "name": "account",
          "type": "address"
        }
      ],
      "name": "LeftFamily",
      "type": "event"
    },
    {
      "anonymous": false,
      "inputs": [
        {
          "indexed": true,
          "internalType": "uint256",
          "name": "id",
          "type": "uint256"
        },
        {
          "indexed": true,
          "internalType": "address",
          "name": "account",
          "type": "address"
        },
        {
          "indexed": false,
          "internalType": "string",
          "name": "name",
          "type": "string"
        },
        {
          "indexed": false,
          "internalType": "string",
          "name": "avatar",
          "type": "string"
        }
      ],
      "name": "PersonAdded",
      "type": "event"
    },
    {
      "anonymous": false,
      "inputs": [
        {
          "indexed": true,
          "internalType": "address",
          "name": "account",
          "type": "address"
        },
        {
          "indexed": false,
          "internalType": "string",
          "name": "avatar",
          "type": "string"
        }
      ],
      "name": "PersonAvatarSet",
      "type": "event"
    },
    {
      "anonymous": false,
      "inputs": [
        {
          "indexed": true,
          "internalType": "address",
          "name": "account",
          "type": "address"
        },
        {
          "indexed": false,
          "internalType": "string",
          "name": "name",
          "type": "string"
        }
      ],
      "name": "PersonNameSet",
      "type": "event"
    },
    {
      "anonymous": false,
      "inputs": [
        {
          "indexed": true,
          "internalType": "address",
          "name": "account",
          "type": "address"
        },
        {
          "indexed": true,
          "internalType": "uint256",
          "name": "familyID",
          "type": "uint256"
        },
        {
          "indexed": true,
          "internalType": "uint256",
          "name": "personID",
          "type": "uint256"
        },
        {
          "indexed": false,
          "internalType": "uint256",
          "name": "role",
          "type": "uint256"
        }
      ],
      "name": "RoleSet",
      "type": "event"
    },
    {
      "inputs": [],
      "name": "RoleAdult",
      "outputs": [
        {
          "internalType": "uint256",
          "name": "",
          "type": "uint256"
        }
      ],
      "stateMutability": "view",
      "type": "function"
    },
    {
      "inputs": [],
      "name": "RoleChild",
      "outputs": [
        {
          "internalType": "uint256",
          "name": "",
          "type": "uint256"
        }
      ],
      "stateMutability": "view",
      "type": "function"
    },
    {
      "inputs": [],
      "name": "RoleNone",
      "outputs": [
        {
          "internalType": "uint256",
          "name": "",
          "type": "uint256"
        }
      ],
      "stateMutability": "view",
      "type": "function"
    },
    {
      "inputs": [],
      "name": "RoleResponsibleAdult",
      "outputs": [
        {
          "internalType": "uint256",
          "name": "",
          "type": "uint256"
        }
      ],
      "stateMutability": "view",
      "type": "function"
    },
    {
      "inputs": [
        {
          "internalType": "address",
          "name": "",
          "type": "address"
        }
      ],
      "name": "accountToPerson",
      "outputs": [
        {
          "internalType": "uint256",
          "name": "",
          "type": "uint256"
        }
      ],
      "stateMutability": "view",
      "type": "function"
    },
    {
      "inputs": [
        {
          "internalType": "uint256",
          "name": "",
          "type": "uint256"
        }
      ],
      "name": "families",
      "outputs": [
        {
          "internalType": "uint256",
          "name": "id",
          "type": "uint256"
        },
        {
          "internalType": "string",
          "name": "name",
          "type": "string"
        }
      ],
      "stateMutability": "view",
      "type": "function"
    },
    {
      "inputs": [
        {
          "internalType": "uint256",
          "name": "",
          "type": "uint256"
        },
        {
          "internalType": "bytes32",
          "name": "",
          "type": "bytes32"
        }
      ],
      "name": "familyInvites",
      "outputs": [
        {
          "internalType": "bool",
          "name": "",
          "type": "bool"
        }
      ],
      "stateMutability": "view",
      "type": "function"
    },
    {
      "inputs": [
        {
          "internalType": "uint256",
          "name": "",
          "type": "uint256"
        },
        {
          "internalType": "uint256",
          "name": "",
          "type": "uint256"
        }
      ],
      "name": "familyMembers",
      "outputs": [
        {
          "internalType": "bool",
          "name": "",
          "type": "bool"
        }
      ],
      "stateMutability": "view",
      "type": "function"
    },
    {
      "inputs": [
        {
          "internalType": "uint256",
          "name": "",
          "type": "uint256"
        }
      ],
      "name": "familyMembersCount",
      "outputs": [
        {
          "internalType": "uint256",
          "name": "",
          "type": "uint256"
        }
      ],
      "stateMutability": "view",
      "type": "function"
    },
    {
      "inputs": [
        {
          "internalType": "uint256",
          "name": "",
          "type": "uint256"
        },
        {
          "internalType": "uint256",
          "name": "",
          "type": "uint256"
        }
      ],
      "name": "familyRoles",
      "outputs": [
        {
          "internalType": "uint256",
          "name": "",
          "type": "uint256"
        }
      ],
      "stateMutability": "view",
      "type": "function"
    },
    {
      "inputs": [
        {
          "internalType": "string",
          "name": "",
          "type": "string"
        }
      ],
      "name": "nameToFamily",
      "outputs": [
        {
          "internalType": "uint256",
          "name": "",
          "type": "uint256"
        }
      ],
      "stateMutability": "view",
      "type": "function"
    },
    {
      "inputs": [],
      "name": "owner",
      "outputs": [
        {
          "internalType": "address",
          "name": "",
          "type": "address"
        }
      ],
      "stateMutability": "view",
      "type": "function"
    },
    {
      "inputs": [
        {
          "internalType": "uint256",
          "name": "",
          "type": "uint256"
        }
      ],
      "name": "people",
      "outputs": [
        {
          "internalType": "uint256",
          "name": "id",
          "type": "uint256"
        },
        {
          "internalType": "address",
          "name": "account",
          "type": "address"
        },
        {
          "internalType": "string",
          "name": "name",
          "type": "string"
        },
        {
          "internalType": "string",
          "name": "avatar",
          "type": "string"
        },
        {
          "internalType": "uint256",
          "name": "role",
          "type": "uint256"
        }
      ],
      "stateMutability": "view",
      "type": "function"
    },
    {
      "inputs": [
        {
          "internalType": "string",
          "name": "familyName",
          "type": "string"
        }
      ],
      "name": "startFamily",
      "outputs": [
        {
          "internalType": "uint256",
          "name": "",
          "type": "uint256"
        }
      ],
      "stateMutability": "nonpayable",
      "type": "function"
    },
    {
      "inputs": [
        {
          "internalType": "uint256",
          "name": "familyID",
          "type": "uint256"
        },
        {
          "internalType": "string",
          "name": "familyName",
          "type": "string"
        }
      ],
      "name": "setFamilyName",
      "outputs": [],
      "stateMutability": "nonpayable",
      "type": "function"
    },
    {
      "inputs": [
        {
          "internalType": "address",
          "name": "account",
          "type": "address"
        }
      ],
      "name": "getPersonIDByAccount",
      "outputs": [
        {
          "internalType": "uint256",
          "name": "",
          "type": "uint256"
        }
      ],
      "stateMutability": "view",
      "type": "function"
    },
    {
      "inputs": [
        {
          "internalType": "string",
          "name": "personName",
          "type": "string"
        }
      ],
      "name": "setPersonName",
      "outputs": [],
      "stateMutability": "nonpayable",
      "type": "function"
    },
    {
      "inputs": [
        {
          "internalType": "string",
          "name": "avatar",
          "type": "string"
        }
      ],
      "name": "setPersonAvatar",
      "outputs": [],
      "stateMutability": "nonpayable",
      "type": "function"
    },
    {
      "inputs": [
        {
          "internalType": "uint256",
          "name": "familyID",
          "type": "uint256"
        },
        {
          "internalType": "uint256",
          "name": "personID",
          "type": "uint256"
        },
        {
          "internalType": "uint256",
          "name": "role",
          "type": "uint256"
        }
      ],
      "name": "setPersonRoleInFamily",
      "outputs": [],
      "stateMutability": "nonpayable",
      "type": "function"
    },
    {
      "inputs": [
        {
          "internalType": "string",
          "name": "familyName",
          "type": "string"
        },
        {
          "internalType": "string",
          "name": "personName",
          "type": "string"
        },
        {
          "internalType": "string",
          "name": "avatar",
          "type": "string"
        }
      ],
      "name": "startFirstFamily",
      "outputs": [
        {
          "internalType": "uint256",
          "name": "",
          "type": "uint256"
        },
        {
          "internalType": "uint256",
          "name": "",
          "type": "uint256"
        }
      ],
      "stateMutability": "nonpayable",
      "type": "function"
    },
    {
      "inputs": [
        {
          "internalType": "uint256",
          "name": "offset",
          "type": "uint256"
        },
        {
          "internalType": "uint256",
          "name": "limit",
          "type": "uint256"
        }
      ],
      "name": "getFamilies",
      "outputs": [
        {
          "components": [
            {
              "internalType": "uint256",
              "name": "id",
              "type": "uint256"
            },
            {
              "internalType": "string",
              "name": "name",
              "type": "string"
            }
          ],
          "internalType": "struct Families.Family[]",
          "name": "",
          "type": "tuple[]"
        }
      ],
      "stateMutability": "view",
      "type": "function"
    },
    {
      "inputs": [
        {
          "internalType": "uint256",
          "name": "offset",
          "type": "uint256"
        },
        {
          "internalType": "uint256",
          "name": "limit",
          "type": "uint256"
        }
      ],
      "name": "getPeople",
      "outputs": [
        {
          "components": [
            {
              "internalType": "uint256",
              "name": "id",
              "type": "uint256"
            },
            {
              "internalType": "address",
              "name": "account",
              "type": "address"
            },
            {
              "internalType": "string",
              "name": "name",
              "type": "string"
            },
            {
              "internalType": "string",
              "name": "avatar",
              "type": "string"
            },
            {
              "internalType": "uint256",
              "name": "role",
              "type": "uint256"
            }
          ],
          "internalType": "struct Families.Person[]",
          "name": "",
          "type": "tuple[]"
        }
      ],
      "stateMutability": "view",
      "type": "function"
    },
    {
      "inputs": [
        {
          "internalType": "uint256",
          "name": "familyID",
          "type": "uint256"
        },
        {
          "internalType": "uint256",
          "name": "offset",
          "type": "uint256"
        },
        {
          "internalType": "uint256",
          "name": "limit",
          "type": "uint256"
        }
      ],
      "name": "getFamilyMembers",
      "outputs": [
        {
          "components": [
            {
              "internalType": "uint256",
              "name": "id",
              "type": "uint256"
            },
            {
              "internalType": "address",
              "name": "account",
              "type": "address"
            },
            {
              "internalType": "string",
              "name": "name",
              "type": "string"
            },
            {
              "internalType": "string",
              "name": "avatar",
              "type": "string"
            },
            {
              "internalType": "uint256",
              "name": "role",
              "type": "uint256"
            }
          ],
          "internalType": "struct Families.Person[]",
          "name": "",
          "type": "tuple[]"
        }
      ],
      "stateMutability": "view",
      "type": "function"
    },
    {
      "inputs": [
        {
          "internalType": "address",
          "name": "personAccount",
          "type": "address"
        },
        {
          "internalType": "uint256",
          "name": "offset",
          "type": "uint256"
        },
        {
          "internalType": "uint256",
          "name": "limit",
          "type": "uint256"
        }
      ],
      "name": "getFamilyMemberships",
      "outputs": [
        {
          "components": [
            {
              "internalType": "uint256",
              "name": "id",
              "type": "uint256"
            },
            {
              "internalType": "string",
              "name": "name",
              "type": "string"
            }
          ],
          "internalType": "struct Families.Family[]",
          "name": "",
          "type": "tuple[]"
        }
      ],
      "stateMutability": "view",
      "type": "function"
    },
    {
      "inputs": [
        {
          "internalType": "uint256",
          "name": "familyID",
          "type": "uint256"
        },
        {
          "internalType": "string",
          "name": "nonce",
          "type": "string"
        },
        {
          "internalType": "uint256",
          "name": "role",
          "type": "uint256"
        }
      ],
      "name": "generateInvite",
      "outputs": [
        {
          "internalType": "bytes32",
          "name": "",
          "type": "bytes32"
        }
      ],
      "stateMutability": "pure",
      "type": "function"
    },
    {
      "inputs": [
        {
          "internalType": "uint256",
          "name": "familyID",
          "type": "uint256"
        },
        {
          "internalType": "bytes32",
          "name": "invite",
          "type": "bytes32"
        }
      ],
      "name": "addInvite",
      "outputs": [],
      "stateMutability": "nonpayable",
      "type": "function"
    },
    {
      "inputs": [
        {
          "internalType": "uint256",
          "name": "familyID",
          "type": "uint256"
        },
        {
          "internalType": "string",
          "name": "nonce",
          "type": "string"
        },
        {
          "internalType": "uint256",
          "name": "role",
          "type": "uint256"
        }
      ],
      "name": "joinFamily",
      "outputs": [],
      "stateMutability": "nonpayable",
      "type": "function"
    },
    {
      "inputs": [
        {
          "internalType": "uint256",
          "name": "familyID",
          "type": "uint256"
        },
        {
          "internalType": "string",
          "name": "nonce",
          "type": "string"
        },
        {
          "internalType": "uint256",
          "name": "role",
          "type": "uint256"
        },
        {
          "internalType": "string",
          "name": "personName",
          "type": "string"
        },
        {
          "internalType": "string",
          "name": "avatar",
          "type": "string"
        }
      ],
      "name": "joinFirstFamily",
      "outputs": [
        {
          "internalType": "uint256",
          "name": "",
          "type": "uint256"
        }
      ],
      "stateMutability": "nonpayable",
      "type": "function"
    },
    {
      "inputs": [
        {
          "internalType": "uint256",
          "name": "familyID",
          "type": "uint256"
        },
        {
          "internalType": "uint256",
          "name": "personID",
          "type": "uint256"
        }
      ],
      "name": "removeFamilyMember",
      "outputs": [],
      "stateMutability": "nonpayable",
      "type": "function"
    }
  ],
  "bytecode": "0x608060405234801561001057600080fd5b50600080546001600160a01b031916331790556123c8806100326000396000f3fe608060405234801561001057600080fd5b50600436106101cf5760003560e01c80636e96002111610104578063bb30a169116100a2578063dd4bc9d811610071578063dd4bc9d8146103f1578063de40d18f14610404578063e72b616814610417578063f4ca16631461042a576101cf565b8063bb30a16914610398578063bc777940146103ab578063bc8ce6bc146103cb578063cde7c987146103de576101cf565b80638da5cb5b116100de5780638da5cb5b146103445780638e5d6b76146103595780639e7a13ad14610361578063a8b2c35814610385576101cf565b80636e9600211461030b578063778359911461031e5780637e631e0f14610331576101cf565b80632274334c116101715780632e3937ee1161014b5780632e3937ee146102ca578063352b07de146102dd5780634e863271146102e557806350793234146102f8576101cf565b80632274334c14610284578063272302f214610297578063289dd058146102aa576101cf565b80630ce10677116101ad5780630ce10677146102285780630d52bf351461023057806311ca9eb5146102515780631f446a6d14610271576101cf565b8063078beae5146101d457806308ab3ac4146101fe5780630c61f76914610213575b600080fd5b6101e76101e2366004611db2565b61043d565b6040516101f592919061233b565b60405180910390f35b61021161020c366004611dca565b6104f2565b005b61021b6105e0565b6040516101f591906120db565b61021b6105e5565b61024361023e366004611d2e565b6105ea565b6040516101f5929190612354565b61026461025f366004611dca565b610613565b6040516101f59190611fca565b61021b61027f366004611c9e565b61079b565b610211610292366004611e30565b610825565b6102116102a5366004611dca565b610954565b6102bd6102b8366004611dca565b610a40565b6040516101f591906120d0565b6102116102d8366004611cf3565b610a60565b61021b610b06565b6102116102f3366004611cf3565b610b0b565b61021b610306366004611e30565b610ba5565b61021b610319366004611e7e565b610bdb565b61021b61032c366004611cf3565b610bff565b6102bd61033f366004611dca565b610da7565b61034c610dc7565b6040516101f59190611fb6565b61021b610dd6565b61037461036f366004611db2565b610ddb565b6040516101f59594939291906122ec565b61021b610393366004611cf3565b610f39565b61021b6103a6366004611dca565b610f56565b6103be6103b9366004611f16565b610f73565b6040516101f5919061202e565b61021b6103d9366004611db2565b6112a7565b6102116103ec366004611deb565b6112b9565b6103be6103ff366004611dca565b61139a565b610211610412366004611f16565b6115be565b61021b610425366004611c9e565b61169e565b610264610438366004611cc0565b6116b0565b6001818154811061044a57fe5b60009182526020918290206002918202018054600180830180546040805193821615610100026000190190911695909504601f81018790048702830187019095528482529195509193919290918301828280156104e85780601f106104bd576101008083540402835291602001916104e8565b820191906000526020600020905b8154815290600101906020018083116104cb57829003601f168201915b5050505050905082565b60006104fd3361079b565b600084815260056020908152604080832084845290915290205490915060ff166105425760405162461bcd60e51b815260040161053990612187565b60405180910390fd5b600083815260076020908152604080832084845290915290205460011461057b5760405162461bcd60e51b81526004016105399061222b565b600083815260086020908152604080832085845290915290819020805460ff1916600117905551339084907f223f6fc55b68604ac0ddb43efe27ce0c5df3b46113bd2f3a13231eefa7cd7f70906105d39086906120db565b60405180910390a3505050565b600281565b600381565b60008060006105f985856118f5565b9050600061060687610bff565b9791965090945050505050565b600154606090831115610629576000915061063e565b600154838301111561063e5760015483900391505b60608267ffffffffffffffff8111801561065757600080fd5b5060405190808252806020026020018201604052801561069157816020015b61067e611b1c565b8152602001906001900390816106765790505b509050835b83858203101561079357600181815481106106ad57fe5b906000526020600020906002020160405180604001604052908160008201548152602001600182018054600181600116156101000203166002900480601f0160208091040260200160405190810160405280929190818152602001828054600181600116156101000203166002900480156107695780601f1061073e57610100808354040283529160200191610769565b820191906000526020600020905b81548152906001019060200180831161074c57829003601f168201915b505050505081525050828683038151811061078057fe5b6020908102919091010152600101610696565b505092915050565b6001600160a01b038116600090815260046020526040812054600354811080156107c6575060035415155b80156108035750826001600160a01b0316600382815481106107e457fe5b60009182526020909120600160059092020101546001600160a01b0316145b61081f5760405162461bcd60e51b8152600401610539906121be565b92915050565b60006108303361079b565b9050600061083f858585610ba5565b600086815260086020908152604080832084845290915290205490915060ff1661087b5760405162461bcd60e51b815260040161053990612203565b600085815260086020908152604080832084845290915290819020805460ff1916905551339086907f8afac2af312df535cf859c24a0060c2a254ca7ebf63ad1407b1c8b89e47ac276906108d09085906120db565b60405180910390a360008581526005602090815260408083208584528252808320805460ff19166001908117909155888452600683528184208054909101905560078252808320858452909152808220859055518491339188917faef8a7519876cbb59f0f542092231b3800ad9861480219077105a0be0b5d9c4191a45050505050565b600061095f3361079b565b600084815260056020908152604080832086845290915290205490915060ff1661099b5760405162461bcd60e51b815260040161053990612187565b6000838152600760209081526040808320848452909152902054600114806109c257508181145b6109de5760405162461bcd60e51b81526004016105399061222b565b60008381526005602090815260408083208584528252808320805460ff191690558583526006909152808220805460001901905551339185917fcdb8aee2f025866feed8775842d18b9233e143db65210f6c0b906f57503924129190a3505050565b600560209081526000928352604080842090915290825290205460ff1681565b6000815111610a815760405162461bcd60e51b815260040161053990612150565b6000610a8c3361079b565b90508160038281548110610a9c57fe5b90600052602060002090600502016003019080519060200190610ac0929190611b36565b50336001600160a01b03167fe75d32c5ff8d021157f19973ee1eec9aa009eb2c36bf353402ac4f070234387383604051610afa91906120e4565b60405180910390a25050565b600181565b6000815111610b2c5760405162461bcd60e51b815260040161053990612150565b6000610b373361079b565b90508160038281548110610b4757fe5b90600052602060002090600502016002019080519060200190610b6b929190611b36565b50336001600160a01b03167ffdc4a4c67c50a692b7ca2a03a1e257a7dfc4d735fd2ad82d6ba0348c670f4fbf83604051610afa91906120e4565b6000838383604051602001610bbc93929190611f89565b6040516020818303038152906040528051906020012090509392505050565b600080610be884846118f5565b9050610bf5878787610825565b9695505050505050565b600080825111610c215760405162461bcd60e51b815260040161053990612150565b610c29611b1c565b50604080518082019091526001805480835260208084018681528284018455600093909352835160029092027fb10e2d527612073b26eecdfd717e6a320cf44b4afac2b0732d9fcbe2b7fa0cf68101928355925180518594610cb1937fb10e2d527612073b26eecdfd717e6a320cf44b4afac2b0732d9fcbe2b7fa0cf7909101920190611b36565b5050508060000151600284604051610cc99190611f6d565b90815260405190819003602001812091909155815133917ff6412ea8a4b2dd1e6a68f504769fd3aac31bd2bbed490be3845ae09a93c6f67a90610d0d9087906120e4565b60405180910390a36000610d203361079b565b825160009081526005602090815260408083208484528252808320805460ff191660019081179091558651845260068352818420805482019055865184526007835281842085855290925280832082905585519051939450909233927faef8a7519876cbb59f0f542092231b3800ad9861480219077105a0be0b5d9c4191a4505192915050565b600860209081526000928352604080842090915290825290205460ff1681565b6000546001600160a01b031681565b600081565b60038181548110610de857fe5b6000918252602091829020600591909102018054600180830154600280850180546040805161010096831615969096026000190190911692909204601f81018890048802850188019092528184529396506001600160a01b0390911694919291830182828015610e995780601f10610e6e57610100808354040283529160200191610e99565b820191906000526020600020905b815481529060010190602001808311610e7c57829003601f168201915b5050505060038301805460408051602060026001851615610100026000190190941693909304601f8101849004840282018401909252818152949594935090830182828015610f295780601f10610efe57610100808354040283529160200191610f29565b820191906000526020600020905b815481529060010190602001808311610f0c57829003601f168201915b5050505050908060040154905085565b805160208183018101805160028252928201919093012091525481565b600760209081526000928352604080842090915290825290205481565b6001546060908410610f975760405162461bcd60e51b815260040161053990612125565b600080805b8582108015610fac575060035481105b15610fe857600087815260056020908152604080832084845290915290205460ff1615610fe0576001808201935091909101905b600101610f9c565b5060009050815b8482108015610fff575060035481105b1561103557600087815260056020908152604080832084845290915290205460ff161561102d576001909101905b600101610fef565b5060608167ffffffffffffffff8111801561104f57600080fd5b5060405190808252806020026020018201604052801561108957816020015b611076611bb4565b81526020019060019003908161106e5790505b5090506000835b83821080156110a0575060035481105b1561129a57600089815260056020908152604080832084845290915290205460ff161561129257600381815481106110d457fe5b60009182526020918290206040805160a081018252600593909302909101805483526001808201546001600160a01b0316848601526002808301805485516101009482161594909402600019011691909104601f81018790048702830187018552808352949592949386019391929091908301828280156111965780601f1061116b57610100808354040283529160200191611196565b820191906000526020600020905b81548152906001019060200180831161117957829003601f168201915b505050918352505060038201805460408051602060026001851615610100026000190190941693909304601f810184900484028201840190925281815293820193929183018282801561122a5780601f106111ff5761010080835404028352916020019161122a565b820191906000526020600020905b81548152906001019060200180831161120d57829003601f168201915b5050505050815260200160048201548152505083838151811061124957fe5b60209081029190910181019190915260008a81526007825260408082208483529092522054835184908490811061127c57fe5b6020908102919091010151608001526001909101905b600101611090565b5090979650505050505050565b60066020526000908152604090205481565b60008151116112da5760405162461bcd60e51b815260040161053990612150565b60006112e53361079b565b60008481526007602090815260408083208484529091529020549091506001146113215760405162461bcd60e51b81526004016105399061222b565b816001848154811061132f57fe5b90600052602060002090600202016001019080519060200190611353929190611b36565b50336001600160a01b03167f376b2d032e84a90743165f49e0fe9bc34b316699db5d4fbe3ae57627419f11e28360405161138d91906120e4565b60405180910390a2505050565b6003546060908311156113b057600091506113c5565b60035483830111156113c55760035483900391505b60608267ffffffffffffffff811180156113de57600080fd5b5060405190808252806020026020018201604052801561141857816020015b611405611bb4565b8152602001906001900390816113fd5790505b509050835b838582031015610793576003818154811061143457fe5b60009182526020918290206040805160a081018252600593909302909101805483526001808201546001600160a01b0316848601526002808301805485516101009482161594909402600019011691909104601f81018790048702830187018552808352949592949386019391929091908301828280156114f65780601f106114cb576101008083540402835291602001916114f6565b820191906000526020600020905b8154815290600101906020018083116114d957829003601f168201915b505050918352505060038201805460408051602060026001851615610100026000190190941693909304601f810184900484028201840190925281815293820193929183018282801561158a5780601f1061155f5761010080835404028352916020019161158a565b820191906000526020600020905b81548152906001019060200180831161156d57829003601f168201915b5050505050815260200160048201548152505082868303815181106115ab57fe5b602090810291909101015260010161141d565b60006115c93361079b565b600085815260056020908152604080832087845290915290205490915060ff166116055760405162461bcd60e51b815260040161053990612187565b600084815260076020908152604080832084845290915290205460011461163e5760405162461bcd60e51b81526004016105399061222b565b600084815260076020908152604080832086845290915290819020839055518390859033907f20fc9c93838b3905ef7f6343f1985e15abd42f7e1bebfe5e29babfe6d8972771906116909087906120db565b60405180910390a450505050565b60046020526000908152604090205481565b606060006116bd8561079b565b9050600080805b86821080156116d4575060015481105b1561171057600081815260056020908152604080832087845290915290205460ff1615611708576001808201935091909101905b6001016116c4565b5060009050815b8582108015611727575060015481105b1561175d57600081815260056020908152604080832087845290915290205460ff1615611755576001909101905b600101611717565b5060608167ffffffffffffffff8111801561177757600080fd5b506040519080825280602002602001820160405280156117b157816020015b61179e611b1c565b8152602001906001900390816117965790505b5090506000835b83821080156117c8575060015481105b156118e757600081815260056020908152604080832089845290915290205460ff16156118df57600181815481106117fc57fe5b906000526020600020906002020160405180604001604052908160008201548152602001600182018054600181600116156101000203166002900480601f0160208091040260200160405190810160405280929190818152602001828054600181600116156101000203166002900480156118b85780601f1061188d576101008083540402835291602001916118b8565b820191906000526020600020905b81548152906001019060200180831161189b57829003601f168201915b5050505050815250508383815181106118cd57fe5b60209081029190910101526001909101905b6001016117b8565b509098975050505050505050565b6000808351116119175760405162461bcd60e51b815260040161053990612150565b60008251116119385760405162461bcd60e51b8152600401610539906122ab565b600354158061198157503360008181526004602052604090205460038054909190811061196157fe5b60009182526020909120600160059092020101546001600160a01b031614155b61199d5760405162461bcd60e51b815260040161053990612262565b6119a5611bb4565b506040805160a08101825260038054808352336020808501918252948401888152606085018890526000608086018190526001840185559390935283517fc2575a0e9e593c00f959f8c92f12db2869c3395a3b0502d05e2516446f71f85b600590930292830190815590517fc2575a0e9e593c00f959f8c92f12db2869c3395a3b0502d05e2516446f71f85c830180546001600160a01b0319166001600160a01b039092169190911790559151805193948594611a88937fc2575a0e9e593c00f959f8c92f12db2869c3395a3b0502d05e2516446f71f85d019290910190611b36565b5060608201518051611aa4916003840191602090910190611b36565b5060809190910151600491820155815133600090815260209283526040908190209190915590820151825191516001600160a01b0390911691907ff34f506ea19328cfdfb06027b1f114e7304bb0b8ce3025906353144354d991cd90611b0d90889088906120f7565b60405180910390a35092915050565b604051806040016040528060008152602001606081525090565b828054600181600116156101000203166002900490600052602060002090601f016020900481019282601f10611b7757805160ff1916838001178555611ba4565b82800160010185558215611ba4579182015b82811115611ba4578251825591602001919060010190611b89565b50611bb0929150611bec565b5090565b6040518060a001604052806000815260200160006001600160a01b031681526020016060815260200160608152602001600081525090565b611c0691905b80821115611bb05760008155600101611bf2565b90565b80356001600160a01b038116811461081f57600080fd5b600082601f830112611c30578081fd5b813567ffffffffffffffff80821115611c47578283fd5b604051601f8301601f191681016020018281118282101715611c67578485fd5b604052828152925082848301602001861015611c8257600080fd5b8260208601602083013760006020848301015250505092915050565b600060208284031215611caf578081fd5b611cb98383611c09565b9392505050565b600080600060608486031215611cd4578182fd5b611cde8585611c09565b95602085013595506040909401359392505050565b600060208284031215611d04578081fd5b813567ffffffffffffffff811115611d1a578182fd5b611d2684828501611c20565b949350505050565b600080600060608486031215611d42578283fd5b833567ffffffffffffffff80821115611d59578485fd5b611d6587838801611c20565b94506020860135915080821115611d7a578384fd5b611d8687838801611c20565b93506040860135915080821115611d9b578283fd5b50611da886828701611c20565b9150509250925092565b600060208284031215611dc3578081fd5b5035919050565b60008060408385031215611ddc578182fd5b50508035926020909101359150565b60008060408385031215611dfd578182fd5b82359150602083013567ffffffffffffffff811115611e1a578182fd5b611e2685828601611c20565b9150509250929050565b600080600060608486031215611e44578283fd5b83359250602084013567ffffffffffffffff811115611e61578283fd5b611e6d86828701611c20565b925050604084013590509250925092565b600080600080600060a08688031215611e95578081fd5b85359450602086013567ffffffffffffffff80821115611eb3578283fd5b611ebf89838a01611c20565b9550604088013594506060880135915080821115611edb578283fd5b611ee789838a01611c20565b93506080880135915080821115611efc578283fd5b50611f0988828901611c20565b9150509295509295909350565b600080600060608486031215611f2a578283fd5b505081359360208301359350604090920135919050565b60008151808452611f59816020860160208601612362565b601f01601f19169290920160200192915050565b60008251611f7f818460208701612362565b9190910192915050565b60008482528351611fa1816020850160208801612362565b60209201918201929092526040019392505050565b6001600160a01b0391909116815260200190565b60208082528251828201819052600091906040908185019080840286018301878501865b838110156118e757603f1989840301855281518051845287810151878986015261201a88860182611f41565b968901969450505090860190600101611fee565b60208082528251828201819052600091906040908185019080840286018301878501865b838110156118e757888303603f19018552815180518452878101516001600160a01b0316888501528681015160a08886018190529061209382870182611f41565b60609250828401519150868103838801526120ae8183611f41565b6080948501519790940196909652505094870194925090860190600101612052565b901515815260200190565b90815260200190565b600060208252611cb96020830184611f41565b60006040825261210a6040830185611f41565b828103602084015261211c8185611f41565b95945050505050565b6020808252601190820152701a5b9d985b1a590819985b5a5b1e481251607a1b604082015260600190565b6020808252601f908201527f6e616d652063616e6e6f742062652074686520656d70747920737472696e6700604082015260600190565b6020808252601b908201527f6e6f742061206d656d626572206f6620746861742066616d696c790000000000604082015260600190565b60208082526025908201527f6163636f756e74206973206e6f74207265676973746572656420746f2061207060408201526432b939b7b760d91b606082015260800190565b6020808252600e908201526d696e76616c696420696e7669746560901b604082015260600190565b60208082526017908201527f6e6f74206120726573706f6e7369626c65206164756c74000000000000000000604082015260600190565b60208082526029908201527f6163636f756e7420697320616c7265616479207265676973746572656420746f6040820152681030903832b939b7b760b91b606082015260800190565b60208082526021908201527f6176617461722063616e6e6f742062652074686520656d70747920737472696e6040820152606760f81b606082015260800190565b8581526001600160a01b038516602082015260a06040820181905260009061231690830186611f41565b82810360608401526123288186611f41565b9150508260808301529695505050505050565b600083825260406020830152611d266040830184611f41565b918252602082015260400190565b60005b8381101561237d578181015183820152602001612365565b8381111561238c576000848401525b5050505056fea264697066735822122021bcfd6e763f9069f6f730affbd8ef455343ba64eaa86620c67c4ee2277eaf1464736f6c63430006080033",
  "immutableReferences": {},
  "source": "// SPDX-License-Identifier: MIT\n\npragma solidity ^0.6.0;\n\npragma experimental ABIEncoderV2;\n\ncontract Families {\n    address public owner;\n\n    struct Family {\n        uint256 id;\n        string name;\n    }\n\n    Family[] public families;\n    mapping(string => uint256) public nameToFamily; // familyName => familyID\n\n    struct Person {\n        uint256 id;\n        address account;\n        string name;\n        string avatar;\n        uint256 role; // only sometimes filled in\n    }\n\n    Person[] public people;\n    mapping(address => uint256) public accountToPerson; // account => personID\n\n    // note: this is not the way to do this for production, but we're taking a shortcut for a hackathon\n    mapping(uint256 => mapping(uint256 => bool)) public familyMembers; // familyID => personID => valid\n    mapping(uint256 => uint256) public familyMembersCount; // familyID => person count\n    mapping(uint256 => mapping(uint256 => uint256)) public familyRoles; // familyID => personID => role\n    mapping(uint256 => mapping(bytes32 => bool)) public familyInvites; // familyID => hashed invite => valid\n\n    constructor() public {\n        owner = msg.sender;\n    }\n\n    event FamilyAdded(\n        uint256 indexed id,\n        string name,\n        address indexed personAccount\n    );\n    event FamilyNameSet(address indexed account, string name);\n    event PersonAdded(\n        uint256 indexed id,\n        address indexed account,\n        string name,\n        string avatar\n    );\n    event PersonNameSet(address indexed account, string name);\n    event PersonAvatarSet(address indexed account, string avatar);\n    event JoinedFamily(\n        uint256 indexed familyID,\n        address indexed account,\n        uint256 indexed role\n    );\n    event LeftFamily(uint256 indexed familyID, address indexed account);\n    event InviteAdded(\n        uint256 indexed familyID,\n        address indexed account,\n        bytes32 invite\n    );\n    event InviteRedeemed(\n        uint256 indexed familyID,\n        address indexed account,\n        bytes32 invite\n    );\n    event RoleSet(\n        address indexed account,\n        uint256 indexed familyID,\n        uint256 indexed personID,\n        uint256 role\n    );\n\n    uint256 public constant RoleNone = 0;\n    uint256 public constant RoleResponsibleAdult = 1;\n    uint256 public constant RoleAdult = 2;\n    uint256 public constant RoleChild = 3;\n\n    /// @dev Start a new family. The msg.sender must already be registered as a person.\n    /// @param familyName name of the family\n    /// @return ID of the newly created family\n    function startFamily(string memory familyName) public returns (uint256) {\n        require(\n            bytes(familyName).length > 0,\n            \"name cannot be the empty string\"\n        );\n\n        Family memory family = Family({id: families.length, name: familyName});\n\n        families.push(family);\n        nameToFamily[familyName] = family.id;\n\n        emit FamilyAdded(family.id, familyName, msg.sender);\n\n        // add this person to the family\n        uint256 personID = getPersonIDByAccount(msg.sender);\n\n        familyMembers[family.id][personID] = true;\n        familyMembersCount[family.id]++;\n        familyRoles[family.id][personID] = RoleResponsibleAdult;\n\n        emit JoinedFamily(family.id, msg.sender, RoleResponsibleAdult);\n\n        return family.id;\n    }\n\n    /// @dev Update a family's name\n    /// @param familyID family ID\n    /// @param familyName new family name\n    function setFamilyName(uint256 familyID, string memory familyName) public {\n        require(\n            bytes(familyName).length > 0,\n            \"name cannot be the empty string\"\n        );\n        uint256 personID = getPersonIDByAccount(msg.sender);\n\n        require(\n            familyRoles[familyID][personID] == RoleResponsibleAdult,\n            \"not a responsible adult\"\n        );\n\n        families[familyID].name = familyName;\n\n        emit FamilyNameSet(msg.sender, familyName);\n    }\n\n    /// @dev Retrieve a person ID by their account\n    /// @param account account address of the person\n    /// @return person ID\n    function getPersonIDByAccount(address account)\n        public\n        view\n        returns (uint256)\n    {\n        uint256 id = accountToPerson[account];\n        require(\n            id < people.length &&\n                people.length > 0 &&\n                people[id].account == account,\n            \"account is not registered to a person\"\n        );\n        return id;\n    }\n\n    /// @dev Add a person\n    /// @param personName the person's name\n    /// @param avatar the person's avatar\n    /// @return person ID\n    function addPerson(string memory personName, string memory avatar)\n        internal\n        returns (uint256)\n    {\n        require(\n            bytes(personName).length > 0,\n            \"name cannot be the empty string\"\n        );\n        require(bytes(avatar).length > 0, \"avatar cannot be the empty string\");\n        require(\n            people.length == 0 ||\n                people[accountToPerson[msg.sender]].account != msg.sender,\n            \"account is already registered to a person\"\n        );\n\n        Person memory person =\n            Person({\n                id: people.length,\n                account: msg.sender,\n                name: personName,\n                avatar: avatar,\n                role: RoleNone\n            });\n\n        people.push(person);\n        accountToPerson[msg.sender] = person.id;\n\n        emit PersonAdded(person.id, person.account, personName, avatar);\n    }\n\n    /// @dev Update a person's name\n    /// @param personName the person's new name\n    function setPersonName(string memory personName) public {\n        require(\n            bytes(personName).length > 0,\n            \"name cannot be the empty string\"\n        );\n        uint256 personID = getPersonIDByAccount(msg.sender);\n\n        people[personID].name = personName;\n\n        emit PersonNameSet(msg.sender, personName);\n    }\n\n    /// @dev Update a person's avatar\n    /// @param avatar the person's avatar\n    function setPersonAvatar(string memory avatar) public {\n        require(bytes(avatar).length > 0, \"name cannot be the empty string\");\n        uint256 personID = getPersonIDByAccount(msg.sender);\n\n        people[personID].avatar = avatar;\n\n        emit PersonAvatarSet(msg.sender, avatar);\n    }\n\n    /// @dev Update a person's role in a family\n    /// @param familyID family ID\n    /// @param personID person ID to update\n    /// @param role new role\n    function setPersonRoleInFamily(\n        uint256 familyID,\n        uint256 personID,\n        uint256 role\n    ) public {\n        uint256 senderPersonID = getPersonIDByAccount(msg.sender);\n\n        require(\n            familyMembers[familyID][personID],\n            \"not a member of that family\"\n        );\n        require(\n            familyRoles[familyID][senderPersonID] == RoleResponsibleAdult,\n            \"not a responsible adult\"\n        );\n\n        familyRoles[familyID][personID] = role;\n\n        emit RoleSet(msg.sender, familyID, personID, role);\n    }\n\n    /// @dev Start a new family. The msg.sender will also be registered as a person.\n    /// @param familyName name of the family\n    /// @param personName the person's name\n    /// @param avatar the person's avatar\n    /// @return IDs of the newly created family and person\n    function startFirstFamily(\n        string memory familyName,\n        string memory personName,\n        string memory avatar\n    ) public returns (uint256, uint256) {\n        uint256 personID = addPerson(personName, avatar);\n        uint256 familyID = startFamily(familyName);\n\n        return (familyID, personID);\n    }\n\n    /// @dev Retrieve families\n    /// @param offset offset to return from\n    /// @param limit maximum number to return\n    /// @return families\n    function getFamilies(uint256 offset, uint256 limit)\n        public\n        view\n        returns (Family[] memory)\n    {\n        // note: this will not scale to production, but we're taking a shortcut for a hackathon\n        if (offset > families.length) {\n            limit = 0;\n        } else if (offset + limit > families.length) {\n            limit = families.length - offset;\n        }\n\n        Family[] memory selectFamilies = new Family[](limit);\n\n        for (uint256 i = offset; i - offset < limit; i++) {\n            selectFamilies[i - offset] = families[i];\n        }\n    }\n\n    /// @dev Retrieve people\n    /// @param offset offset to return from\n    /// @param limit maximum number to return\n    /// @return people\n    function getPeople(uint256 offset, uint256 limit)\n        public\n        view\n        returns (Person[] memory)\n    {\n        // note: this will not scale to production, but we're taking a shortcut for a hackathon\n        if (offset > people.length) {\n            limit = 0;\n        } else if (offset + limit > people.length) {\n            limit = people.length - offset;\n        }\n\n        Person[] memory selectPeople = new Person[](limit);\n\n        for (uint256 i = offset; i - offset < limit; i++) {\n            selectPeople[i - offset] = people[i];\n        }\n    }\n\n    /// @dev Retrieve family members\n    /// @param offset offset to return from\n    /// @param limit maximum number to return\n    /// @return people\n    function getFamilyMembers(\n        uint256 familyID,\n        uint256 offset,\n        uint256 limit\n    ) public view returns (Person[] memory) {\n        // note: this will not scale to production, but we're taking a shortcut for a hackathon\n        require(familyID < families.length, \"invalid family ID\");\n\n        // count forward by 'offset' matching people\n        uint256 start = 0;\n        uint256 count = 0;\n        for (uint256 i = 0; count < offset && i < people.length; i++) {\n            if (familyMembers[familyID][i]) {\n                start = i + 1;\n                count++;\n            }\n        }\n\n        // count the number of matching people\n        count = 0;\n        for (uint256 i = start; count < limit && i < people.length; i++) {\n            if (familyMembers[familyID][i]) {\n                count++;\n            }\n        }\n\n        Person[] memory selectPeople = new Person[](count);\n\n        uint256 j = 0;\n        for (uint256 i = start; j < count && i < people.length; i++) {\n            if (familyMembers[familyID][i]) {\n                selectPeople[j] = people[i];\n                selectPeople[j].role = familyRoles[familyID][i];\n                j++;\n            }\n        }\n\n        return selectPeople;\n    }\n\n    /// @dev Retrieve the families a person is a part of\n    /// @param offset offset to return from\n    /// @param limit maximum number to return\n    /// @return families\n    function getFamilyMemberships(\n        address personAccount,\n        uint256 offset,\n        uint256 limit\n    ) public view returns (Family[] memory) {\n        // note: this will not scale to production, but we're taking a shortcut for a hackathon\n        uint256 personID = getPersonIDByAccount(personAccount);\n\n        // count forward by 'offset' matching families\n        uint256 start = 0;\n        uint256 count = 0;\n        for (uint256 i = 0; count < offset && i < families.length; i++) {\n            if (familyMembers[i][personID]) {\n                start = i + 1;\n                count++;\n            }\n        }\n\n        // count the number of matching families\n        count = 0;\n        for (uint256 i = start; count < limit && i < families.length; i++) {\n            if (familyMembers[i][personID]) {\n                count++;\n            }\n        }\n\n        Family[] memory selectFamilies = new Family[](count);\n\n        uint256 j = 0;\n        for (uint256 i = start; j < count && i < families.length; i++) {\n            if (familyMembers[i][personID]) {\n                selectFamilies[j] = families[i];\n                j++;\n            }\n        }\n\n        return selectFamilies;\n    }\n\n    /// @dev Generates an invite\n    /// @param familyID family ID\n    /// @param nonce random nonce generated off-chain\n    /// @param role the role of the person\n    /// @return hashed invite\n    function generateInvite(\n        uint256 familyID,\n        string memory nonce,\n        uint256 role\n    ) public pure returns (bytes32) {\n        return (keccak256(abi.encodePacked(familyID, nonce, role)));\n    }\n\n    /// @dev Adds an invite\n    /// @param familyID family ID\n    /// @param invite the hashed invite\n    function addInvite(uint256 familyID, bytes32 invite) public {\n        uint256 personID = getPersonIDByAccount(msg.sender);\n\n        require(\n            familyMembers[familyID][personID],\n            \"not a member of that family\"\n        );\n        require(\n            familyRoles[familyID][personID] == RoleResponsibleAdult,\n            \"not a responsible adult\"\n        );\n\n        familyInvites[familyID][invite] = true;\n\n        emit InviteAdded(familyID, msg.sender, invite);\n    }\n\n    /// @dev Join a family by invitation\n    /// @param familyID family ID\n    /// @param nonce random nonce generated off-chain\n    /// @param role the role of the person\n    function joinFamily(\n        uint256 familyID,\n        string memory nonce,\n        uint256 role\n    ) public {\n        // note: this can be front-run in production, but we're taking a shortcut for a hackathon\n        uint256 personID = getPersonIDByAccount(msg.sender);\n\n        // validate invite\n        bytes32 invite = generateInvite(familyID, nonce, role);\n        require(familyInvites[familyID][invite], \"invalid invite\");\n\n        // mark invite as used\n        familyInvites[familyID][invite] = false;\n        emit InviteRedeemed(familyID, msg.sender, invite);\n\n        // add them to the family\n        familyMembers[familyID][personID] = true;\n        familyMembersCount[familyID]++;\n        familyRoles[familyID][personID] = role;\n\n        emit JoinedFamily(familyID, msg.sender, role);\n    }\n\n    /// @dev Join a family by invitation, and add the person\n    /// @param familyID family ID\n    /// @param nonce random nonce generated off-chain\n    /// @param role the role of the person\n    /// @param personName the person's name\n    /// @param avatar the person's avatar\n    /// @return ID of the newly created person\n    function joinFirstFamily(\n        uint256 familyID,\n        string memory nonce,\n        uint256 role,\n        string memory personName,\n        string memory avatar\n    ) public returns (uint256) {\n        // note: this can be front-run in production, but we're taking a shortcut for a hackathon\n        uint256 personID = addPerson(personName, avatar);\n        joinFamily(familyID, nonce, role);\n\n        return personID;\n    }\n\n    /// @dev Remove a family member\n    /// @param familyID family ID\n    /// @param personID person ID to remove\n    function removeFamilyMember(uint256 familyID, uint256 personID) public {\n        uint256 senderPersonID = getPersonIDByAccount(msg.sender);\n\n        require(\n            familyMembers[familyID][personID],\n            \"not a member of that family\"\n        );\n        require(\n            familyRoles[familyID][senderPersonID] == RoleResponsibleAdult ||\n                senderPersonID == personID,\n            \"not a responsible adult\"\n        );\n\n        familyMembers[familyID][personID] = false;\n        familyMembersCount[familyID]--;\n\n        emit LeftFamily(familyID, msg.sender);\n    }\n}\n",
  "sourcePath": "/Users/jeff/projects/curvegrid/nftjr/contracts/contracts/Families.sol",
  "compiler": {
    "name": "solc",
    "version": "0.6.8+commit.0bbfe453.Emscripten.clang"
  },
  "schemaVersion": "3.3.4",
  "updatedAt": "2021-03-21T07:40:28.088Z",
  "devdoc": {
    "methods": {
      "addInvite(uint256,bytes32)": {
        "details": "Adds an invite",
        "params": {
          "familyID": "family ID",
          "invite": "the hashed invite"
        }
      },
      "generateInvite(uint256,string,uint256)": {
        "details": "Generates an invite",
        "params": {
          "familyID": "family ID",
          "nonce": "random nonce generated off-chain",
          "role": "the role of the person"
        },
        "returns": {
          "_0": "hashed invite"
        }
      },
      "getFamilies(uint256,uint256)": {
        "details": "Retrieve families",
        "params": {
          "limit": "maximum number to return",
          "offset": "offset to return from"
        },
        "returns": {
          "_0": "families"
        }
      },
      "getFamilyMembers(uint256,uint256,uint256)": {
        "details": "Retrieve family members",
        "params": {
          "limit": "maximum number to return",
          "offset": "offset to return from"
        },
        "returns": {
          "_0": "people"
        }
      },
      "getFamilyMemberships(address,uint256,uint256)": {
        "details": "Retrieve the families a person is a part of",
        "params": {
          "limit": "maximum number to return",
          "offset": "offset to return from"
        },
        "returns": {
          "_0": "families"
        }
      },
      "getPeople(uint256,uint256)": {
        "details": "Retrieve people",
        "params": {
          "limit": "maximum number to return",
          "offset": "offset to return from"
        },
        "returns": {
          "_0": "people"
        }
      },
      "getPersonIDByAccount(address)": {
        "details": "Retrieve a person ID by their account",
        "params": {
          "account": "account address of the person"
        },
        "returns": {
          "_0": "person ID"
        }
      },
      "joinFamily(uint256,string,uint256)": {
        "details": "Join a family by invitation",
        "params": {
          "familyID": "family ID",
          "nonce": "random nonce generated off-chain",
          "role": "the role of the person"
        }
      },
      "joinFirstFamily(uint256,string,uint256,string,string)": {
        "details": "Join a family by invitation, and add the person",
        "params": {
          "avatar": "the person's avatar",
          "familyID": "family ID",
          "nonce": "random nonce generated off-chain",
          "personName": "the person's name",
          "role": "the role of the person"
        },
        "returns": {
          "_0": "ID of the newly created person"
        }
      },
      "removeFamilyMember(uint256,uint256)": {
        "details": "Remove a family member",
        "params": {
          "familyID": "family ID",
          "personID": "person ID to remove"
        }
      },
      "setFamilyName(uint256,string)": {
        "details": "Update a family's name",
        "params": {
          "familyID": "family ID",
          "familyName": "new family name"
        }
      },
      "setPersonAvatar(string)": {
        "details": "Update a person's avatar",
        "params": {
          "avatar": "the person's avatar"
        }
      },
      "setPersonName(string)": {
        "details": "Update a person's name",
        "params": {
          "personName": "the person's new name"
        }
      },
      "setPersonRoleInFamily(uint256,uint256,uint256)": {
        "details": "Update a person's role in a family",
        "params": {
          "familyID": "family ID",
          "personID": "person ID to update",
          "role": "new role"
        }
      },
      "startFamily(string)": {
        "details": "Start a new family. The msg.sender must already be registered as a person.",
        "params": {
          "familyName": "name of the family"
        },
        "returns": {
          "_0": "ID of the newly created family"
        }
      },
      "startFirstFamily(string,string,string)": {
        "details": "Start a new family. The msg.sender will also be registered as a person.",
        "params": {
          "avatar": "the person's avatar",
          "familyName": "name of the family",
          "personName": "the person's name"
        },
        "returns": {
          "_0": "IDs of the newly created family and person"
        }
      }
    }
  },
  "userdoc": {
    "methods": {}
  }
}