{
  "contractName": "Families",
  "abi": [
    {
      "inputs": [],
      "stateMutability": "nonpayable",
      "type": "constructor"
    },
    {
      "anonymous": false,
      "inputs": [
        {
          "indexed": true,
          "internalType": "uint256",
          "name": "id",
          "type": "uint256"
        },
        {
          "indexed": false,
          "internalType": "string",
          "name": "name",
          "type": "string"
        },
        {
          "indexed": true,
          "internalType": "address",
          "name": "personAccount",
          "type": "address"
        }
      ],
      "name": "FamilyAdded",
      "type": "event"
    },
    {
      "anonymous": false,
      "inputs": [
        {
          "indexed": true,
          "internalType": "uint256",
          "name": "familyID",
          "type": "uint256"
        },
        {
          "indexed": true,
          "internalType": "address",
          "name": "account",
          "type": "address"
        },
        {
          "indexed": false,
          "internalType": "bytes32",
          "name": "invite",
          "type": "bytes32"
        }
      ],
      "name": "InviteAdded",
      "type": "event"
    },
    {
      "anonymous": false,
      "inputs": [
        {
          "indexed": true,
          "internalType": "uint256",
          "name": "familyID",
          "type": "uint256"
        },
        {
          "indexed": true,
          "internalType": "address",
          "name": "account",
          "type": "address"
        },
        {
          "indexed": false,
          "internalType": "bytes32",
          "name": "invite",
          "type": "bytes32"
        }
      ],
      "name": "InviteRedeemed",
      "type": "event"
    },
    {
      "anonymous": false,
      "inputs": [
        {
          "indexed": true,
          "internalType": "uint256",
          "name": "familyID",
          "type": "uint256"
        },
        {
          "indexed": true,
          "internalType": "address",
          "name": "account",
          "type": "address"
        }
      ],
      "name": "JoinedFamily",
      "type": "event"
    },
    {
      "anonymous": false,
      "inputs": [
        {
          "indexed": true,
          "internalType": "uint256",
          "name": "familyID",
          "type": "uint256"
        },
        {
          "indexed": true,
          "internalType": "address",
          "name": "account",
          "type": "address"
        }
      ],
      "name": "LeftFamily",
      "type": "event"
    },
    {
      "anonymous": false,
      "inputs": [
        {
          "indexed": true,
          "internalType": "uint256",
          "name": "id",
          "type": "uint256"
        },
        {
          "indexed": true,
          "internalType": "address",
          "name": "account",
          "type": "address"
        },
        {
          "indexed": false,
          "internalType": "string",
          "name": "name",
          "type": "string"
        },
        {
          "indexed": false,
          "internalType": "string",
          "name": "avatar",
          "type": "string"
        }
      ],
      "name": "PersonAdded",
      "type": "event"
    },
    {
      "inputs": [],
      "name": "RoleAdult",
      "outputs": [
        {
          "internalType": "uint256",
          "name": "",
          "type": "uint256"
        }
      ],
      "stateMutability": "view",
      "type": "function"
    },
    {
      "inputs": [],
      "name": "RoleChild",
      "outputs": [
        {
          "internalType": "uint256",
          "name": "",
          "type": "uint256"
        }
      ],
      "stateMutability": "view",
      "type": "function"
    },
    {
      "inputs": [],
      "name": "RoleNone",
      "outputs": [
        {
          "internalType": "uint256",
          "name": "",
          "type": "uint256"
        }
      ],
      "stateMutability": "view",
      "type": "function"
    },
    {
      "inputs": [],
      "name": "RoleResponsibleAdult",
      "outputs": [
        {
          "internalType": "uint256",
          "name": "",
          "type": "uint256"
        }
      ],
      "stateMutability": "view",
      "type": "function"
    },
    {
      "inputs": [
        {
          "internalType": "address",
          "name": "",
          "type": "address"
        }
      ],
      "name": "accountToPerson",
      "outputs": [
        {
          "internalType": "uint256",
          "name": "",
          "type": "uint256"
        }
      ],
      "stateMutability": "view",
      "type": "function"
    },
    {
      "inputs": [
        {
          "internalType": "uint256",
          "name": "",
          "type": "uint256"
        }
      ],
      "name": "families",
      "outputs": [
        {
          "internalType": "uint256",
          "name": "id",
          "type": "uint256"
        },
        {
          "internalType": "string",
          "name": "name",
          "type": "string"
        }
      ],
      "stateMutability": "view",
      "type": "function"
    },
    {
      "inputs": [
        {
          "internalType": "uint256",
          "name": "",
          "type": "uint256"
        },
        {
          "internalType": "bytes32",
          "name": "",
          "type": "bytes32"
        }
      ],
      "name": "familyInvites",
      "outputs": [
        {
          "internalType": "bool",
          "name": "",
          "type": "bool"
        }
      ],
      "stateMutability": "view",
      "type": "function"
    },
    {
      "inputs": [
        {
          "internalType": "uint256",
          "name": "",
          "type": "uint256"
        },
        {
          "internalType": "uint256",
          "name": "",
          "type": "uint256"
        }
      ],
      "name": "familyMembers",
      "outputs": [
        {
          "internalType": "bool",
          "name": "",
          "type": "bool"
        }
      ],
      "stateMutability": "view",
      "type": "function"
    },
    {
      "inputs": [
        {
          "internalType": "uint256",
          "name": "",
          "type": "uint256"
        }
      ],
      "name": "familyMembersCount",
      "outputs": [
        {
          "internalType": "uint256",
          "name": "",
          "type": "uint256"
        }
      ],
      "stateMutability": "view",
      "type": "function"
    },
    {
      "inputs": [
        {
          "internalType": "uint256",
          "name": "",
          "type": "uint256"
        },
        {
          "internalType": "uint256",
          "name": "",
          "type": "uint256"
        }
      ],
      "name": "familyRoles",
      "outputs": [
        {
          "internalType": "uint256",
          "name": "",
          "type": "uint256"
        }
      ],
      "stateMutability": "view",
      "type": "function"
    },
    {
      "inputs": [
        {
          "internalType": "string",
          "name": "",
          "type": "string"
        }
      ],
      "name": "nameToFamily",
      "outputs": [
        {
          "internalType": "uint256",
          "name": "",
          "type": "uint256"
        }
      ],
      "stateMutability": "view",
      "type": "function"
    },
    {
      "inputs": [],
      "name": "owner",
      "outputs": [
        {
          "internalType": "address",
          "name": "",
          "type": "address"
        }
      ],
      "stateMutability": "view",
      "type": "function"
    },
    {
      "inputs": [
        {
          "internalType": "uint256",
          "name": "",
          "type": "uint256"
        }
      ],
      "name": "people",
      "outputs": [
        {
          "internalType": "uint256",
          "name": "id",
          "type": "uint256"
        },
        {
          "internalType": "address",
          "name": "account",
          "type": "address"
        },
        {
          "internalType": "string",
          "name": "name",
          "type": "string"
        },
        {
          "internalType": "string",
          "name": "avatar",
          "type": "string"
        },
        {
          "internalType": "uint256",
          "name": "role",
          "type": "uint256"
        }
      ],
      "stateMutability": "view",
      "type": "function"
    },
    {
      "inputs": [
        {
          "internalType": "string",
          "name": "familyName",
          "type": "string"
        }
      ],
      "name": "startFamily",
      "outputs": [
        {
          "internalType": "uint256",
          "name": "",
          "type": "uint256"
        }
      ],
      "stateMutability": "nonpayable",
      "type": "function"
    },
    {
      "inputs": [
        {
          "internalType": "address",
          "name": "account",
          "type": "address"
        }
      ],
      "name": "getPersonIDByAccount",
      "outputs": [
        {
          "internalType": "uint256",
          "name": "",
          "type": "uint256"
        }
      ],
      "stateMutability": "view",
      "type": "function"
    },
    {
      "inputs": [
        {
          "internalType": "string",
          "name": "familyName",
          "type": "string"
        },
        {
          "internalType": "string",
          "name": "personName",
          "type": "string"
        },
        {
          "internalType": "string",
          "name": "avatar",
          "type": "string"
        }
      ],
      "name": "startFirstFamily",
      "outputs": [
        {
          "internalType": "uint256",
          "name": "",
          "type": "uint256"
        },
        {
          "internalType": "uint256",
          "name": "",
          "type": "uint256"
        }
      ],
      "stateMutability": "nonpayable",
      "type": "function"
    },
    {
      "inputs": [
        {
          "internalType": "uint256",
          "name": "offset",
          "type": "uint256"
        },
        {
          "internalType": "uint256",
          "name": "limit",
          "type": "uint256"
        }
      ],
      "name": "getFamilies",
      "outputs": [
        {
          "components": [
            {
              "internalType": "uint256",
              "name": "id",
              "type": "uint256"
            },
            {
              "internalType": "string",
              "name": "name",
              "type": "string"
            }
          ],
          "internalType": "struct Families.Family[]",
          "name": "",
          "type": "tuple[]"
        }
      ],
      "stateMutability": "view",
      "type": "function"
    },
    {
      "inputs": [
        {
          "internalType": "uint256",
          "name": "offset",
          "type": "uint256"
        },
        {
          "internalType": "uint256",
          "name": "limit",
          "type": "uint256"
        }
      ],
      "name": "getPeople",
      "outputs": [
        {
          "components": [
            {
              "internalType": "uint256",
              "name": "id",
              "type": "uint256"
            },
            {
              "internalType": "address",
              "name": "account",
              "type": "address"
            },
            {
              "internalType": "string",
              "name": "name",
              "type": "string"
            },
            {
              "internalType": "string",
              "name": "avatar",
              "type": "string"
            },
            {
              "internalType": "uint256",
              "name": "role",
              "type": "uint256"
            }
          ],
          "internalType": "struct Families.Person[]",
          "name": "",
          "type": "tuple[]"
        }
      ],
      "stateMutability": "view",
      "type": "function"
    },
    {
      "inputs": [
        {
          "internalType": "uint256",
          "name": "familyID",
          "type": "uint256"
        },
        {
          "internalType": "uint256",
          "name": "offset",
          "type": "uint256"
        },
        {
          "internalType": "uint256",
          "name": "limit",
          "type": "uint256"
        }
      ],
      "name": "getFamilyMembers",
      "outputs": [
        {
          "components": [
            {
              "internalType": "uint256",
              "name": "id",
              "type": "uint256"
            },
            {
              "internalType": "address",
              "name": "account",
              "type": "address"
            },
            {
              "internalType": "string",
              "name": "name",
              "type": "string"
            },
            {
              "internalType": "string",
              "name": "avatar",
              "type": "string"
            },
            {
              "internalType": "uint256",
              "name": "role",
              "type": "uint256"
            }
          ],
          "internalType": "struct Families.Person[]",
          "name": "",
          "type": "tuple[]"
        }
      ],
      "stateMutability": "view",
      "type": "function"
    },
    {
      "inputs": [
        {
          "internalType": "uint256",
          "name": "personID",
          "type": "uint256"
        },
        {
          "internalType": "uint256",
          "name": "offset",
          "type": "uint256"
        },
        {
          "internalType": "uint256",
          "name": "limit",
          "type": "uint256"
        }
      ],
      "name": "getFamilyMemberships",
      "outputs": [
        {
          "components": [
            {
              "internalType": "uint256",
              "name": "id",
              "type": "uint256"
            },
            {
              "internalType": "string",
              "name": "name",
              "type": "string"
            }
          ],
          "internalType": "struct Families.Family[]",
          "name": "",
          "type": "tuple[]"
        }
      ],
      "stateMutability": "view",
      "type": "function"
    },
    {
      "inputs": [
        {
          "internalType": "uint256",
          "name": "familyID",
          "type": "uint256"
        },
        {
          "internalType": "string",
          "name": "nonce",
          "type": "string"
        },
        {
          "internalType": "uint256",
          "name": "role",
          "type": "uint256"
        }
      ],
      "name": "generateInvite",
      "outputs": [
        {
          "internalType": "bytes32",
          "name": "",
          "type": "bytes32"
        }
      ],
      "stateMutability": "pure",
      "type": "function"
    },
    {
      "inputs": [
        {
          "internalType": "uint256",
          "name": "familyID",
          "type": "uint256"
        },
        {
          "internalType": "bytes32",
          "name": "invite",
          "type": "bytes32"
        }
      ],
      "name": "addInvite",
      "outputs": [],
      "stateMutability": "nonpayable",
      "type": "function"
    },
    {
      "inputs": [
        {
          "internalType": "uint256",
          "name": "familyID",
          "type": "uint256"
        },
        {
          "internalType": "string",
          "name": "nonce",
          "type": "string"
        },
        {
          "internalType": "uint256",
          "name": "role",
          "type": "uint256"
        }
      ],
      "name": "joinFamily",
      "outputs": [],
      "stateMutability": "nonpayable",
      "type": "function"
    },
    {
      "inputs": [
        {
          "internalType": "uint256",
          "name": "familyID",
          "type": "uint256"
        },
        {
          "internalType": "string",
          "name": "nonce",
          "type": "string"
        },
        {
          "internalType": "uint256",
          "name": "role",
          "type": "uint256"
        },
        {
          "internalType": "string",
          "name": "personName",
          "type": "string"
        },
        {
          "internalType": "string",
          "name": "avatar",
          "type": "string"
        }
      ],
      "name": "joinFirstFamily",
      "outputs": [
        {
          "internalType": "uint256",
          "name": "",
          "type": "uint256"
        }
      ],
      "stateMutability": "nonpayable",
      "type": "function"
    },
    {
      "inputs": [
        {
          "internalType": "uint256",
          "name": "familyID",
          "type": "uint256"
        },
        {
          "internalType": "uint256",
          "name": "personID",
          "type": "uint256"
        }
      ],
      "name": "removeFamilyMember",
      "outputs": [],
      "stateMutability": "nonpayable",
      "type": "function"
    },
    {
      "inputs": [
        {
          "internalType": "string",
          "name": "a",
          "type": "string"
        },
        {
          "internalType": "string",
          "name": "b",
          "type": "string"
        }
      ],
      "name": "stringsEqual",
      "outputs": [
        {
          "internalType": "bool",
          "name": "",
          "type": "bool"
        }
      ],
      "stateMutability": "pure",
      "type": "function"
    }
  ],
  "bytecode": "0x608060405234801561001057600080fd5b50600080546001600160a01b0319163317905561208e806100326000396000f3fe608060405234801561001057600080fd5b506004361061018e5760003560e01c80636e960021116100de5780639e7a13ad11610097578063bc77794011610071578063bc7779401461036a578063bc8ce6bc1461038a578063dd4bc9d81461039d578063e72b6168146103b05761018e565b80639e7a13ad14610320578063a8b2c35814610344578063bb30a169146103575761018e565b80636e960021146102b757806377835991146102ca5780637e631e0f146102dd5780638514ea33146102f05780638da5cb5b146103035780638e5d6b76146103185761018e565b806313d199501161014b578063272302f211610125578063272302f214610276578063289dd05814610289578063352b07de1461029c57806350793234146102a45761018e565b806313d19950146102305780631f446a6d146102505780632274334c146102635761018e565b8063078beae51461019357806308ab3ac4146101bd5780630c61f769146101d25780630ce10677146101e75780630d52bf35146101ef57806311ca9eb514610210575b600080fd5b6101a66101a1366004611ac5565b6103c3565b6040516101b4929190612001565b60405180910390f35b6101d06101cb366004611add565b610478565b005b6101da610566565b6040516101b49190611db7565b6101da61056b565b6102026101fd366004611a41565b610570565b6040516101b492919061201a565b61022361021e366004611add565b610599565b6040516101b49190611c98565b61024361023e3660046119e0565b610721565b6040516101b49190611dac565b6101da61025e366004611977565b61077a565b6101d0610271366004611afe565b610804565b6101d0610284366004611add565b610932565b610243610297366004611add565b610a1e565b6101da610a3e565b6101da6102b2366004611afe565b610a43565b6101da6102c5366004611b4c565b610a79565b6101da6102d83660046119a5565b610a9d565b6102436102eb366004611add565b610c5c565b6102236102fe366004611be4565b610c7c565b61030b610ed5565b6040516101b49190611c84565b6101da610ee4565b61033361032e366004611ac5565b610ee9565b6040516101b4959493929190611fb2565b6101da6103523660046119a5565b611047565b6101da610365366004611add565b611064565b61037d610378366004611be4565b611081565b6040516101b49190611d0a565b6101da610398366004611ac5565b6113a8565b61037d6103ab366004611add565b6113ba565b6101da6103be366004611977565b6115de565b600181815481106103d057fe5b60009182526020918290206002918202018054600180830180546040805193821615610100026000190190911695909504601f810187900487028301870190955284825291955091939192909183018282801561046e5780601f106104435761010080835404028352916020019161046e565b820191906000526020600020905b81548152906001019060200180831161045157829003601f168201915b5050505050905082565b60006104833361077a565b600084815260056020908152604080832084845290915290205490915060ff166104c85760405162461bcd60e51b81526004016104bf90611e63565b60405180910390fd5b60008381526007602090815260408083208484529091529020546001146105015760405162461bcd60e51b81526004016104bf90611f32565b600083815260086020908152604080832085845290915290819020805460ff1916600117905551339084907f223f6fc55b68604ac0ddb43efe27ce0c5df3b46113bd2f3a13231eefa7cd7f7090610559908690611db7565b60405180910390a3505050565b600281565b600381565b600080600061057f85856115f0565b9050600061058c87610a9d565b9791965090945050505050565b6001546060908311156105af57600091506105c4565b60015483830111156105c45760015483900391505b60608267ffffffffffffffff811180156105dd57600080fd5b5060405190808252806020026020018201604052801561061757816020015b61060461180c565b8152602001906001900390816105fc5790505b509050835b838582031015610719576001818154811061063357fe5b906000526020600020906002020160405180604001604052908160008201548152602001600182018054600181600116156101000203166002900480601f0160208091040260200160405190810160405280929190818152602001828054600181600116156101000203166002900480156106ef5780601f106106c4576101008083540402835291602001916106ef565b820191906000526020600020905b8154815290600101906020018083116106d257829003601f168201915b505050505081525050828683038151811061070657fe5b602090810291909101015260010161061c565b505092915050565b6000816040516020016107349190611c3b565b604051602081830303815290604052805190602001208360405160200161075b9190611c3b565b6040516020818303038152906040528051906020012014905092915050565b6001600160a01b038116600090815260046020526040812054600354811080156107a5575060035415155b80156107e25750826001600160a01b0316600382815481106107c357fe5b60009182526020909120600160059092020101546001600160a01b0316145b6107fe5760405162461bcd60e51b81526004016104bf90611ec5565b92915050565b600061080f3361077a565b9050600061081e858585610a43565b600086815260086020908152604080832084845290915290205490915060ff1661085a5760405162461bcd60e51b81526004016104bf90611f0a565b600085815260086020908152604080832084845290915290819020805460ff1916905551339086907f8afac2af312df535cf859c24a0060c2a254ca7ebf63ad1407b1c8b89e47ac276906108af908590611db7565b60405180910390a360008581526005602090815260408083208584528252808320805460ff1916600190811790915588845260068352818420805482019055600783528184208685529092528083209190915551339187917f36410204fd5765251999988cfd44a02097b4357d028e32aaca3846d9ce2553c09190a35050505050565b600061093d3361077a565b600084815260056020908152604080832086845290915290205490915060ff166109795760405162461bcd60e51b81526004016104bf90611e63565b6000838152600760209081526040808320858452909152902054600114806109a057508181145b6109bc5760405162461bcd60e51b81526004016104bf90611f32565b60008381526005602090815260408083208584528252808320805460ff191690558583526006909152808220805460001901905551339185917fcdb8aee2f025866feed8775842d18b9233e143db65210f6c0b906f57503924129190a3505050565b600560209081526000928352604080842090915290825290205460ff1681565b600181565b6000838383604051602001610a5a93929190611c57565b6040516020818303038152906040528051906020012090509392505050565b600080610a8684846115f0565b9050610a93878787610804565b9695505050505050565b6000610ab88260405180602001604052806000815250610721565b15610ad55760405162461bcd60e51b81526004016104bf90611e2c565b610add61180c565b50604080518082019091526001805480835260208084018681528284018455600093909352835160029092027fb10e2d527612073b26eecdfd717e6a320cf44b4afac2b0732d9fcbe2b7fa0cf68101928355925180518594610b65937fb10e2d527612073b26eecdfd717e6a320cf44b4afac2b0732d9fcbe2b7fa0cf7909101920190611826565b5050508060000151600284604051610b7d9190611c3b565b90815260405190819003602001812091909155815133917ff6412ea8a4b2dd1e6a68f504769fd3aac31bd2bbed490be3845ae09a93c6f67a90610bc1908790611dc0565b60405180910390a36000610bd43361077a565b825160009081526005602090815260408083208484528252808320805460ff19166001908117909155865184526006835281842080548201905586518452600783528184208585529092528083209190915584519051929350339290917f36410204fd5765251999988cfd44a02097b4357d028e32aaca3846d9ce2553c091a3505192915050565b600860209081526000928352604080842090915290825290205460ff1681565b6003546060908410610ca05760405162461bcd60e51b81526004016104bf90611e9a565b600080805b8582108015610cb5575060015481105b15610cf15760008181526005602090815260408083208a845290915290205460ff1615610ce9576001808201935091909101905b600101610ca5565b5060009050815b8482108015610d08575060015481105b15610d3e5760008181526005602090815260408083208a845290915290205460ff1615610d36576001909101905b600101610cf8565b5060608167ffffffffffffffff81118015610d5857600080fd5b50604051908082528060200260200182016040528015610d9257816020015b610d7f61180c565b815260200190600190039081610d775790505b5090506000835b8382108015610da9575060015481105b15610ec85760008181526005602090815260408083208c845290915290205460ff1615610ec05760018181548110610ddd57fe5b906000526020600020906002020160405180604001604052908160008201548152602001600182018054600181600116156101000203166002900480601f016020809104026020016040519081016040528092919081815260200182805460018160011615610100020316600290048015610e995780601f10610e6e57610100808354040283529160200191610e99565b820191906000526020600020905b815481529060010190602001808311610e7c57829003601f168201915b505050505081525050838381518110610eae57fe5b60209081029190910101526001909101905b600101610d99565b5090979650505050505050565b6000546001600160a01b031681565b600081565b60038181548110610ef657fe5b6000918252602091829020600591909102018054600180830154600280850180546040805161010096831615969096026000190190911692909204601f81018890048802850188019092528184529396506001600160a01b0390911694919291830182828015610fa75780601f10610f7c57610100808354040283529160200191610fa7565b820191906000526020600020905b815481529060010190602001808311610f8a57829003601f168201915b5050505060038301805460408051602060026001851615610100026000190190941693909304601f81018490048402820184019092528181529495949350908301828280156110375780601f1061100c57610100808354040283529160200191611037565b820191906000526020600020905b81548152906001019060200180831161101a57829003601f168201915b5050505050908060040154905085565b805160208183018101805160028252928201919093012091525481565b600760209081526000928352604080842090915290825290205481565b60015460609084106110a55760405162461bcd60e51b81526004016104bf90611e01565b600080805b85821080156110ba575060035481105b156110f657600087815260056020908152604080832084845290915290205460ff16156110ee576001808201935091909101905b6001016110aa565b5060009050815b848210801561110d575060035481105b1561114357600087815260056020908152604080832084845290915290205460ff161561113b576001909101905b6001016110fd565b5060608167ffffffffffffffff8111801561115d57600080fd5b5060405190808252806020026020018201604052801561119757816020015b6111846118a4565b81526020019060019003908161117c5790505b5090506000835b83821080156111ae575060035481105b15610ec857600089815260056020908152604080832084845290915290205460ff16156113a057600381815481106111e257fe5b60009182526020918290206040805160a081018252600593909302909101805483526001808201546001600160a01b0316848601526002808301805485516101009482161594909402600019011691909104601f81018790048702830187018552808352949592949386019391929091908301828280156112a45780601f10611279576101008083540402835291602001916112a4565b820191906000526020600020905b81548152906001019060200180831161128757829003601f168201915b505050918352505060038201805460408051602060026001851615610100026000190190941693909304601f81018490048402820184019092528181529382019392918301828280156113385780601f1061130d57610100808354040283529160200191611338565b820191906000526020600020905b81548152906001019060200180831161131b57829003601f168201915b5050505050815260200160048201548152505083838151811061135757fe5b60209081029190910181019190915260008a81526007825260408082208483529092522054835184908490811061138a57fe5b6020908102919091010151608001526001909101905b60010161119e565b60066020526000908152604090205481565b6003546060908311156113d057600091506113e5565b60035483830111156113e55760035483900391505b60608267ffffffffffffffff811180156113fe57600080fd5b5060405190808252806020026020018201604052801561143857816020015b6114256118a4565b81526020019060019003908161141d5790505b509050835b838582031015610719576003818154811061145457fe5b60009182526020918290206040805160a081018252600593909302909101805483526001808201546001600160a01b0316848601526002808301805485516101009482161594909402600019011691909104601f81018790048702830187018552808352949592949386019391929091908301828280156115165780601f106114eb57610100808354040283529160200191611516565b820191906000526020600020905b8154815290600101906020018083116114f957829003601f168201915b505050918352505060038201805460408051602060026001851615610100026000190190941693909304601f81018490048402820184019092528181529382019392918301828280156115aa5780601f1061157f576101008083540402835291602001916115aa565b820191906000526020600020905b81548152906001019060200180831161158d57829003601f168201915b5050505050815260200160048201548152505082868303815181106115cb57fe5b602090810291909101015260010161143d565b60046020526000908152604090205481565b600061160b8360405180602001604052806000815250610721565b156116285760405162461bcd60e51b81526004016104bf90611e2c565b600354158061167157503360008181526004602052604090205460038054909190811061165157fe5b60009182526020909120600160059092020101546001600160a01b031614155b61168d5760405162461bcd60e51b81526004016104bf90611f69565b6116956118a4565b506040805160a08101825260038054808352336020808501918252948401888152606085018890526000608086018190526001840185559390935283517fc2575a0e9e593c00f959f8c92f12db2869c3395a3b0502d05e2516446f71f85b600590930292830190815590517fc2575a0e9e593c00f959f8c92f12db2869c3395a3b0502d05e2516446f71f85c830180546001600160a01b0319166001600160a01b039092169190911790559151805193948594611778937fc2575a0e9e593c00f959f8c92f12db2869c3395a3b0502d05e2516446f71f85d019290910190611826565b5060608201518051611794916003840191602090910190611826565b5060809190910151600491820155815133600090815260209283526040908190209190915590820151825191516001600160a01b0390911691907ff34f506ea19328cfdfb06027b1f114e7304bb0b8ce3025906353144354d991cd906117fd9088908890611dd3565b60405180910390a35092915050565b604051806040016040528060008152602001606081525090565b828054600181600116156101000203166002900490600052602060002090601f016020900481019282601f1061186757805160ff1916838001178555611894565b82800160010185558215611894579182015b82811115611894578251825591602001919060010190611879565b506118a09291506118dc565b5090565b6040518060a001604052806000815260200160006001600160a01b031681526020016060815260200160608152602001600081525090565b6118f691905b808211156118a057600081556001016118e2565b90565b600082601f830112611909578081fd5b813567ffffffffffffffff80821115611920578283fd5b604051601f8301601f191681016020018281118282101715611940578485fd5b60405282815292508284830160200186101561195b57600080fd5b8260208601602083013760006020848301015250505092915050565b600060208284031215611988578081fd5b81356001600160a01b038116811461199e578182fd5b9392505050565b6000602082840312156119b6578081fd5b813567ffffffffffffffff8111156119cc578182fd5b6119d8848285016118f9565b949350505050565b600080604083850312156119f2578081fd5b823567ffffffffffffffff80821115611a09578283fd5b611a15868387016118f9565b93506020850135915080821115611a2a578283fd5b50611a37858286016118f9565b9150509250929050565b600080600060608486031215611a55578081fd5b833567ffffffffffffffff80821115611a6c578283fd5b611a78878388016118f9565b94506020860135915080821115611a8d578283fd5b611a99878388016118f9565b93506040860135915080821115611aae578283fd5b50611abb868287016118f9565b9150509250925092565b600060208284031215611ad6578081fd5b5035919050565b60008060408385031215611aef578182fd5b50508035926020909101359150565b600080600060608486031215611b12578283fd5b83359250602084013567ffffffffffffffff811115611b2f578283fd5b611b3b868287016118f9565b925050604084013590509250925092565b600080600080600060a08688031215611b63578081fd5b85359450602086013567ffffffffffffffff80821115611b81578283fd5b611b8d89838a016118f9565b9550604088013594506060880135915080821115611ba9578283fd5b611bb589838a016118f9565b93506080880135915080821115611bca578283fd5b50611bd7888289016118f9565b9150509295509295909350565b600080600060608486031215611bf8578283fd5b505081359360208301359350604090920135919050565b60008151808452611c27816020860160208601612028565b601f01601f19169290920160200192915050565b60008251611c4d818460208701612028565b9190910192915050565b60008482528351611c6f816020850160208801612028565b60209201918201929092526040019392505050565b6001600160a01b0391909116815260200190565b60208082528251828201819052600091906040908185019080840286018301878501865b83811015611cfc57603f19898403018552815180518452878101518789860152611ce888860182611c0f565b968901969450505090860190600101611cbc565b509098975050505050505050565b60208082528251828201819052600091906040908185019080840286018301878501865b83811015611cfc57888303603f19018552815180518452878101516001600160a01b0316888501528681015160a088860181905290611d6f82870182611c0f565b6060925082840151915086810383880152611d8a8183611c0f565b6080948501519790940196909652505094870194925090860190600101611d2e565b901515815260200190565b90815260200190565b60006020825261199e6020830184611c0f565b600060408252611de66040830185611c0f565b8281036020840152611df88185611c0f565b95945050505050565b6020808252601190820152701a5b9d985b1a590819985b5a5b1e481251607a1b604082015260600190565b6020808252601f908201527f6e616d652063616e6e6f742062652074686520656d70747920737472696e6700604082015260600190565b6020808252601b908201527f6e6f742061206d656d626572206f6620746861742066616d696c790000000000604082015260600190565b6020808252601190820152701a5b9d985b1a59081c195c9cdbdb881251607a1b604082015260600190565b60208082526025908201527f6163636f756e74206973206e6f74207265676973746572656420746f2061207060408201526432b939b7b760d91b606082015260800190565b6020808252600e908201526d696e76616c696420696e7669746560901b604082015260600190565b60208082526017908201527f6e6f74206120726573706f6e7369626c65206164756c74000000000000000000604082015260600190565b60208082526029908201527f6163636f756e7420697320616c7265616479207265676973746572656420746f6040820152681030903832b939b7b760b91b606082015260800190565b8581526001600160a01b038516602082015260a060408201819052600090611fdc90830186611c0f565b8281036060840152611fee8186611c0f565b9150508260808301529695505050505050565b6000838252604060208301526119d86040830184611c0f565b918252602082015260400190565b60005b8381101561204357818101518382015260200161202b565b83811115612052576000848401525b5050505056fea264697066735822122077ae64e9fba5a76a0d0c754ecd89125498f4ec7ddea7ac59777cd0bcca067a7d64736f6c63430006080033",
  "immutableReferences": {},
  "source": "// SPDX-License-Identifier: MIT\n\npragma solidity ^0.6.0;\n\npragma experimental ABIEncoderV2;\n\ncontract Families {\n    address public owner;\n\n    struct Family {\n        uint256 id;\n        string name;\n    }\n\n    Family[] public families;\n    mapping(string => uint256) public nameToFamily; // familyName => familyID\n\n    struct Person {\n        uint256 id;\n        address account;\n        string name;\n        string avatar;\n        uint256 role; // only sometimes filled in\n    }\n\n    Person[] public people;\n    mapping(address => uint256) public accountToPerson; // account => personID\n\n    // note: this is not the way to do this for production, but we're taking a shortcut for a hackathon\n    mapping(uint256 => mapping(uint256 => bool)) public familyMembers; // familyID => personID => valid\n    mapping(uint256 => uint256) public familyMembersCount; // familyID => person count\n    mapping(uint256 => mapping(uint256 => uint256)) public familyRoles; // familyID => personID => role\n    mapping(uint256 => mapping(bytes32 => bool)) public familyInvites; // familyID => hashed invite => valid\n\n    constructor() public {\n        owner = msg.sender;\n    }\n\n    event FamilyAdded(\n        uint256 indexed id,\n        string name,\n        address indexed personAccount\n    );\n    event PersonAdded(\n        uint256 indexed id,\n        address indexed account,\n        string name,\n        string avatar\n    );\n    event JoinedFamily(uint256 indexed familyID, address indexed account);\n    event LeftFamily(uint256 indexed familyID, address indexed account);\n    event InviteAdded(\n        uint256 indexed familyID,\n        address indexed account,\n        bytes32 invite\n    );\n    event InviteRedeemed(\n        uint256 indexed familyID,\n        address indexed account,\n        bytes32 invite\n    );\n\n    uint256 public constant RoleNone = 0;\n    uint256 public constant RoleResponsibleAdult = 1;\n    uint256 public constant RoleAdult = 2;\n    uint256 public constant RoleChild = 3;\n\n    /// @dev Start a new family. The msg.sender must already be registered as a person.\n    /// @param familyName name of the family\n    /// @return ID of the newly created family\n    function startFamily(string memory familyName) public returns (uint256) {\n        require(\n            !stringsEqual(familyName, \"\"),\n            \"name cannot be the empty string\"\n        );\n\n        Family memory family = Family({id: families.length, name: familyName});\n\n        families.push(family);\n        nameToFamily[familyName] = family.id;\n\n        emit FamilyAdded(family.id, familyName, msg.sender);\n\n        // add this person to the family\n        uint256 personID = getPersonIDByAccount(msg.sender);\n\n        familyMembers[family.id][personID] = true;\n        familyMembersCount[family.id]++;\n        familyRoles[family.id][personID] = RoleResponsibleAdult;\n\n        emit JoinedFamily(family.id, msg.sender);\n\n        return family.id;\n    }\n\n    /// @dev Retrieve a person ID by their account\n    /// @param account account address of the person\n    /// @return person ID\n    function getPersonIDByAccount(address account)\n        public\n        view\n        returns (uint256)\n    {\n        uint256 id = accountToPerson[account];\n        require(\n            id < people.length &&\n                people.length > 0 &&\n                people[id].account == account,\n            \"account is not registered to a person\"\n        );\n        return id;\n    }\n\n    /// @dev Add a person\n    /// @param personName the person's name\n    /// @param avatar the person's avatar\n    /// @return person ID\n    function addPerson(string memory personName, string memory avatar)\n        internal\n        returns (uint256)\n    {\n        require(\n            !stringsEqual(personName, \"\"),\n            \"name cannot be the empty string\"\n        );\n        require(\n            people.length == 0 ||\n                people[accountToPerson[msg.sender]].account != msg.sender,\n            \"account is already registered to a person\"\n        );\n\n        Person memory person =\n            Person({\n                id: people.length,\n                account: msg.sender,\n                name: personName,\n                avatar: avatar,\n                role: RoleNone\n            });\n\n        people.push(person);\n        accountToPerson[msg.sender] = person.id;\n\n        emit PersonAdded(person.id, person.account, personName, avatar);\n    }\n\n    /// @dev Start a new family. The msg.sender will also be registered as a person.\n    /// @param familyName name of the family\n    /// @param personName the person's name\n    /// @param avatar the person's avatar\n    /// @return IDs of the newly created family and person\n    function startFirstFamily(\n        string memory familyName,\n        string memory personName,\n        string memory avatar\n    ) public returns (uint256, uint256) {\n        uint256 personID = addPerson(personName, avatar);\n        uint256 familyID = startFamily(familyName);\n\n        return (familyID, personID);\n    }\n\n    /// @dev Retrieve families\n    /// @param offset offset to return from\n    /// @param limit maximum number to return\n    /// @return families\n    function getFamilies(uint256 offset, uint256 limit)\n        public\n        view\n        returns (Family[] memory)\n    {\n        // note: this will not scale to production, but we're taking a shortcut for a hackathon\n        if (offset > families.length) {\n            limit = 0;\n        } else if (offset + limit > families.length) {\n            limit = families.length - offset;\n        }\n\n        Family[] memory selectFamilies = new Family[](limit);\n\n        for (uint256 i = offset; i - offset < limit; i++) {\n            selectFamilies[i - offset] = families[i];\n        }\n    }\n\n    /// @dev Retrieve people\n    /// @param offset offset to return from\n    /// @param limit maximum number to return\n    /// @return people\n    function getPeople(uint256 offset, uint256 limit)\n        public\n        view\n        returns (Person[] memory)\n    {\n        // note: this will not scale to production, but we're taking a shortcut for a hackathon\n        if (offset > people.length) {\n            limit = 0;\n        } else if (offset + limit > people.length) {\n            limit = people.length - offset;\n        }\n\n        Person[] memory selectPeople = new Person[](limit);\n\n        for (uint256 i = offset; i - offset < limit; i++) {\n            selectPeople[i - offset] = people[i];\n        }\n    }\n\n    /// @dev Retrieve family members\n    /// @param offset offset to return from\n    /// @param limit maximum number to return\n    /// @return people\n    function getFamilyMembers(\n        uint256 familyID,\n        uint256 offset,\n        uint256 limit\n    ) public view returns (Person[] memory) {\n        // note: this will not scale to production, but we're taking a shortcut for a hackathon\n        require(familyID < families.length, \"invalid family ID\");\n\n        // count forward by 'offset' matching people\n        uint256 start = 0;\n        uint256 count = 0;\n        for (uint256 i = 0; count < offset && i < people.length; i++) {\n            if (familyMembers[familyID][i]) {\n                start = i + 1;\n                count++;\n            }\n        }\n\n        // count the number of matching people\n        count = 0;\n        for (uint256 i = start; count < limit && i < people.length; i++) {\n            if (familyMembers[familyID][i]) {\n                count++;\n            }\n        }\n\n        Person[] memory selectPeople = new Person[](count);\n\n        uint256 j = 0;\n        for (uint256 i = start; j < count && i < people.length; i++) {\n            if (familyMembers[familyID][i]) {\n                selectPeople[j] = people[i];\n                selectPeople[j].role = familyRoles[familyID][i];\n                j++;\n            }\n        }\n\n        return selectPeople;\n    }\n\n    /// @dev Retrieve the families a person is a part of\n    /// @param offset offset to return from\n    /// @param limit maximum number to return\n    /// @return families\n    function getFamilyMemberships(\n        uint256 personID,\n        uint256 offset,\n        uint256 limit\n    ) public view returns (Family[] memory) {\n        // note: this will not scale to production, but we're taking a shortcut for a hackathon\n        require(personID < people.length, \"invalid person ID\");\n\n        // count forward by 'offset' matching families\n        uint256 start = 0;\n        uint256 count = 0;\n        for (uint256 i = 0; count < offset && i < families.length; i++) {\n            if (familyMembers[i][personID]) {\n                start = i + 1;\n                count++;\n            }\n        }\n\n        // count the number of matching families\n        count = 0;\n        for (uint256 i = start; count < limit && i < families.length; i++) {\n            if (familyMembers[i][personID]) {\n                count++;\n            }\n        }\n\n        Family[] memory selectFamilies = new Family[](count);\n\n        uint256 j = 0;\n        for (uint256 i = start; j < count && i < families.length; i++) {\n            if (familyMembers[i][personID]) {\n                selectFamilies[j] = families[i];\n                j++;\n            }\n        }\n\n        return selectFamilies;\n    }\n\n    /// @dev Generates an invite\n    /// @param familyID family ID\n    /// @param nonce random nonce generated off-chain\n    /// @param role the role of the person\n    /// @return hashed invite\n    function generateInvite(\n        uint256 familyID,\n        string memory nonce,\n        uint256 role\n    ) public pure returns (bytes32) {\n        return (keccak256(abi.encodePacked(familyID, nonce, role)));\n    }\n\n    /// @dev Adds an invite\n    /// @param familyID family ID\n    /// @param invite the hashed invite\n    function addInvite(uint256 familyID, bytes32 invite) public {\n        uint256 personID = getPersonIDByAccount(msg.sender);\n\n        require(\n            familyMembers[familyID][personID],\n            \"not a member of that family\"\n        );\n        require(\n            familyRoles[familyID][personID] == RoleResponsibleAdult,\n            \"not a responsible adult\"\n        );\n\n        familyInvites[familyID][invite] = true;\n\n        emit InviteAdded(familyID, msg.sender, invite);\n    }\n\n    /// @dev Join a family by invitation\n    /// @param familyID family ID\n    /// @param nonce random nonce generated off-chain\n    /// @param role the role of the person\n    function joinFamily(\n        uint256 familyID,\n        string memory nonce,\n        uint256 role\n    ) public {\n        // note: this can be front-run in production, but we're taking a shortcut for a hackathon\n        uint256 personID = getPersonIDByAccount(msg.sender);\n\n        // validate invite\n        bytes32 invite = generateInvite(familyID, nonce, role);\n        require(familyInvites[familyID][invite], \"invalid invite\");\n\n        // mark invite as used\n        familyInvites[familyID][invite] = false;\n        emit InviteRedeemed(familyID, msg.sender, invite);\n\n        // add them to the family\n        familyMembers[familyID][personID] = true;\n        familyMembersCount[familyID]++;\n        familyRoles[familyID][personID] = RoleResponsibleAdult;\n\n        emit JoinedFamily(familyID, msg.sender);\n    }\n\n    /// @dev Join a family by invitation, and add the person\n    /// @param familyID family ID\n    /// @param nonce random nonce generated off-chain\n    /// @param role the role of the person\n    /// @param personName the person's name\n    /// @param avatar the person's avatar\n    /// @return ID of the newly created person\n    function joinFirstFamily(\n        uint256 familyID,\n        string memory nonce,\n        uint256 role,\n        string memory personName,\n        string memory avatar\n    ) public returns (uint256) {\n        // note: this can be front-run in production, but we're taking a shortcut for a hackathon\n        uint256 personID = addPerson(personName, avatar);\n        joinFamily(familyID, nonce, role);\n\n        return personID;\n    }\n\n    /// @dev Remove a family member\n    /// @param familyID family ID\n    /// @param personID person ID to remove\n    function removeFamilyMember(uint256 familyID, uint256 personID) public {\n        uint256 senderPersonID = getPersonIDByAccount(msg.sender);\n\n        require(\n            familyMembers[familyID][personID],\n            \"not a member of that family\"\n        );\n        require(\n            familyRoles[familyID][personID] == RoleResponsibleAdult ||\n                senderPersonID == personID,\n            \"not a responsible adult\"\n        );\n\n        familyMembers[familyID][personID] = false;\n        familyMembersCount[familyID]--;\n\n        emit LeftFamily(familyID, msg.sender);\n    }\n\n    /// @dev Check if two strings are equal\n    /// @param a first string\n    /// @param b second string\n    function stringsEqual(string memory a, string memory b)\n        public\n        pure\n        returns (bool)\n    {\n        return (keccak256(abi.encodePacked((a))) ==\n            keccak256(abi.encodePacked((b))));\n    }\n}\n",
  "sourcePath": "/Users/jeff/projects/curvegrid/nftjr/contracts/contracts/Family.sol",
  "compiler": {
    "name": "solc",
    "version": "0.6.8+commit.0bbfe453.Emscripten.clang"
  },
  "schemaVersion": "3.3.4",
  "updatedAt": "2021-03-20T19:38:17.754Z",
  "devdoc": {
    "methods": {
      "addInvite(uint256,bytes32)": {
        "details": "Adds an invite",
        "params": {
          "familyID": "family ID",
          "invite": "the hashed invite"
        }
      },
      "generateInvite(uint256,string,uint256)": {
        "details": "Generates an invite",
        "params": {
          "familyID": "family ID",
          "nonce": "random nonce generated off-chain",
          "role": "the role of the person"
        },
        "returns": {
          "_0": "hashed invite"
        }
      },
      "getFamilies(uint256,uint256)": {
        "details": "Retrieve families",
        "params": {
          "limit": "maximum number to return",
          "offset": "offset to return from"
        },
        "returns": {
          "_0": "families"
        }
      },
      "getFamilyMembers(uint256,uint256,uint256)": {
        "details": "Retrieve family members",
        "params": {
          "limit": "maximum number to return",
          "offset": "offset to return from"
        },
        "returns": {
          "_0": "people"
        }
      },
      "getFamilyMemberships(uint256,uint256,uint256)": {
        "details": "Retrieve the families a person is a part of",
        "params": {
          "limit": "maximum number to return",
          "offset": "offset to return from"
        },
        "returns": {
          "_0": "families"
        }
      },
      "getPeople(uint256,uint256)": {
        "details": "Retrieve people",
        "params": {
          "limit": "maximum number to return",
          "offset": "offset to return from"
        },
        "returns": {
          "_0": "people"
        }
      },
      "getPersonIDByAccount(address)": {
        "details": "Retrieve a person ID by their account",
        "params": {
          "account": "account address of the person"
        },
        "returns": {
          "_0": "person ID"
        }
      },
      "joinFamily(uint256,string,uint256)": {
        "details": "Join a family by invitation",
        "params": {
          "familyID": "family ID",
          "nonce": "random nonce generated off-chain",
          "role": "the role of the person"
        }
      },
      "joinFirstFamily(uint256,string,uint256,string,string)": {
        "details": "Join a family by invitation, and add the person",
        "params": {
          "avatar": "the person's avatar",
          "familyID": "family ID",
          "nonce": "random nonce generated off-chain",
          "personName": "the person's name",
          "role": "the role of the person"
        },
        "returns": {
          "_0": "ID of the newly created person"
        }
      },
      "removeFamilyMember(uint256,uint256)": {
        "details": "Remove a family member",
        "params": {
          "familyID": "family ID",
          "personID": "person ID to remove"
        }
      },
      "startFamily(string)": {
        "details": "Start a new family. The msg.sender must already be registered as a person.",
        "params": {
          "familyName": "name of the family"
        },
        "returns": {
          "_0": "ID of the newly created family"
        }
      },
      "startFirstFamily(string,string,string)": {
        "details": "Start a new family. The msg.sender will also be registered as a person.",
        "params": {
          "avatar": "the person's avatar",
          "familyName": "name of the family",
          "personName": "the person's name"
        },
        "returns": {
          "_0": "IDs of the newly created family and person"
        }
      },
      "stringsEqual(string,string)": {
        "details": "Check if two strings are equal",
        "params": {
          "a": "first string",
          "b": "second string"
        }
      }
    }
  },
  "userdoc": {
    "methods": {}
  }
}