{
  "_format": "hh-sol-artifact-1",
  "contractName": "Media",
  "sourceName": "contracts/Media.sol",
  "abi": [
    {
      "inputs": [
        {
          "internalType": "address",
          "name": "marketContractAddr",
          "type": "address"
        },
        {
          "internalType": "address",
          "name": "familiesContractAddr",
          "type": "address"
        }
      ],
      "stateMutability": "nonpayable",
      "type": "constructor"
    },
    {
      "anonymous": false,
      "inputs": [
        {
          "indexed": true,
          "internalType": "address",
          "name": "owner",
          "type": "address"
        },
        {
          "indexed": true,
          "internalType": "address",
          "name": "approved",
          "type": "address"
        },
        {
          "indexed": true,
          "internalType": "uint256",
          "name": "tokenId",
          "type": "uint256"
        }
      ],
      "name": "Approval",
      "type": "event"
    },
    {
      "anonymous": false,
      "inputs": [
        {
          "indexed": true,
          "internalType": "address",
          "name": "owner",
          "type": "address"
        },
        {
          "indexed": true,
          "internalType": "address",
          "name": "operator",
          "type": "address"
        },
        {
          "indexed": false,
          "internalType": "bool",
          "name": "approved",
          "type": "bool"
        }
      ],
      "name": "ApprovalForAll",
      "type": "event"
    },
    {
      "anonymous": false,
      "inputs": [
        {
          "indexed": true,
          "internalType": "uint256",
          "name": "_tokenId",
          "type": "uint256"
        },
        {
          "indexed": false,
          "internalType": "address",
          "name": "owner",
          "type": "address"
        },
        {
          "indexed": false,
          "internalType": "string",
          "name": "_uri",
          "type": "string"
        }
      ],
      "name": "TokenMetadataURIUpdated",
      "type": "event"
    },
    {
      "anonymous": false,
      "inputs": [
        {
          "indexed": true,
          "internalType": "uint256",
          "name": "_tokenId",
          "type": "uint256"
        },
        {
          "indexed": false,
          "internalType": "address",
          "name": "owner",
          "type": "address"
        },
        {
          "indexed": false,
          "internalType": "string",
          "name": "_uri",
          "type": "string"
        }
      ],
      "name": "TokenURIUpdated",
      "type": "event"
    },
    {
      "anonymous": false,
      "inputs": [
        {
          "indexed": true,
          "internalType": "address",
          "name": "from",
          "type": "address"
        },
        {
          "indexed": true,
          "internalType": "address",
          "name": "to",
          "type": "address"
        },
        {
          "indexed": true,
          "internalType": "uint256",
          "name": "tokenId",
          "type": "uint256"
        }
      ],
      "name": "Transfer",
      "type": "event"
    },
    {
      "inputs": [],
      "name": "MINT_WITH_SIG_TYPEHASH",
      "outputs": [
        {
          "internalType": "bytes32",
          "name": "",
          "type": "bytes32"
        }
      ],
      "stateMutability": "view",
      "type": "function"
    },
    {
      "inputs": [],
      "name": "PERMIT_TYPEHASH",
      "outputs": [
        {
          "internalType": "bytes32",
          "name": "",
          "type": "bytes32"
        }
      ],
      "stateMutability": "view",
      "type": "function"
    },
    {
      "inputs": [
        {
          "internalType": "uint256",
          "name": "tokenId",
          "type": "uint256"
        },
        {
          "components": [
            {
              "internalType": "uint256",
              "name": "amount",
              "type": "uint256"
            },
            {
              "internalType": "address",
              "name": "currency",
              "type": "address"
            },
            {
              "internalType": "address",
              "name": "bidder",
              "type": "address"
            },
            {
              "internalType": "address",
              "name": "recipient",
              "type": "address"
            },
            {
              "components": [
                {
                  "internalType": "uint256",
                  "name": "value",
                  "type": "uint256"
                }
              ],
              "internalType": "struct Decimal.D256",
              "name": "sellOnShare",
              "type": "tuple"
            }
          ],
          "internalType": "struct IMarket.Bid",
          "name": "bid",
          "type": "tuple"
        }
      ],
      "name": "acceptBid",
      "outputs": [],
      "stateMutability": "nonpayable",
      "type": "function"
    },
    {
      "inputs": [
        {
          "internalType": "address",
          "name": "to",
          "type": "address"
        },
        {
          "internalType": "uint256",
          "name": "tokenId",
          "type": "uint256"
        }
      ],
      "name": "approve",
      "outputs": [],
      "stateMutability": "nonpayable",
      "type": "function"
    },
    {
      "inputs": [
        {
          "internalType": "uint256",
          "name": "tokenId",
          "type": "uint256"
        },
        {
          "internalType": "address",
          "name": "recipient",
          "type": "address"
        }
      ],
      "name": "auctionTransfer",
      "outputs": [],
      "stateMutability": "nonpayable",
      "type": "function"
    },
    {
      "inputs": [
        {
          "internalType": "address",
          "name": "owner",
          "type": "address"
        }
      ],
      "name": "balanceOf",
      "outputs": [
        {
          "internalType": "uint256",
          "name": "",
          "type": "uint256"
        }
      ],
      "stateMutability": "view",
      "type": "function"
    },
    {
      "inputs": [],
      "name": "baseURI",
      "outputs": [
        {
          "internalType": "string",
          "name": "",
          "type": "string"
        }
      ],
      "stateMutability": "view",
      "type": "function"
    },
    {
      "inputs": [
        {
          "internalType": "uint256",
          "name": "tokenId",
          "type": "uint256"
        }
      ],
      "name": "burn",
      "outputs": [],
      "stateMutability": "nonpayable",
      "type": "function"
    },
    {
      "inputs": [],
      "name": "familiesContract",
      "outputs": [
        {
          "internalType": "address",
          "name": "",
          "type": "address"
        }
      ],
      "stateMutability": "view",
      "type": "function"
    },
    {
      "inputs": [
        {
          "internalType": "uint256",
          "name": "",
          "type": "uint256"
        }
      ],
      "name": "familyIds",
      "outputs": [
        {
          "internalType": "uint256",
          "name": "",
          "type": "uint256"
        }
      ],
      "stateMutability": "view",
      "type": "function"
    },
    {
      "inputs": [
        {
          "internalType": "uint256",
          "name": "tokenId",
          "type": "uint256"
        }
      ],
      "name": "getApproved",
      "outputs": [
        {
          "internalType": "address",
          "name": "",
          "type": "address"
        }
      ],
      "stateMutability": "view",
      "type": "function"
    },
    {
      "inputs": [
        {
          "internalType": "address",
          "name": "owner",
          "type": "address"
        },
        {
          "internalType": "address",
          "name": "operator",
          "type": "address"
        }
      ],
      "name": "isApprovedForAll",
      "outputs": [
        {
          "internalType": "bool",
          "name": "",
          "type": "bool"
        }
      ],
      "stateMutability": "view",
      "type": "function"
    },
    {
      "inputs": [],
      "name": "marketContract",
      "outputs": [
        {
          "internalType": "address",
          "name": "",
          "type": "address"
        }
      ],
      "stateMutability": "view",
      "type": "function"
    },
    {
      "inputs": [
        {
          "components": [
            {
              "internalType": "string",
              "name": "tokenURI",
              "type": "string"
            },
            {
              "internalType": "string",
              "name": "metadataURI",
              "type": "string"
            },
            {
              "internalType": "bytes32",
              "name": "contentHash",
              "type": "bytes32"
            },
            {
              "internalType": "bytes32",
              "name": "metadataHash",
              "type": "bytes32"
            },
            {
              "internalType": "uint256",
              "name": "familyId",
              "type": "uint256"
            }
          ],
          "internalType": "struct IMedia.MediaData",
          "name": "data",
          "type": "tuple"
        },
        {
          "components": [
            {
              "components": [
                {
                  "internalType": "uint256",
                  "name": "value",
                  "type": "uint256"
                }
              ],
              "internalType": "struct Decimal.D256",
              "name": "prevOwner",
              "type": "tuple"
            },
            {
              "components": [
                {
                  "internalType": "uint256",
                  "name": "value",
                  "type": "uint256"
                }
              ],
              "internalType": "struct Decimal.D256",
              "name": "creator",
              "type": "tuple"
            },
            {
              "components": [
                {
                  "internalType": "uint256",
                  "name": "value",
                  "type": "uint256"
                }
              ],
              "internalType": "struct Decimal.D256",
              "name": "owner",
              "type": "tuple"
            }
          ],
          "internalType": "struct IMarket.BidShares",
          "name": "bidShares",
          "type": "tuple"
        }
      ],
      "name": "mint",
      "outputs": [],
      "stateMutability": "nonpayable",
      "type": "function"
    },
    {
      "inputs": [
        {
          "internalType": "address",
          "name": "creator",
          "type": "address"
        },
        {
          "components": [
            {
              "internalType": "string",
              "name": "tokenURI",
              "type": "string"
            },
            {
              "internalType": "string",
              "name": "metadataURI",
              "type": "string"
            },
            {
              "internalType": "bytes32",
              "name": "contentHash",
              "type": "bytes32"
            },
            {
              "internalType": "bytes32",
              "name": "metadataHash",
              "type": "bytes32"
            },
            {
              "internalType": "uint256",
              "name": "familyId",
              "type": "uint256"
            }
          ],
          "internalType": "struct IMedia.MediaData",
          "name": "data",
          "type": "tuple"
        },
        {
          "components": [
            {
              "components": [
                {
                  "internalType": "uint256",
                  "name": "value",
                  "type": "uint256"
                }
              ],
              "internalType": "struct Decimal.D256",
              "name": "prevOwner",
              "type": "tuple"
            },
            {
              "components": [
                {
                  "internalType": "uint256",
                  "name": "value",
                  "type": "uint256"
                }
              ],
              "internalType": "struct Decimal.D256",
              "name": "creator",
              "type": "tuple"
            },
            {
              "components": [
                {
                  "internalType": "uint256",
                  "name": "value",
                  "type": "uint256"
                }
              ],
              "internalType": "struct Decimal.D256",
              "name": "owner",
              "type": "tuple"
            }
          ],
          "internalType": "struct IMarket.BidShares",
          "name": "bidShares",
          "type": "tuple"
        },
        {
          "components": [
            {
              "internalType": "uint256",
              "name": "deadline",
              "type": "uint256"
            },
            {
              "internalType": "uint8",
              "name": "v",
              "type": "uint8"
            },
            {
              "internalType": "bytes32",
              "name": "r",
              "type": "bytes32"
            },
            {
              "internalType": "bytes32",
              "name": "s",
              "type": "bytes32"
            }
          ],
          "internalType": "struct IMedia.EIP712Signature",
          "name": "sig",
          "type": "tuple"
        }
      ],
      "name": "mintWithSig",
      "outputs": [],
      "stateMutability": "nonpayable",
      "type": "function"
    },
    {
      "inputs": [
        {
          "internalType": "address",
          "name": "",
          "type": "address"
        }
      ],
      "name": "mintWithSigNonces",
      "outputs": [
        {
          "internalType": "uint256",
          "name": "",
          "type": "uint256"
        }
      ],
      "stateMutability": "view",
      "type": "function"
    },
    {
      "inputs": [],
      "name": "name",
      "outputs": [
        {
          "internalType": "string",
          "name": "",
          "type": "string"
        }
      ],
      "stateMutability": "view",
      "type": "function"
    },
    {
      "inputs": [
        {
          "internalType": "uint256",
          "name": "tokenId",
          "type": "uint256"
        }
      ],
      "name": "ownerOf",
      "outputs": [
        {
          "internalType": "address",
          "name": "",
          "type": "address"
        }
      ],
      "stateMutability": "view",
      "type": "function"
    },
    {
      "inputs": [
        {
          "internalType": "address",
          "name": "spender",
          "type": "address"
        },
        {
          "internalType": "uint256",
          "name": "tokenId",
          "type": "uint256"
        },
        {
          "components": [
            {
              "internalType": "uint256",
              "name": "deadline",
              "type": "uint256"
            },
            {
              "internalType": "uint8",
              "name": "v",
              "type": "uint8"
            },
            {
              "internalType": "bytes32",
              "name": "r",
              "type": "bytes32"
            },
            {
              "internalType": "bytes32",
              "name": "s",
              "type": "bytes32"
            }
          ],
          "internalType": "struct IMedia.EIP712Signature",
          "name": "sig",
          "type": "tuple"
        }
      ],
      "name": "permit",
      "outputs": [],
      "stateMutability": "nonpayable",
      "type": "function"
    },
    {
      "inputs": [
        {
          "internalType": "address",
          "name": "",
          "type": "address"
        },
        {
          "internalType": "uint256",
          "name": "",
          "type": "uint256"
        }
      ],
      "name": "permitNonces",
      "outputs": [
        {
          "internalType": "uint256",
          "name": "",
          "type": "uint256"
        }
      ],
      "stateMutability": "view",
      "type": "function"
    },
    {
      "inputs": [
        {
          "internalType": "uint256",
          "name": "",
          "type": "uint256"
        }
      ],
      "name": "previousTokenOwners",
      "outputs": [
        {
          "internalType": "address",
          "name": "",
          "type": "address"
        }
      ],
      "stateMutability": "view",
      "type": "function"
    },
    {
      "inputs": [
        {
          "internalType": "uint256",
          "name": "tokenId",
          "type": "uint256"
        }
      ],
      "name": "removeAsk",
      "outputs": [],
      "stateMutability": "nonpayable",
      "type": "function"
    },
    {
      "inputs": [
        {
          "internalType": "uint256",
          "name": "tokenId",
          "type": "uint256"
        }
      ],
      "name": "removeBid",
      "outputs": [],
      "stateMutability": "nonpayable",
      "type": "function"
    },
    {
      "inputs": [
        {
          "internalType": "uint256",
          "name": "tokenId",
          "type": "uint256"
        }
      ],
      "name": "revokeApproval",
      "outputs": [],
      "stateMutability": "nonpayable",
      "type": "function"
    },
    {
      "inputs": [
        {
          "internalType": "address",
          "name": "from",
          "type": "address"
        },
        {
          "internalType": "address",
          "name": "to",
          "type": "address"
        },
        {
          "internalType": "uint256",
          "name": "tokenId",
          "type": "uint256"
        }
      ],
      "name": "safeTransferFrom",
      "outputs": [],
      "stateMutability": "nonpayable",
      "type": "function"
    },
    {
      "inputs": [
        {
          "internalType": "address",
          "name": "from",
          "type": "address"
        },
        {
          "internalType": "address",
          "name": "to",
          "type": "address"
        },
        {
          "internalType": "uint256",
          "name": "tokenId",
          "type": "uint256"
        },
        {
          "internalType": "bytes",
          "name": "_data",
          "type": "bytes"
        }
      ],
      "name": "safeTransferFrom",
      "outputs": [],
      "stateMutability": "nonpayable",
      "type": "function"
    },
    {
      "inputs": [
        {
          "internalType": "address",
          "name": "operator",
          "type": "address"
        },
        {
          "internalType": "bool",
          "name": "approved",
          "type": "bool"
        }
      ],
      "name": "setApprovalForAll",
      "outputs": [],
      "stateMutability": "nonpayable",
      "type": "function"
    },
    {
      "inputs": [
        {
          "internalType": "uint256",
          "name": "tokenId",
          "type": "uint256"
        },
        {
          "components": [
            {
              "internalType": "uint256",
              "name": "amount",
              "type": "uint256"
            },
            {
              "internalType": "address",
              "name": "currency",
              "type": "address"
            }
          ],
          "internalType": "struct IMarket.Ask",
          "name": "ask",
          "type": "tuple"
        }
      ],
      "name": "setAsk",
      "outputs": [],
      "stateMutability": "nonpayable",
      "type": "function"
    },
    {
      "inputs": [
        {
          "internalType": "uint256",
          "name": "tokenId",
          "type": "uint256"
        },
        {
          "components": [
            {
              "internalType": "uint256",
              "name": "amount",
              "type": "uint256"
            },
            {
              "internalType": "address",
              "name": "currency",
              "type": "address"
            },
            {
              "internalType": "address",
              "name": "bidder",
              "type": "address"
            },
            {
              "internalType": "address",
              "name": "recipient",
              "type": "address"
            },
            {
              "components": [
                {
                  "internalType": "uint256",
                  "name": "value",
                  "type": "uint256"
                }
              ],
              "internalType": "struct Decimal.D256",
              "name": "sellOnShare",
              "type": "tuple"
            }
          ],
          "internalType": "struct IMarket.Bid",
          "name": "bid",
          "type": "tuple"
        }
      ],
      "name": "setBid",
      "outputs": [],
      "stateMutability": "nonpayable",
      "type": "function"
    },
    {
      "inputs": [
        {
          "internalType": "bytes4",
          "name": "interfaceId",
          "type": "bytes4"
        }
      ],
      "name": "supportsInterface",
      "outputs": [
        {
          "internalType": "bool",
          "name": "",
          "type": "bool"
        }
      ],
      "stateMutability": "view",
      "type": "function"
    },
    {
      "inputs": [],
      "name": "symbol",
      "outputs": [
        {
          "internalType": "string",
          "name": "",
          "type": "string"
        }
      ],
      "stateMutability": "view",
      "type": "function"
    },
    {
      "inputs": [
        {
          "internalType": "uint256",
          "name": "index",
          "type": "uint256"
        }
      ],
      "name": "tokenByIndex",
      "outputs": [
        {
          "internalType": "uint256",
          "name": "",
          "type": "uint256"
        }
      ],
      "stateMutability": "view",
      "type": "function"
    },
    {
      "inputs": [
        {
          "internalType": "uint256",
          "name": "",
          "type": "uint256"
        }
      ],
      "name": "tokenContentHashes",
      "outputs": [
        {
          "internalType": "bytes32",
          "name": "",
          "type": "bytes32"
        }
      ],
      "stateMutability": "view",
      "type": "function"
    },
    {
      "inputs": [
        {
          "internalType": "uint256",
          "name": "",
          "type": "uint256"
        }
      ],
      "name": "tokenCreators",
      "outputs": [
        {
          "internalType": "address",
          "name": "",
          "type": "address"
        }
      ],
      "stateMutability": "view",
      "type": "function"
    },
    {
      "inputs": [
        {
          "internalType": "uint256",
          "name": "",
          "type": "uint256"
        }
      ],
      "name": "tokenMetadataHashes",
      "outputs": [
        {
          "internalType": "bytes32",
          "name": "",
          "type": "bytes32"
        }
      ],
      "stateMutability": "view",
      "type": "function"
    },
    {
      "inputs": [
        {
          "internalType": "uint256",
          "name": "tokenId",
          "type": "uint256"
        }
      ],
      "name": "tokenMetadataURI",
      "outputs": [
        {
          "internalType": "string",
          "name": "",
          "type": "string"
        }
      ],
      "stateMutability": "view",
      "type": "function"
    },
    {
      "inputs": [
        {
          "internalType": "address",
          "name": "owner",
          "type": "address"
        },
        {
          "internalType": "uint256",
          "name": "index",
          "type": "uint256"
        }
      ],
      "name": "tokenOfOwnerByIndex",
      "outputs": [
        {
          "internalType": "uint256",
          "name": "",
          "type": "uint256"
        }
      ],
      "stateMutability": "view",
      "type": "function"
    },
    {
      "inputs": [
        {
          "internalType": "uint256",
          "name": "tokenId",
          "type": "uint256"
        }
      ],
      "name": "tokenURI",
      "outputs": [
        {
          "internalType": "string",
          "name": "",
          "type": "string"
        }
      ],
      "stateMutability": "view",
      "type": "function"
    },
    {
      "inputs": [],
      "name": "totalSupply",
      "outputs": [
        {
          "internalType": "uint256",
          "name": "",
          "type": "uint256"
        }
      ],
      "stateMutability": "view",
      "type": "function"
    },
    {
      "inputs": [
        {
          "internalType": "address",
          "name": "from",
          "type": "address"
        },
        {
          "internalType": "address",
          "name": "to",
          "type": "address"
        },
        {
          "internalType": "uint256",
          "name": "tokenId",
          "type": "uint256"
        }
      ],
      "name": "transferFrom",
      "outputs": [],
      "stateMutability": "nonpayable",
      "type": "function"
    },
    {
      "inputs": [
        {
          "internalType": "uint256",
          "name": "tokenId",
          "type": "uint256"
        },
        {
          "internalType": "string",
          "name": "metadataURI",
          "type": "string"
        }
      ],
      "name": "updateTokenMetadataURI",
      "outputs": [],
      "stateMutability": "nonpayable",
      "type": "function"
    },
    {
      "inputs": [
        {
          "internalType": "uint256",
          "name": "tokenId",
          "type": "uint256"
        },
        {
          "internalType": "string",
          "name": "tokenURI",
          "type": "string"
        }
      ],
      "name": "updateTokenURI",
      "outputs": [],
      "stateMutability": "nonpayable",
      "type": "function"
    },
    {
      "inputs": [
        {
          "internalType": "address",
          "name": "to",
          "type": "address"
        },
        {
          "internalType": "uint256",
          "name": "tokenId",
          "type": "uint256"
        }
      ],
      "name": "validFamilyTransfer",
      "outputs": [
        {
          "internalType": "bool",
          "name": "",
          "type": "bool"
        }
      ],
      "stateMutability": "view",
      "type": "function"
    }
  ],
  "bytecode": "0x60806040523480156200001157600080fd5b506040516200408a3803806200408a833981016040819052620000349162000242565b604051806040016040528060048152602001635a6f726160e01b815250604051806040016040528060048152602001635a4f524160e01b815250620000866301ffc9a760e01b6200014260201b60201c565b81516200009b9060069060208501906200019d565b508051620000b19060079060208401906200019d565b50620000cd6380ac58cd60e01b6001600160e01b036200014216565b620000e863780e9d6360e01b6001600160e01b036200014216565b50506001600a55600b80546001600160a01b038085166001600160a01b031992831617909255600c8054928416929091169190911790556200013a632711173360e11b6001600160e01b036200014216565b5050620002d0565b6001600160e01b03198082161415620001785760405162461bcd60e51b81526004016200016f9062000280565b60405180910390fd5b6001600160e01b0319166000908152602081905260409020805460ff19166001179055565b828054600181600116156101000203166002900490600052602060002090601f016020900481019282601f10620001e057805160ff191683800117855562000210565b8280016001018555821562000210579182015b8281111562000210578251825591602001919060010190620001f3565b506200021e92915062000222565b5090565b6200023f91905b808211156200021e576000815560010162000229565b90565b6000806040838503121562000255578182fd5b82516200026281620002b7565b60208401519092506200027581620002b7565b809150509250929050565b6020808252601c908201527f4552433136353a20696e76616c696420696e7465726661636520696400000000604082015260600190565b6001600160a01b0381168114620002cd57600080fd5b50565b613daa80620002e06000396000f3fe608060405234801561001057600080fd5b50600436106102695760003560e01c80636352211e11610151578063ba339399116100c3578063e0fd045f11610087578063e0fd045f14610514578063e3b52e1e14610527578063e985e9c51461053a578063f6b630f01461054d578063f8ccd5de14610560578063fad321971461057357610269565b8063ba339399146104cb578063c87b56dd146104de578063cb9500f3146104f1578063dab9c517146104f9578063de5236fb1461050c57610269565b80639d8e7260116101155780639d8e726014610464578063a1794bcd14610477578063a22cb4651461047f578063b1e130fc14610492578063b320f459146104a5578063b88d4fde146104b857610269565b80636352211e1461041b5780636c0360eb1461042e57806370a082311461043657806375682e791461044957806395d89b411461045c57610269565b806318e97fd1116101ea57806342842e0e116101ae57806342842e0e146103a957806342966c68146103bc5780634505427c146103cf5780634f6ccce7146103e25780635bf62422146103f557806362f24b701461040857610269565b806318e97fd11461035557806323b872dd1461036857806328220f351461037b5780632f745c591461038e57806330adf81f146103a157610269565b80630bcd899b116102315780630bcd899b146103015780630e2a1778146103145780631094dd5514610327578063157c3df91461033a57806318160ddd1461034d57610269565b806301ddc3b51461026e57806301ffc9a71461029757806306fdde03146102b7578063081812fc146102cc578063095ea7b3146102ec575b600080fd5b61028161027c366004612f05565b610586565b60405161028e9190613247565b60405180910390f35b6102aa6102a5366004612e89565b610598565b60405161028e919061323c565b6102bf6105b7565b60405161028e91906132ee565b6102df6102da366004612f05565b61064e565b60405161028e91906131ab565b6102ff6102fa366004612e05565b61069a565b005b61028161030f366004612c66565b610732565b6102ff610322366004612e2f565b610744565b6102ff610335366004612d94565b610968565b6102bf610348366004612f05565b610b22565b610281610bed565b6102ff610363366004612f40565b610bfe565b6102ff610376366004612cb5565b610d5d565b6102ff610389366004612f05565b610d68565b61028161039c366004612e05565b610e16565b610281610e47565b6102ff6103b7366004612cb5565b610e6b565b6102ff6103ca366004612f05565b610e76565b6102aa6103dd366004612e05565b610f48565b6102816103f0366004612f05565b61107c565b6102ff61040336600461300d565b611098565b6102ff610416366004612fb5565b61114f565b6102df610429366004612f05565b61120e565b6102bf61123c565b610281610444366004612c66565b61129d565b6102ff610457366004612f40565b6112e6565b6102bf61142f565b6102df610472366004612f05565b611490565b6102df6114ab565b6102ff61048d366004612d5d565b6114ba565b6102ff6104a0366004612f05565b611588565b6102ff6104b3366004612f05565b6115fc565b6102ff6104c6366004612cf5565b6116ba565b6102ff6104d936600461300d565b6116cc565b6102bf6104ec366004612f05565b61174e565b6102df61181c565b610281610507366004612f05565b61182b565b61028161183d565b6102df610522366004612f05565b611861565b6102ff610535366004612ec1565b61187c565b6102aa610548366004612c81565b6118b8565b6102ff61055b366004612f1d565b6118e6565b61028161056e366004612e05565b61196c565b610281610581366004612f05565b611989565b60116020526000908152604090205481565b6001600160e01b03191660009081526020819052604090205460ff1690565b60068054604080516020601f60026000196101006001881615020190951694909404938401819004810282018101909252828152606093909290918301828280156106435780601f1061061857610100808354040283529160200191610643565b820191906000526020600020905b81548152906001019060200180831161062657829003601f168201915b505050505090505b90565b60006106598261199b565b61067e5760405162461bcd60e51b81526004016106759061384d565b60405180910390fd5b506000908152600460205260409020546001600160a01b031690565b60006106a58261120e565b9050806001600160a01b0316836001600160a01b031614156106d95760405162461bcd60e51b8152600401610675906139fc565b806001600160a01b03166106eb6119ae565b6001600160a01b031614806107075750610707816105486119ae565b6107235760405162461bcd60e51b815260040161067590613628565b61072d83836119b2565b505050565b60166020526000908152604090205481565b6002600a5414156107675760405162461bcd60e51b815260040161067590613b6a565b6002600a55816107768161199b565b6107925760405162461bcd60e51b815260040161067590613b33565b815115806107a1575081514211155b6107bd5760405162461bcd60e51b8152600401610675906136cf565b6001600160a01b0384166107e35760405162461bcd60e51b8152600401610675906133dd565b60006107ed611a20565b90506000817f49ecf333e5b8c95c40fdafc95c1ad136e8914a8fb55e9dc8bb01eaa83a2df9ad87876015856108218361120e565b6001600160a01b03168152602080820192909252604090810160009081208c825283528190208054600181019091558a5191516108649695949391929101613250565b6040516020818303038152906040528051906020012060405160200161088b929190613126565b6040516020818303038152906040528051906020012090506000600182866020015187604001518860600151604051600081526020016040526040516108d494939291906132d0565b6020604051602081039080840390855afa1580156108f6573d6000803e3d6000fd5b5050604051601f1901519150506001600160a01b038116158015906109345750806001600160a01b03166109298761120e565b6001600160a01b0316145b6109505760405162461bcd60e51b815260040161067590613afc565b61095a87876119b2565b50506001600a555050505050565b6002600a54141561098b5760405162461bcd60e51b815260040161067590613b6a565b6002600a558051158061099f575080514211155b6109bb5760405162461bcd60e51b815260040161067590613a3d565b60006109c5611a20565b6040808601516060870151602080880151516001600160a01b038b166000908152601683528581208054600181019091558951965197985090968896610a33967f2952e482b8e2b192305f87374d7af45dc2eafafe4f50d26a0c02e90f2fdbe14b96909590949392016132a8565b60405160208183030381529060405280519060200120604051602001610a5a929190613126565b604051602081830303815290604052805190602001209050600060018285602001518660400151876060015160405160008152602001604052604051610aa394939291906132d0565b6020604051602081039080840390855afa158015610ac5573d6000803e3d6000fd5b5050604051601f1901519150506001600160a01b03811615801590610afb5750806001600160a01b0316876001600160a01b0316145b610b175760405162461bcd60e51b815260040161067590613afc565b61095a818787611ad6565b60608180610b306017611cda565b11610b4d5760405162461bcd60e51b815260040161067590613343565b60008381526012602090815260409182902080548351601f600260001961010060018616150201909316929092049182018490048402810184019094528084529091830182828015610be05780601f10610bb557610100808354040283529160200191610be0565b820191906000526020600020905b815481529060010190602001808311610bc357829003601f168201915b5050505050915050919050565b6000610bf96002611cde565b905090565b6002600a541415610c215760405162461bcd60e51b815260040161067590613b6a565b6002600a553383610c328282611ce9565b610c4e5760405162461bcd60e51b8152600401610675906138e5565b6000858152601060205260409020548590610c7b5760405162461bcd60e51b815260040161067590613965565b84848080601f01602080910402602001604051908101604052809392919081815260200183838082843760009201919091525050825115159150610cd390505760405162461bcd60e51b815260040161067590613ba1565b610d138787878080601f016020809104026020016040519081016040528093929190818152602001838380828437600092019190915250611d6e92505050565b867f702fe2dc2dc0f68023540aa4a1e11811c0f29112f6ebf01e61b90538e4f29810338888604051610d47939291906131fc565b60405180910390a250506001600a555050505050565b61072d838383611db2565b6002600a541415610d8b5760405162461bcd60e51b815260040161067590613b6a565b6002600a553381610d9c8282611ce9565b610db85760405162461bcd60e51b8152600401610675906138e5565b600b546040516328220f3560e01b81526001600160a01b03909116906328220f3590610de8908690600401613247565b600060405180830381600087803b158015610e0257600080fd5b505af115801561095a573d6000803e3d6000fd5b6001600160a01b0382166000908152600160205260408120610e3e908363ffffffff611dea16565b90505b92915050565b7f49ecf333e5b8c95c40fdafc95c1ad136e8914a8fb55e9dc8bb01eaa83a2df9ad81565b61072d838383611df6565b6002600a541415610e995760405162461bcd60e51b815260040161067590613b6a565b6002600a5580610ea88161199b565b610ec45760405162461bcd60e51b815260040161067590613b33565b3382610ed08282611ce9565b610eec5760405162461bcd60e51b8152600401610675906138e5565b6000610ef78561120e565b6000868152600e60205260409020549091506001600160a01b03808316911614610f335760405162461bcd60e51b815260040161067590613809565b610f3c85611e11565b50506001600a55505050565b600c54600082815260146020908152604080832054600e909252808320549051631a7a034d60e31b815292936001600160a01b039081169363d3d01a6893610f969390921690600401613be7565b60206040518083038186803b158015610fae57600080fd5b505afa158015610fc2573d6000803e3d6000fd5b505050506040513d601f19601f82011682018060405250810190610fe69190612e6d565b80610e3e5750600c546000838152601460205260409081902054905163997ca0c360e01b81526001600160a01b039092169163997ca0c39161102c918790600401613be7565b60206040518083038186803b15801561104457600080fd5b505afa158015611058573d6000803e3d6000fd5b505050506040513d601f19601f82011682018060405250810190610e3e9190612e6d565b60008061109060028463ffffffff611efd16565b509392505050565b6002600a5414156110bb5760405162461bcd60e51b815260040161067590613b6a565b6002600a55816110ca8161199b565b6110e65760405162461bcd60e51b815260040161067590613b33565b81604001516001600160a01b0316336001600160a01b03161461111b5760405162461bcd60e51b81526004016106759061344b565b600b546040516317b6b0d360e31b81526001600160a01b039091169063bdb5869890610de890869086903390600401613c60565b6002600a5414156111725760405162461bcd60e51b815260040161067590613b6a565b6002600a5533826111838282611ce9565b61119f5760405162461bcd60e51b8152600401610675906138e5565b600b5460405163062f24b760e41b81526001600160a01b03909116906362f24b70906111d19087908790600401613bfe565b600060405180830381600087803b1580156111eb57600080fd5b505af11580156111ff573d6000803e3d6000fd5b50506001600a55505050505050565b6000610e4182604051806060016040528060298152602001613d4c602991396002919063ffffffff611f1916565b60098054604080516020601f60026000196101006001881615020190951694909404938401819004810282018101909252828152606093909290918301828280156106435780601f1061061857610100808354040283529160200191610643565b60006001600160a01b0382166112c55760405162461bcd60e51b815260040161067590613685565b6001600160a01b0382166000908152600160205260409020610e4190611cde565b6002600a5414156113095760405162461bcd60e51b815260040161067590613b6a565b6002600a55338361131a8282611ce9565b6113365760405162461bcd60e51b8152600401610675906138e5565b60008581526011602052604090205485906113635760405162461bcd60e51b815260040161067590613549565b84848080601f016020809104026020016040519081016040528093929190818152602001838380828437600092019190915250508251151591506113bb90505760405162461bcd60e51b815260040161067590613ba1565b6113fb8787878080601f016020809104026020016040519081016040528093929190818152602001838380828437600092019190915250611f3092505050565b867fe3df41127db820c79e5b8d541a63e40e3e97b9af96f7a50bded13091b70df9ae338888604051610d47939291906131fc565b60078054604080516020601f60026000196101006001881615020190951694909404938401819004810282018101909252828152606093909290918301828280156106435780601f1061061857610100808354040283529160200191610643565b600d602052600090815260409020546001600160a01b031681565b600b546001600160a01b031681565b6114c26119ae565b6001600160a01b0316826001600160a01b031614156114f35760405162461bcd60e51b815260040161067590613512565b80600560006115006119ae565b6001600160a01b03908116825260208083019390935260409182016000908120918716808252919093529120805460ff1916921515929092179091556115446119ae565b6001600160a01b03167f17307eab39ab6107e8899845ad3d59bd9653f200f220920489ca2b5937696c318360405161157c919061323c565b60405180910390a35050565b6002600a5414156115ab5760405162461bcd60e51b815260040161067590613b6a565b6002600a556115b98161064e565b6001600160a01b0316336001600160a01b0316146115e95760405162461bcd60e51b81526004016106759061348c565b6115f46000826119b2565b506001600a55565b6002600a54141561161f5760405162461bcd60e51b815260040161067590613b6a565b6002600a5580806116306017611cda565b1161164d5760405162461bcd60e51b815260040161067590613343565b600b5460405163776a083560e01b81526001600160a01b039091169063776a08359061167f9085903390600401613be7565b600060405180830381600087803b15801561169957600080fd5b505af11580156116ad573d6000803e3d6000fd5b50506001600a5550505050565b6116c684848484611f75565b50505050565b6002600a5414156116ef5760405162461bcd60e51b815260040161067590613b6a565b6002600a5533826117008282611ce9565b61171c5760405162461bcd60e51b8152600401610675906138e5565b600b5460405163ba33939960e01b81526001600160a01b039091169063ba339399906111d19087908790600401613c4c565b6060818061175c6017611cda565b116117795760405162461bcd60e51b815260040161067590613343565b60008381526008602090815260409182902080548351601f600260001961010060018616150201909316929092049182018490048402810184019094528084526060939283018282801561180e5780601f106117e35761010080835404028352916020019161180e565b820191906000526020600020905b8154815290600101906020018083116117f157829003601f168201915b509398975050505050505050565b600c546001600160a01b031681565b60146020526000908152604090205481565b7f2952e482b8e2b192305f87374d7af45dc2eafafe4f50d26a0c02e90f2fdbe14b81565b600e602052600090815260409020546001600160a01b031681565b6002600a54141561189f5760405162461bcd60e51b815260040161067590613b6a565b6002600a556118af338383611ad6565b50506001600a55565b6001600160a01b03918216600090815260056020908152604080832093909416825291909152205460ff1690565b600b546001600160a01b031633146119105760405162461bcd60e51b81526004016106759061379d565b6119198261120e565b6000838152600d6020526040902080546001600160a01b0319166001600160a01b03929092169190911790556119686119518361120e565b828460405180602001604052806000815250611faa565b5050565b601560209081526000928352604080842090915290825290205481565b60106020526000908152604090205481565b6000610e4160028363ffffffff611fdd16565b3390565b600081815260046020526040902080546001600160a01b0319166001600160a01b03841690811790915581906119e78261120e565b6001600160a01b03167f8c5be1e5ebec7d5bd14f71427d1e84f3dd0314c0f7b2291e5b200ac8c7c3b92560405160405180910390a45050565b6040516000904690611a3190613141565b60408051918290038220828201825260048352635a6f726160e01b6020938401528151808301835260018152603160f81b908401529051611aba927f91beda2a71cae260ce24b7d0ba9253f7212b59cbe39b0f303ac34fac7c00047d917fc89efdaa54c0f20c7adf612882df0950f5a951637e0307cdcb4c672f298b8bc691869130910161327c565b6040516020818303038152906040528051906020012091505090565b81518051611af65760405162461bcd60e51b815260040161067590613ba1565b60208301518051611b195760405162461bcd60e51b815260040161067590613ba1565b6040840151611b3a5760405162461bcd60e51b815260040161067590613598565b60408085015160009081526013602052205460ff1615611b6c5760405162461bcd60e51b8152600401610675906136fe565b6060840151611b8d5760405162461bcd60e51b8152600401610675906139b7565b6000611b996017611cda565b9050611ba58682611fe9565b611baf6017612003565b611bbd81866040015161200c565b611bcb818660600151612045565b611bd9818660200151611f30565b611be7818660000151611d6e565b611bf581866080015161207e565b6001600160a01b0386166000908152600f60205260409020611c1d908263ffffffff6120b716565b50604080860151600090815260136020908152828220805460ff19166001179055838252600e815282822080546001600160a01b03808c166001600160a01b03199283168117909355600d90935292849020805490931617909155600b5491516375aab41d60e11b815291169063eb55683a90611ca09084908890600401613c22565b600060405180830381600087803b158015611cba57600080fd5b505af1158015611cce573d6000803e3d6000fd5b50505050505050505050565b5490565b6000610e4182611cda565b6000611cf48261199b565b611d105760405162461bcd60e51b8152600401610675906135dc565b6000611d1b8361120e565b9050806001600160a01b0316846001600160a01b03161480611d565750836001600160a01b0316611d4b8461064e565b6001600160a01b0316145b80611d665750611d6681856118b8565b949350505050565b611d778261199b565b611d935760405162461bcd60e51b815260040161067590613899565b6000828152600860209081526040909120825161072d928401906129ab565b611dc3611dbd6119ae565b82611ce9565b611ddf5760405162461bcd60e51b815260040161067590613a74565b61072d8383836120c3565b6000610e3e8383612130565b61072d838383604051806020016040528060008152506116ba565b60008181526008602090815260409182902080548351601f6002600019610100600186161502019093169290920491820184900484028101840190945280845260609392830182828015611ea65780601f10611e7b57610100808354040283529160200191611ea6565b820191906000526020600020905b815481529060010190602001808311611e8957829003601f168201915b50505050509050611eb682612175565b805115611ede5760008281526008602090815260409091208251611edc928401906129ab565b505b506000908152600d6020526040902080546001600160a01b0319169055565b6000808080611f0c868661224e565b9097909650945050505050565b6000611f268484846122aa565b90505b9392505050565b81611f3a8161199b565b611f565760405162461bcd60e51b815260040161067590613b33565b600083815260126020908152604090912083516116c6928501906129ab565b611f86611f806119ae565b83611ce9565b611fa25760405162461bcd60e51b815260040161067590613a74565b6116c6848484845b611fb58484846120c3565b611fc184848484612309565b6116c65760405162461bcd60e51b81526004016106759061338b565b6000610e3e83836123ee565b611968828260405180602001604052806000815250612406565b80546001019055565b816120168161199b565b6120325760405162461bcd60e51b815260040161067590613b33565b5060009182526010602052604090912055565b8161204f8161199b565b61206b5760405162461bcd60e51b815260040161067590613b33565b5060009182526011602052604090912055565b816120888161199b565b6120a45760405162461bcd60e51b815260040161067590613b33565b5060009182526014602052604090912055565b6000610e3e8383612439565b600b546040516328220f3560e01b81526001600160a01b03909116906328220f35906120f3908490600401613247565b600060405180830381600087803b15801561210d57600080fd5b505af1158015612121573d6000803e3d6000fd5b5050505061072d838383612483565b815460009082106121535760405162461bcd60e51b815260040161067590613301565b82600001828154811061216257fe5b9060005260206000200154905092915050565b60006121808261120e565b905061218e8160008461072d565b6121996000836119b2565b60008281526008602052604090205460026000196101006001841615020190911604156121d75760008281526008602052604081206121d791612a29565b6001600160a01b03811660009081526001602052604090206121ff908363ffffffff6125a316565b5061221160028363ffffffff6125af16565b5060405182906000906001600160a01b038416907fddf252ad1be2c89b69c2b068fc378daa952ba7f163c4a11628f55a4df523b3ef908390a45050565b8154600090819083106122735760405162461bcd60e51b81526004016106759061375b565b600084600001848154811061228457fe5b906000526020600020906002020190508060000154816001015492509250509250929050565b600082815260018401602052604081205482816122da5760405162461bcd60e51b815260040161067591906132ee565b508460000160018203815481106122ed57fe5b9060005260206000209060020201600101549150509392505050565b600061231d846001600160a01b03166125bb565b61232957506001611d66565b60606123b7630a85bd0160e11b61233e6119ae565b88878760405160240161235494939291906131bf565b604051602081830303815290604052906001600160e01b0319166020820180516001600160e01b038381831617835250505050604051806060016040528060328152602001613d1a603291396001600160a01b038816919063ffffffff6125c116565b90506000818060200190518101906123cf9190612ea5565b6001600160e01b031916630a85bd0160e11b1492505050949350505050565b60009081526001919091016020526040902054151590565b61241083836125d0565b61241d6000848484612309565b61072d5760405162461bcd60e51b81526004016106759061338b565b600061244583836123ee565b61247b57508154600181810184556000848152602080822090930184905584548482528286019093526040902091909155610e41565b506000610e41565b826001600160a01b03166124968261120e565b6001600160a01b0316146124bc5760405162461bcd60e51b81526004016106759061391c565b6001600160a01b0382166124e25760405162461bcd60e51b8152600401610675906134ce565b6124ed83838361072d565b6124f86000826119b2565b6001600160a01b0383166000908152600160205260409020612520908263ffffffff6125a316565b506001600160a01b0382166000908152600160205260409020612549908263ffffffff6120b716565b5061255c6002828463ffffffff6126a016565b5080826001600160a01b0316846001600160a01b03167fddf252ad1be2c89b69c2b068fc378daa952ba7f163c4a11628f55a4df523b3ef60405160405180910390a4505050565b6000610e3e83836126b6565b6000610e3e838361277c565b3b151590565b6060611f268484600085612850565b6001600160a01b0382166125f65760405162461bcd60e51b8152600401610675906137d4565b6125ff8161199b565b1561261c5760405162461bcd60e51b815260040161067590613414565b6126286000838361072d565b6001600160a01b0382166000908152600160205260409020612650908263ffffffff6120b716565b506126636002828463ffffffff6126a016565b5060405181906001600160a01b038416906000907fddf252ad1be2c89b69c2b068fc378daa952ba7f163c4a11628f55a4df523b3ef908290a45050565b6000611f2684846001600160a01b038516612914565b6000818152600183016020526040812054801561277257835460001980830191908101906000908790839081106126e957fe5b906000526020600020015490508087600001848154811061270657fe5b60009182526020808320909101929092558281526001898101909252604090209084019055865487908061273657fe5b60019003818190600052602060002001600090559055866001016000878152602001908152602001600020600090556001945050505050610e41565b6000915050610e41565b6000818152600183016020526040812054801561277257835460001980830191908101906000908790839081106127af57fe5b90600052602060002090600202019050808760000184815481106127cf57fe5b60009182526020808320845460029093020191825560019384015491840191909155835482528983019052604090209084019055865487908061280e57fe5b6000828152602080822060026000199094019384020182815560019081018390559290935588815289820190925260408220919091559450610e419350505050565b606061285b856125bb565b6128775760405162461bcd60e51b815260040161067590613ac5565b60006060866001600160a01b03168587604051612894919061310a565b60006040518083038185875af1925050503d80600081146128d1576040519150601f19603f3d011682016040523d82523d6000602084013e6128d6565b606091505b509150915081156128ea579150611d669050565b8051156128fa5780518082602001fd5b8360405162461bcd60e51b815260040161067591906132ee565b600082815260018401602052604081205480612979575050604080518082018252838152602080820184815286546001818101895560008981528481209551600290930290950191825591519082015586548684528188019092529290912055611f29565b8285600001600183038154811061298c57fe5b9060005260206000209060020201600101819055506000915050611f29565b828054600181600116156101000203166002900490600052602060002090601f016020900481019282601f106129ec57805160ff1916838001178555612a19565b82800160010185558215612a19579182015b82811115612a195782518255916020019190600101906129fe565b50612a25929150612a70565b5090565b50805460018160011615610100020316600290046000825580601f10612a4f5750612a6d565b601f016020900490600052602060002090810190612a6d9190612a70565b50565b61064b91905b80821115612a255760008155600101612a76565b80356001600160a01b0381168114610e4157600080fd5b600082601f830112612ab1578081fd5b813567ffffffffffffffff811115612ac7578182fd5b612ada601f8201601f1916602001613c8d565b9150808252836020828501011115612af157600080fd5b8060208401602084013760009082016020015292915050565b600060608284031215612b1b578081fd5b612b256060613c8d565b9050612b318383612b5d565b8152612b408360208401612b5d565b6020820152612b528360408401612b5d565b604082015292915050565b600060208284031215612b6e578081fd5b612b786020613c8d565b9135825250919050565b600060808284031215612b93578081fd5b612b9d6080613c8d565b905081358152602082013560ff81168114612bb757600080fd5b80602083015250604082013560408201526060820135606082015292915050565b600060a08284031215612be9578081fd5b612bf360a0613c8d565b9050813567ffffffffffffffff80821115612c0d57600080fd5b612c1985838601612aa1565b83526020840135915080821115612c2f57600080fd5b50612c3c84828501612aa1565b60208301525060408201356040820152606082013560608201526080820135608082015292915050565b600060208284031215612c77578081fd5b610e3e8383612a8a565b60008060408385031215612c93578081fd5b612c9d8484612a8a565b9150612cac8460208501612a8a565b90509250929050565b600080600060608486031215612cc9578081fd5b8335612cd481613ce0565b92506020840135612ce481613ce0565b929592945050506040919091013590565b60008060008060808587031215612d0a578081fd5b612d148686612a8a565b9350612d238660208701612a8a565b925060408501359150606085013567ffffffffffffffff811115612d45578182fd5b612d5187828801612aa1565b91505092959194509250565b60008060408385031215612d6f578182fd5b612d798484612a8a565b91506020830135612d8981613cf5565b809150509250929050565b6000806000806101208587031215612daa578182fd5b612db48686612a8a565b9350602085013567ffffffffffffffff811115612dcf578283fd5b612ddb87828801612bd8565b935050612deb8660408701612b0a565b9150612dfa8660a08701612b82565b905092959194509250565b60008060408385031215612e17578182fd5b612e218484612a8a565b946020939093013593505050565b600080600060c08486031215612e43578081fd5b8335612e4e81613ce0565b925060208401359150612e648560408601612b82565b90509250925092565b600060208284031215612e7e578081fd5b8151611f2981613cf5565b600060208284031215612e9a578081fd5b8135611f2981613d03565b600060208284031215612eb6578081fd5b8151611f2981613d03565b60008060808385031215612ed3578182fd5b823567ffffffffffffffff811115612ee9578283fd5b612ef585828601612bd8565b925050612cac8460208501612b0a565b600060208284031215612f16578081fd5b5035919050565b60008060408385031215612f2f578182fd5b82359150612cac8460208501612a8a565b600080600060408486031215612f54578081fd5b83359250602084013567ffffffffffffffff80821115612f72578283fd5b81860187601f820112612f83578384fd5b8035925081831115612f93578384fd5b876020848301011115612fa4578384fd5b949760209095019650909450505050565b6000808284036060811215612fc8578283fd5b833592506040601f1982011215612fdd578182fd5b50612fe86040613c8d565b602084013581526040840135612ffd81613ce0565b6020820152919491935090915050565b60008082840360c0811215613020578283fd5b8335925060a0601f1982011215613035578182fd5b5061304060a0613c8d565b60208401358152604084013561305581613ce0565b6020820152606084013561306881613ce0565b6040820152608084013561307b81613ce0565b606082015261308d8560a08601612b5d565b6080820152809150509250929050565b600081518084526130b5816020860160208601613cb4565b601f01601f19169290920160200192915050565b805182526020808201516001600160a01b03908116918401919091526040808301518216908401526060808301519091169083015260809081015151910152565b6000825161311c818460208701613cb4565b9190910192915050565b61190160f01b81526002810192909252602282015260420190565b7f454950373132446f6d61696e28737472696e67206e616d652c737472696e672081527f76657273696f6e2c75696e7432353620636861696e49642c6164647265737320602082015271766572696679696e67436f6e74726163742960701b604082015260520190565b6001600160a01b0391909116815260200190565b6001600160a01b03858116825284166020820152604081018390526080606082018190526000906131f29083018461309d565b9695505050505050565b6001600160a01b03841681526040602082018190528101829052600082846060840137818301606090810191909152601f909201601f1916010192915050565b901515815260200190565b90815260200190565b9485526001600160a01b0393909316602085015260408401919091526060830152608082015260a00190565b9485526020850193909352604084019190915260608301526001600160a01b0316608082015260a00190565b958652602086019490945260408501929092526060840152608083015260a082015260c00190565b93845260ff9290921660208401526040830152606082015260800190565b600060208252610e3e602083018461309d565b60208082526022908201527f456e756d657261626c655365743a20696e646578206f7574206f6620626f756e604082015261647360f01b606082015260800190565b60208082526028908201527f4d656469613a20746f6b656e2077697468207468617420696420646f6573206e6040820152671bdd08195e1a5cdd60c21b606082015260800190565b60208082526032908201527f4552433732313a207472616e7366657220746f206e6f6e20455243373231526560408201527131b2b4bb32b91034b6b83632b6b2b73a32b960711b606082015260800190565b6020808252601c908201527f4d656469613a207370656e6465722063616e6e6f742062652030783000000000604082015260600190565b6020808252601c908201527f4552433732313a20746f6b656e20616c7265616479206d696e74656400000000604082015260600190565b60208082526021908201527f4d61726b65743a20426964646572206d757374206265206d73672073656e64656040820152603960f91b606082015260800190565b60208082526022908201527f4d656469613a2063616c6c6572206e6f7420617070726f766564206164647265604082015261737360f01b606082015260800190565b60208082526024908201527f4552433732313a207472616e7366657220746f20746865207a65726f206164646040820152637265737360e01b606082015260800190565b60208082526019908201527f4552433732313a20617070726f766520746f2063616c6c657200000000000000604082015260600190565b6020808252602f908201527f4d656469613a20746f6b656e20646f6573206e6f74206861766520686173682060408201526e6f6620697473206d6574616461746160881b606082015260800190565b60208082526024908201527f4d656469613a20636f6e74656e742068617368206d757374206265206e6f6e2d6040820152637a65726f60e01b606082015260800190565b6020808252602c908201527f4552433732313a206f70657261746f7220717565727920666f72206e6f6e657860408201526b34b9ba32b73a103a37b5b2b760a11b606082015260800190565b60208082526038908201527f4552433732313a20617070726f76652063616c6c6572206973206e6f74206f7760408201527f6e6572206e6f7220617070726f76656420666f7220616c6c0000000000000000606082015260800190565b6020808252602a908201527f4552433732313a2062616c616e636520717565727920666f7220746865207a65604082015269726f206164647265737360b01b606082015260800190565b6020808252601590820152741359591a584e8814195c9b5a5d08195e1c1a5c9959605a1b604082015260600190565b6020808252603e908201527f4d656469613a206120746f6b656e2068617320616c7265616479206265656e2060408201527f637265617465642077697468207468697320636f6e74656e7420686173680000606082015260800190565b60208082526022908201527f456e756d657261626c654d61703a20696e646578206f7574206f6620626f756e604082015261647360f01b606082015260800190565b6020808252601b908201527f4d656469613a206f6e6c79206d61726b657420636f6e74726163740000000000604082015260600190565b6020808252818101527f4552433732313a206d696e7420746f20746865207a65726f2061646472657373604082015260600190565b60208082526024908201527f4d656469613a206f776e6572206973206e6f742063726561746f72206f66206d6040820152636564696160e01b606082015260800190565b6020808252602c908201527f4552433732313a20617070726f76656420717565727920666f72206e6f6e657860408201526b34b9ba32b73a103a37b5b2b760a11b606082015260800190565b6020808252602c908201527f4552433732314d657461646174613a2055524920736574206f66206e6f6e657860408201526b34b9ba32b73a103a37b5b2b760a11b606082015260800190565b6020808252601d908201527f4d656469613a204f6e6c7920617070726f766564206f72206f776e6572000000604082015260600190565b60208082526029908201527f4552433732313a207472616e73666572206f6620746f6b656e2074686174206960408201526839903737ba1037bbb760b91b606082015260800190565b60208082526032908201527f4d656469613a20746f6b656e20646f6573206e6f7420686176652068617368206040820152711bd98818dc99585d19590818dbdb9d195b9d60721b606082015260800190565b60208082526025908201527f4d656469613a206d657461646174612068617368206d757374206265206e6f6e6040820152642d7a65726f60d81b606082015260800190565b60208082526021908201527f4552433732313a20617070726f76616c20746f2063757272656e74206f776e656040820152603960f91b606082015260800190565b6020808252601a908201527f4d656469613a206d696e74576974685369672065787069726564000000000000604082015260600190565b60208082526031908201527f4552433732313a207472616e736665722063616c6c6572206973206e6f74206f6040820152701ddb995c881b9bdc88185c1c1c9bdd9959607a1b606082015260800190565b6020808252601d908201527f416464726573733a2063616c6c20746f206e6f6e2d636f6e7472616374000000604082015260600190565b60208082526018908201527f4d656469613a205369676e617475726520696e76616c69640000000000000000604082015260600190565b60208082526018908201527f4d656469613a206e6f6e6578697374656e7420746f6b656e0000000000000000604082015260600190565b6020808252601f908201527f5265656e7472616e637947756172643a207265656e7472616e742063616c6c00604082015260600190565b60208082526026908201527f4d656469613a2073706563696669656420757269206d757374206265206e6f6e6040820152652d656d70747960d01b606082015260800190565b9182526001600160a01b0316602082015260400190565b918252805160208084019190915201516001600160a01b0316604082015260600190565b91825280515160208084019190915281015151604080840191909152015151606082015260800190565b82815260c08101611f2960208301846130c9565b83815260e08101613c7460208301856130c9565b6001600160a01b039290921660c0919091015292915050565b60405181810167ffffffffffffffff81118282101715613cac57600080fd5b604052919050565b60005b83811015613ccf578181015183820152602001613cb7565b838111156116c65750506000910152565b6001600160a01b0381168114612a6d57600080fd5b8015158114612a6d57600080fd5b6001600160e01b031981168114612a6d57600080fdfe4552433732313a207472616e7366657220746f206e6f6e20455243373231526563656976657220696d706c656d656e7465724552433732313a206f776e657220717565727920666f72206e6f6e6578697374656e7420746f6b656ea2646970667358221220a2bdbf352aaaa97694923fa8ff30be61500824c59d311b220a653bf42eb82bb564736f6c63430006080033",
  "linkReferences": {},
  "deployedLinkReferences": {}
}