{
  "_format": "hh-sol-artifact-1",
  "contractName": "Media",
  "sourceName": "contracts/Media.sol",
  "abi": [
    {
      "inputs": [
        {
          "internalType": "address",
          "name": "marketContractAddr",
          "type": "address"
        },
        {
          "internalType": "address",
          "name": "familiesContractAddr",
          "type": "address"
        }
      ],
      "stateMutability": "nonpayable",
      "type": "constructor"
    },
    {
      "anonymous": false,
      "inputs": [
        {
          "indexed": true,
          "internalType": "address",
          "name": "owner",
          "type": "address"
        },
        {
          "indexed": true,
          "internalType": "address",
          "name": "approved",
          "type": "address"
        },
        {
          "indexed": true,
          "internalType": "uint256",
          "name": "tokenId",
          "type": "uint256"
        }
      ],
      "name": "Approval",
      "type": "event"
    },
    {
      "anonymous": false,
      "inputs": [
        {
          "indexed": true,
          "internalType": "address",
          "name": "owner",
          "type": "address"
        },
        {
          "indexed": true,
          "internalType": "address",
          "name": "operator",
          "type": "address"
        },
        {
          "indexed": false,
          "internalType": "bool",
          "name": "approved",
          "type": "bool"
        }
      ],
      "name": "ApprovalForAll",
      "type": "event"
    },
    {
      "anonymous": false,
      "inputs": [
        {
          "indexed": true,
          "internalType": "uint256",
          "name": "_tokenId",
          "type": "uint256"
        },
        {
          "indexed": false,
          "internalType": "address",
          "name": "owner",
          "type": "address"
        },
        {
          "indexed": false,
          "internalType": "string",
          "name": "_uri",
          "type": "string"
        }
      ],
      "name": "TokenMetadataURIUpdated",
      "type": "event"
    },
    {
      "anonymous": false,
      "inputs": [
        {
          "indexed": true,
          "internalType": "uint256",
          "name": "_tokenId",
          "type": "uint256"
        },
        {
          "indexed": false,
          "internalType": "address",
          "name": "owner",
          "type": "address"
        },
        {
          "indexed": false,
          "internalType": "string",
          "name": "_uri",
          "type": "string"
        }
      ],
      "name": "TokenURIUpdated",
      "type": "event"
    },
    {
      "anonymous": false,
      "inputs": [
        {
          "indexed": true,
          "internalType": "address",
          "name": "from",
          "type": "address"
        },
        {
          "indexed": true,
          "internalType": "address",
          "name": "to",
          "type": "address"
        },
        {
          "indexed": true,
          "internalType": "uint256",
          "name": "tokenId",
          "type": "uint256"
        }
      ],
      "name": "Transfer",
      "type": "event"
    },
    {
      "inputs": [],
      "name": "MINT_WITH_SIG_TYPEHASH",
      "outputs": [
        {
          "internalType": "bytes32",
          "name": "",
          "type": "bytes32"
        }
      ],
      "stateMutability": "view",
      "type": "function"
    },
    {
      "inputs": [],
      "name": "PERMIT_TYPEHASH",
      "outputs": [
        {
          "internalType": "bytes32",
          "name": "",
          "type": "bytes32"
        }
      ],
      "stateMutability": "view",
      "type": "function"
    },
    {
      "inputs": [
        {
          "internalType": "uint256",
          "name": "tokenId",
          "type": "uint256"
        },
        {
          "components": [
            {
              "internalType": "uint256",
              "name": "amount",
              "type": "uint256"
            },
            {
              "internalType": "address",
              "name": "currency",
              "type": "address"
            },
            {
              "internalType": "address",
              "name": "bidder",
              "type": "address"
            },
            {
              "internalType": "address",
              "name": "recipient",
              "type": "address"
            },
            {
              "components": [
                {
                  "internalType": "uint256",
                  "name": "value",
                  "type": "uint256"
                }
              ],
              "internalType": "struct Decimal.D256",
              "name": "sellOnShare",
              "type": "tuple"
            }
          ],
          "internalType": "struct IMarket.Bid",
          "name": "bid",
          "type": "tuple"
        }
      ],
      "name": "acceptBid",
      "outputs": [],
      "stateMutability": "nonpayable",
      "type": "function"
    },
    {
      "inputs": [
        {
          "internalType": "address",
          "name": "to",
          "type": "address"
        },
        {
          "internalType": "uint256",
          "name": "tokenId",
          "type": "uint256"
        }
      ],
      "name": "approve",
      "outputs": [],
      "stateMutability": "nonpayable",
      "type": "function"
    },
    {
      "inputs": [
        {
          "internalType": "uint256",
          "name": "tokenId",
          "type": "uint256"
        },
        {
          "internalType": "address",
          "name": "recipient",
          "type": "address"
        }
      ],
      "name": "auctionTransfer",
      "outputs": [],
      "stateMutability": "nonpayable",
      "type": "function"
    },
    {
      "inputs": [
        {
          "internalType": "address",
          "name": "owner",
          "type": "address"
        }
      ],
      "name": "balanceOf",
      "outputs": [
        {
          "internalType": "uint256",
          "name": "",
          "type": "uint256"
        }
      ],
      "stateMutability": "view",
      "type": "function"
    },
    {
      "inputs": [],
      "name": "baseURI",
      "outputs": [
        {
          "internalType": "string",
          "name": "",
          "type": "string"
        }
      ],
      "stateMutability": "view",
      "type": "function"
    },
    {
      "inputs": [
        {
          "internalType": "uint256",
          "name": "tokenId",
          "type": "uint256"
        }
      ],
      "name": "burn",
      "outputs": [],
      "stateMutability": "nonpayable",
      "type": "function"
    },
    {
      "inputs": [],
      "name": "familiesContract",
      "outputs": [
        {
          "internalType": "address",
          "name": "",
          "type": "address"
        }
      ],
      "stateMutability": "view",
      "type": "function"
    },
    {
      "inputs": [
        {
          "internalType": "uint256",
          "name": "",
          "type": "uint256"
        }
      ],
      "name": "familyIds",
      "outputs": [
        {
          "internalType": "uint256",
          "name": "",
          "type": "uint256"
        }
      ],
      "stateMutability": "view",
      "type": "function"
    },
    {
      "inputs": [
        {
          "internalType": "uint256",
          "name": "tokenId",
          "type": "uint256"
        }
      ],
      "name": "getApproved",
      "outputs": [
        {
          "internalType": "address",
          "name": "",
          "type": "address"
        }
      ],
      "stateMutability": "view",
      "type": "function"
    },
    {
      "inputs": [
        {
          "internalType": "uint256",
          "name": "familyId",
          "type": "uint256"
        }
      ],
      "name": "getTokensByFamily",
      "outputs": [
        {
          "components": [
            {
              "internalType": "string",
              "name": "tokenURI",
              "type": "string"
            },
            {
              "internalType": "string",
              "name": "tokenMetadataURI",
              "type": "string"
            },
            {
              "internalType": "address",
              "name": "creator",
              "type": "address"
            },
            {
              "internalType": "address",
              "name": "owner",
              "type": "address"
            }
          ],
          "internalType": "struct Media.FamilyTokenData[]",
          "name": "",
          "type": "tuple[]"
        }
      ],
      "stateMutability": "view",
      "type": "function"
    },
    {
      "inputs": [
        {
          "internalType": "address",
          "name": "owner",
          "type": "address"
        },
        {
          "internalType": "address",
          "name": "operator",
          "type": "address"
        }
      ],
      "name": "isApprovedForAll",
      "outputs": [
        {
          "internalType": "bool",
          "name": "",
          "type": "bool"
        }
      ],
      "stateMutability": "view",
      "type": "function"
    },
    {
      "inputs": [],
      "name": "marketContract",
      "outputs": [
        {
          "internalType": "address",
          "name": "",
          "type": "address"
        }
      ],
      "stateMutability": "view",
      "type": "function"
    },
    {
      "inputs": [
        {
          "components": [
            {
              "internalType": "string",
              "name": "tokenURI",
              "type": "string"
            },
            {
              "internalType": "string",
              "name": "metadataURI",
              "type": "string"
            },
            {
              "internalType": "bytes32",
              "name": "contentHash",
              "type": "bytes32"
            },
            {
              "internalType": "bytes32",
              "name": "metadataHash",
              "type": "bytes32"
            },
            {
              "internalType": "uint256",
              "name": "familyId",
              "type": "uint256"
            }
          ],
          "internalType": "struct IMedia.MediaData",
          "name": "data",
          "type": "tuple"
        },
        {
          "components": [
            {
              "components": [
                {
                  "internalType": "uint256",
                  "name": "value",
                  "type": "uint256"
                }
              ],
              "internalType": "struct Decimal.D256",
              "name": "prevOwner",
              "type": "tuple"
            },
            {
              "components": [
                {
                  "internalType": "uint256",
                  "name": "value",
                  "type": "uint256"
                }
              ],
              "internalType": "struct Decimal.D256",
              "name": "creator",
              "type": "tuple"
            },
            {
              "components": [
                {
                  "internalType": "uint256",
                  "name": "value",
                  "type": "uint256"
                }
              ],
              "internalType": "struct Decimal.D256",
              "name": "owner",
              "type": "tuple"
            }
          ],
          "internalType": "struct IMarket.BidShares",
          "name": "bidShares",
          "type": "tuple"
        }
      ],
      "name": "mint",
      "outputs": [],
      "stateMutability": "nonpayable",
      "type": "function"
    },
    {
      "inputs": [
        {
          "internalType": "address",
          "name": "creator",
          "type": "address"
        },
        {
          "components": [
            {
              "internalType": "string",
              "name": "tokenURI",
              "type": "string"
            },
            {
              "internalType": "string",
              "name": "metadataURI",
              "type": "string"
            },
            {
              "internalType": "bytes32",
              "name": "contentHash",
              "type": "bytes32"
            },
            {
              "internalType": "bytes32",
              "name": "metadataHash",
              "type": "bytes32"
            },
            {
              "internalType": "uint256",
              "name": "familyId",
              "type": "uint256"
            }
          ],
          "internalType": "struct IMedia.MediaData",
          "name": "data",
          "type": "tuple"
        },
        {
          "components": [
            {
              "components": [
                {
                  "internalType": "uint256",
                  "name": "value",
                  "type": "uint256"
                }
              ],
              "internalType": "struct Decimal.D256",
              "name": "prevOwner",
              "type": "tuple"
            },
            {
              "components": [
                {
                  "internalType": "uint256",
                  "name": "value",
                  "type": "uint256"
                }
              ],
              "internalType": "struct Decimal.D256",
              "name": "creator",
              "type": "tuple"
            },
            {
              "components": [
                {
                  "internalType": "uint256",
                  "name": "value",
                  "type": "uint256"
                }
              ],
              "internalType": "struct Decimal.D256",
              "name": "owner",
              "type": "tuple"
            }
          ],
          "internalType": "struct IMarket.BidShares",
          "name": "bidShares",
          "type": "tuple"
        },
        {
          "components": [
            {
              "internalType": "uint256",
              "name": "deadline",
              "type": "uint256"
            },
            {
              "internalType": "uint8",
              "name": "v",
              "type": "uint8"
            },
            {
              "internalType": "bytes32",
              "name": "r",
              "type": "bytes32"
            },
            {
              "internalType": "bytes32",
              "name": "s",
              "type": "bytes32"
            }
          ],
          "internalType": "struct IMedia.EIP712Signature",
          "name": "sig",
          "type": "tuple"
        }
      ],
      "name": "mintWithSig",
      "outputs": [],
      "stateMutability": "nonpayable",
      "type": "function"
    },
    {
      "inputs": [
        {
          "internalType": "address",
          "name": "",
          "type": "address"
        }
      ],
      "name": "mintWithSigNonces",
      "outputs": [
        {
          "internalType": "uint256",
          "name": "",
          "type": "uint256"
        }
      ],
      "stateMutability": "view",
      "type": "function"
    },
    {
      "inputs": [],
      "name": "name",
      "outputs": [
        {
          "internalType": "string",
          "name": "",
          "type": "string"
        }
      ],
      "stateMutability": "view",
      "type": "function"
    },
    {
      "inputs": [
        {
          "internalType": "uint256",
          "name": "tokenId",
          "type": "uint256"
        }
      ],
      "name": "ownerOf",
      "outputs": [
        {
          "internalType": "address",
          "name": "",
          "type": "address"
        }
      ],
      "stateMutability": "view",
      "type": "function"
    },
    {
      "inputs": [
        {
          "internalType": "address",
          "name": "spender",
          "type": "address"
        },
        {
          "internalType": "uint256",
          "name": "tokenId",
          "type": "uint256"
        },
        {
          "components": [
            {
              "internalType": "uint256",
              "name": "deadline",
              "type": "uint256"
            },
            {
              "internalType": "uint8",
              "name": "v",
              "type": "uint8"
            },
            {
              "internalType": "bytes32",
              "name": "r",
              "type": "bytes32"
            },
            {
              "internalType": "bytes32",
              "name": "s",
              "type": "bytes32"
            }
          ],
          "internalType": "struct IMedia.EIP712Signature",
          "name": "sig",
          "type": "tuple"
        }
      ],
      "name": "permit",
      "outputs": [],
      "stateMutability": "nonpayable",
      "type": "function"
    },
    {
      "inputs": [
        {
          "internalType": "address",
          "name": "",
          "type": "address"
        },
        {
          "internalType": "uint256",
          "name": "",
          "type": "uint256"
        }
      ],
      "name": "permitNonces",
      "outputs": [
        {
          "internalType": "uint256",
          "name": "",
          "type": "uint256"
        }
      ],
      "stateMutability": "view",
      "type": "function"
    },
    {
      "inputs": [
        {
          "internalType": "uint256",
          "name": "",
          "type": "uint256"
        }
      ],
      "name": "previousTokenOwners",
      "outputs": [
        {
          "internalType": "address",
          "name": "",
          "type": "address"
        }
      ],
      "stateMutability": "view",
      "type": "function"
    },
    {
      "inputs": [
        {
          "internalType": "uint256",
          "name": "tokenId",
          "type": "uint256"
        }
      ],
      "name": "removeAsk",
      "outputs": [],
      "stateMutability": "nonpayable",
      "type": "function"
    },
    {
      "inputs": [
        {
          "internalType": "uint256",
          "name": "tokenId",
          "type": "uint256"
        }
      ],
      "name": "removeBid",
      "outputs": [],
      "stateMutability": "nonpayable",
      "type": "function"
    },
    {
      "inputs": [
        {
          "internalType": "uint256",
          "name": "tokenId",
          "type": "uint256"
        }
      ],
      "name": "revokeApproval",
      "outputs": [],
      "stateMutability": "nonpayable",
      "type": "function"
    },
    {
      "inputs": [
        {
          "internalType": "address",
          "name": "from",
          "type": "address"
        },
        {
          "internalType": "address",
          "name": "to",
          "type": "address"
        },
        {
          "internalType": "uint256",
          "name": "tokenId",
          "type": "uint256"
        }
      ],
      "name": "safeTransferFrom",
      "outputs": [],
      "stateMutability": "nonpayable",
      "type": "function"
    },
    {
      "inputs": [
        {
          "internalType": "address",
          "name": "from",
          "type": "address"
        },
        {
          "internalType": "address",
          "name": "to",
          "type": "address"
        },
        {
          "internalType": "uint256",
          "name": "tokenId",
          "type": "uint256"
        },
        {
          "internalType": "bytes",
          "name": "_data",
          "type": "bytes"
        }
      ],
      "name": "safeTransferFrom",
      "outputs": [],
      "stateMutability": "nonpayable",
      "type": "function"
    },
    {
      "inputs": [
        {
          "internalType": "address",
          "name": "operator",
          "type": "address"
        },
        {
          "internalType": "bool",
          "name": "approved",
          "type": "bool"
        }
      ],
      "name": "setApprovalForAll",
      "outputs": [],
      "stateMutability": "nonpayable",
      "type": "function"
    },
    {
      "inputs": [
        {
          "internalType": "uint256",
          "name": "tokenId",
          "type": "uint256"
        },
        {
          "components": [
            {
              "internalType": "uint256",
              "name": "amount",
              "type": "uint256"
            },
            {
              "internalType": "address",
              "name": "currency",
              "type": "address"
            }
          ],
          "internalType": "struct IMarket.Ask",
          "name": "ask",
          "type": "tuple"
        }
      ],
      "name": "setAsk",
      "outputs": [],
      "stateMutability": "nonpayable",
      "type": "function"
    },
    {
      "inputs": [
        {
          "internalType": "uint256",
          "name": "tokenId",
          "type": "uint256"
        },
        {
          "components": [
            {
              "internalType": "uint256",
              "name": "amount",
              "type": "uint256"
            },
            {
              "internalType": "address",
              "name": "currency",
              "type": "address"
            },
            {
              "internalType": "address",
              "name": "bidder",
              "type": "address"
            },
            {
              "internalType": "address",
              "name": "recipient",
              "type": "address"
            },
            {
              "components": [
                {
                  "internalType": "uint256",
                  "name": "value",
                  "type": "uint256"
                }
              ],
              "internalType": "struct Decimal.D256",
              "name": "sellOnShare",
              "type": "tuple"
            }
          ],
          "internalType": "struct IMarket.Bid",
          "name": "bid",
          "type": "tuple"
        }
      ],
      "name": "setBid",
      "outputs": [],
      "stateMutability": "nonpayable",
      "type": "function"
    },
    {
      "inputs": [
        {
          "internalType": "bytes4",
          "name": "interfaceId",
          "type": "bytes4"
        }
      ],
      "name": "supportsInterface",
      "outputs": [
        {
          "internalType": "bool",
          "name": "",
          "type": "bool"
        }
      ],
      "stateMutability": "view",
      "type": "function"
    },
    {
      "inputs": [],
      "name": "symbol",
      "outputs": [
        {
          "internalType": "string",
          "name": "",
          "type": "string"
        }
      ],
      "stateMutability": "view",
      "type": "function"
    },
    {
      "inputs": [
        {
          "internalType": "uint256",
          "name": "index",
          "type": "uint256"
        }
      ],
      "name": "tokenByIndex",
      "outputs": [
        {
          "internalType": "uint256",
          "name": "",
          "type": "uint256"
        }
      ],
      "stateMutability": "view",
      "type": "function"
    },
    {
      "inputs": [
        {
          "internalType": "uint256",
          "name": "",
          "type": "uint256"
        }
      ],
      "name": "tokenContentHashes",
      "outputs": [
        {
          "internalType": "bytes32",
          "name": "",
          "type": "bytes32"
        }
      ],
      "stateMutability": "view",
      "type": "function"
    },
    {
      "inputs": [
        {
          "internalType": "uint256",
          "name": "",
          "type": "uint256"
        }
      ],
      "name": "tokenCreators",
      "outputs": [
        {
          "internalType": "address",
          "name": "",
          "type": "address"
        }
      ],
      "stateMutability": "view",
      "type": "function"
    },
    {
      "inputs": [
        {
          "internalType": "uint256",
          "name": "",
          "type": "uint256"
        }
      ],
      "name": "tokenMetadataHashes",
      "outputs": [
        {
          "internalType": "bytes32",
          "name": "",
          "type": "bytes32"
        }
      ],
      "stateMutability": "view",
      "type": "function"
    },
    {
      "inputs": [
        {
          "internalType": "uint256",
          "name": "tokenId",
          "type": "uint256"
        }
      ],
      "name": "tokenMetadataURI",
      "outputs": [
        {
          "internalType": "string",
          "name": "",
          "type": "string"
        }
      ],
      "stateMutability": "view",
      "type": "function"
    },
    {
      "inputs": [
        {
          "internalType": "address",
          "name": "owner",
          "type": "address"
        },
        {
          "internalType": "uint256",
          "name": "index",
          "type": "uint256"
        }
      ],
      "name": "tokenOfOwnerByIndex",
      "outputs": [
        {
          "internalType": "uint256",
          "name": "",
          "type": "uint256"
        }
      ],
      "stateMutability": "view",
      "type": "function"
    },
    {
      "inputs": [
        {
          "internalType": "uint256",
          "name": "tokenId",
          "type": "uint256"
        }
      ],
      "name": "tokenURI",
      "outputs": [
        {
          "internalType": "string",
          "name": "",
          "type": "string"
        }
      ],
      "stateMutability": "view",
      "type": "function"
    },
    {
      "inputs": [],
      "name": "totalSupply",
      "outputs": [
        {
          "internalType": "uint256",
          "name": "",
          "type": "uint256"
        }
      ],
      "stateMutability": "view",
      "type": "function"
    },
    {
      "inputs": [
        {
          "internalType": "address",
          "name": "from",
          "type": "address"
        },
        {
          "internalType": "address",
          "name": "to",
          "type": "address"
        },
        {
          "internalType": "uint256",
          "name": "tokenId",
          "type": "uint256"
        }
      ],
      "name": "transferFrom",
      "outputs": [],
      "stateMutability": "nonpayable",
      "type": "function"
    },
    {
      "inputs": [
        {
          "internalType": "uint256",
          "name": "tokenId",
          "type": "uint256"
        },
        {
          "internalType": "string",
          "name": "metadataURI",
          "type": "string"
        }
      ],
      "name": "updateTokenMetadataURI",
      "outputs": [],
      "stateMutability": "nonpayable",
      "type": "function"
    },
    {
      "inputs": [
        {
          "internalType": "uint256",
          "name": "tokenId",
          "type": "uint256"
        },
        {
          "internalType": "string",
          "name": "tokenURI",
          "type": "string"
        }
      ],
      "name": "updateTokenURI",
      "outputs": [],
      "stateMutability": "nonpayable",
      "type": "function"
    },
    {
      "inputs": [
        {
          "internalType": "address",
          "name": "to",
          "type": "address"
        },
        {
          "internalType": "uint256",
          "name": "tokenId",
          "type": "uint256"
        }
      ],
      "name": "validFamilyTransfer",
      "outputs": [
        {
          "internalType": "bool",
          "name": "",
          "type": "bool"
        }
      ],
      "stateMutability": "view",
      "type": "function"
    }
  ],
  "bytecode": "0x60806040523480156200001157600080fd5b50604051620043ff380380620043ff833981016040819052620000349162000242565b604051806040016040528060048152602001635a6f726160e01b815250604051806040016040528060048152602001635a4f524160e01b815250620000866301ffc9a760e01b6200014260201b60201c565b81516200009b9060069060208501906200019d565b508051620000b19060079060208401906200019d565b50620000cd6380ac58cd60e01b6001600160e01b036200014216565b620000e863780e9d6360e01b6001600160e01b036200014216565b50506001600a55600b80546001600160a01b038085166001600160a01b031992831617909255600c8054928416929091169190911790556200013a632711173360e11b6001600160e01b036200014216565b5050620002d0565b6001600160e01b03198082161415620001785760405162461bcd60e51b81526004016200016f9062000280565b60405180910390fd5b6001600160e01b0319166000908152602081905260409020805460ff19166001179055565b828054600181600116156101000203166002900490600052602060002090601f016020900481019282601f10620001e057805160ff191683800117855562000210565b8280016001018555821562000210579182015b8281111562000210578251825591602001919060010190620001f3565b506200021e92915062000222565b5090565b6200023f91905b808211156200021e576000815560010162000229565b90565b6000806040838503121562000255578182fd5b82516200026281620002b7565b60208401519092506200027581620002b7565b809150509250929050565b6020808252601c908201527f4552433136353a20696e76616c696420696e7465726661636520696400000000604082015260600190565b6001600160a01b0381168114620002cd57600080fd5b50565b61411f80620002e06000396000f3fe608060405234801561001057600080fd5b50600436106102745760003560e01c80636352211e11610151578063ba339399116100c3578063e0fd045f11610087578063e0fd045f1461053f578063e3b52e1e14610552578063e985e9c514610565578063f6b630f014610578578063f8ccd5de1461058b578063fad321971461059e57610274565b8063ba339399146104f6578063c87b56dd14610509578063cb9500f31461051c578063dab9c51714610524578063de5236fb1461053757610274565b80639d8e7260116101155780639d8e72601461048f578063a1794bcd146104a2578063a22cb465146104aa578063b1e130fc146104bd578063b320f459146104d0578063b88d4fde146104e357610274565b80636352211e146104465780636c0360eb1461045957806370a082311461046157806375682e791461047457806395d89b411461048757610274565b806323b872dd116101ea57806342966c68116101ae57806342966c68146103c75780634505427c146103da5780634f6ccce7146103ed5780635bf62422146104005780635f5dc05c1461041357806362f24b701461043357610274565b806323b872dd1461037357806328220f35146103865780632f745c591461039957806330adf81f146103ac57806342842e0e146103b457610274565b80630bcd899b1161023c5780630bcd899b1461030c5780630e2a17781461031f5780631094dd5514610332578063157c3df91461034557806318160ddd1461035857806318e97fd11461036057610274565b806301ddc3b51461027957806301ffc9a7146102a257806306fdde03146102c2578063081812fc146102d7578063095ea7b3146102f7575b600080fd5b61028c6102873660046131da565b6105b1565b60405161029991906135bc565b60405180910390f35b6102b56102b036600461315e565b6105c3565b60405161029991906135b1565b6102ca6105e2565b6040516102999190613663565b6102ea6102e53660046131da565b610679565b604051610299919061347c565b61030a6103053660046130db565b6106c5565b005b61028c61031a366004612f3c565b61075d565b61030a61032d366004613105565b61076f565b61030a61034036600461306a565b610993565b6102ca6103533660046131da565b610b4d565b61028c610c18565b61030a61036e366004613215565b610c29565b61030a610381366004612f8b565b610d88565b61030a6103943660046131da565b610d93565b61028c6103a73660046130db565b610e41565b61028c610e72565b61030a6103c2366004612f8b565b610e96565b61030a6103d53660046131da565b610ea1565b6102b56103e83660046130db565b610f73565b61028c6103fb3660046131da565b6110a7565b61030a61040e3660046132e1565b6110c3565b6104266104213660046131da565b61117a565b604051610299919061350d565b61030a61044136600461328a565b6113eb565b6102ea6104543660046131da565b6114aa565b6102ca6114d8565b61028c61046f366004612f3c565b611539565b61030a610482366004613215565b611582565b6102ca6116cb565b6102ea61049d3660046131da565b61172c565b6102ea611747565b61030a6104b8366004613033565b611756565b61030a6104cb3660046131da565b611824565b61030a6104de3660046131da565b611898565b61030a6104f1366004612fcb565b611956565b61030a6105043660046132e1565b611968565b6102ca6105173660046131da565b6119ea565b6102ea611ab8565b61028c6105323660046131da565b611ac7565b61028c611ad9565b6102ea61054d3660046131da565b611afd565b61030a610560366004613196565b611b18565b6102b5610573366004612f57565b611b54565b61030a6105863660046131f2565b611b82565b61028c6105993660046130db565b611c08565b61028c6105ac3660046131da565b611c25565b60116020526000908152604090205481565b6001600160e01b03191660009081526020819052604090205460ff1690565b60068054604080516020601f600260001961010060018816150201909516949094049384018190048102820181019092528281526060939092909183018282801561066e5780601f106106435761010080835404028352916020019161066e565b820191906000526020600020905b81548152906001019060200180831161065157829003601f168201915b505050505090505b90565b600061068482611c37565b6106a95760405162461bcd60e51b81526004016106a090613bc2565b60405180910390fd5b506000908152600460205260409020546001600160a01b031690565b60006106d0826114aa565b9050806001600160a01b0316836001600160a01b031614156107045760405162461bcd60e51b81526004016106a090613d71565b806001600160a01b0316610716611c4a565b6001600160a01b03161480610732575061073281610573611c4a565b61074e5760405162461bcd60e51b81526004016106a09061399d565b6107588383611c4e565b505050565b60166020526000908152604090205481565b6002600a5414156107925760405162461bcd60e51b81526004016106a090613edf565b6002600a55816107a181611c37565b6107bd5760405162461bcd60e51b81526004016106a090613ea8565b815115806107cc575081514211155b6107e85760405162461bcd60e51b81526004016106a090613a44565b6001600160a01b03841661080e5760405162461bcd60e51b81526004016106a090613752565b6000610818611cbc565b90506000817f49ecf333e5b8c95c40fdafc95c1ad136e8914a8fb55e9dc8bb01eaa83a2df9ad878760158561084c836114aa565b6001600160a01b03168152602080820192909252604090810160009081208c825283528190208054600181019091558a51915161088f96959493919291016135c5565b604051602081830303815290604052805190602001206040516020016108b69291906133f7565b6040516020818303038152906040528051906020012090506000600182866020015187604001518860600151604051600081526020016040526040516108ff9493929190613645565b6020604051602081039080840390855afa158015610921573d6000803e3d6000fd5b5050604051601f1901519150506001600160a01b0381161580159061095f5750806001600160a01b0316610954876114aa565b6001600160a01b0316145b61097b5760405162461bcd60e51b81526004016106a090613e71565b6109858787611c4e565b50506001600a555050505050565b6002600a5414156109b65760405162461bcd60e51b81526004016106a090613edf565b6002600a55805115806109ca575080514211155b6109e65760405162461bcd60e51b81526004016106a090613db2565b60006109f0611cbc565b6040808601516060870151602080880151516001600160a01b038b166000908152601683528581208054600181019091558951965197985090968896610a5e967f2952e482b8e2b192305f87374d7af45dc2eafafe4f50d26a0c02e90f2fdbe14b969095909493920161361d565b60405160208183030381529060405280519060200120604051602001610a859291906133f7565b604051602081830303815290604052805190602001209050600060018285602001518660400151876060015160405160008152602001604052604051610ace9493929190613645565b6020604051602081039080840390855afa158015610af0573d6000803e3d6000fd5b5050604051601f1901519150506001600160a01b03811615801590610b265750806001600160a01b0316876001600160a01b0316145b610b425760405162461bcd60e51b81526004016106a090613e71565b610985818787611d72565b60608180610b5b6017611f76565b11610b785760405162461bcd60e51b81526004016106a0906136b8565b60008381526012602090815260409182902080548351601f600260001961010060018616150201909316929092049182018490048402810184019094528084529091830182828015610c0b5780601f10610be057610100808354040283529160200191610c0b565b820191906000526020600020905b815481529060010190602001808311610bee57829003601f168201915b5050505050915050919050565b6000610c246002611f7a565b905090565b6002600a541415610c4c5760405162461bcd60e51b81526004016106a090613edf565b6002600a553383610c5d8282611f85565b610c795760405162461bcd60e51b81526004016106a090613c5a565b6000858152601060205260409020548590610ca65760405162461bcd60e51b81526004016106a090613cda565b84848080601f01602080910402602001604051908101604052809392919081815260200183838082843760009201919091525050825115159150610cfe90505760405162461bcd60e51b81526004016106a090613f16565b610d3e8787878080601f01602080910402602001604051908101604052809392919081815260200183838082843760009201919091525061200a92505050565b867f702fe2dc2dc0f68023540aa4a1e11811c0f29112f6ebf01e61b90538e4f29810338888604051610d72939291906134cd565b60405180910390a250506001600a555050505050565b61075883838361204e565b6002600a541415610db65760405162461bcd60e51b81526004016106a090613edf565b6002600a553381610dc78282611f85565b610de35760405162461bcd60e51b81526004016106a090613c5a565b600b546040516328220f3560e01b81526001600160a01b03909116906328220f3590610e139086906004016135bc565b600060405180830381600087803b158015610e2d57600080fd5b505af1158015610985573d6000803e3d6000fd5b6001600160a01b0382166000908152600160205260408120610e69908363ffffffff61208616565b90505b92915050565b7f49ecf333e5b8c95c40fdafc95c1ad136e8914a8fb55e9dc8bb01eaa83a2df9ad81565b610758838383612092565b6002600a541415610ec45760405162461bcd60e51b81526004016106a090613edf565b6002600a5580610ed381611c37565b610eef5760405162461bcd60e51b81526004016106a090613ea8565b3382610efb8282611f85565b610f175760405162461bcd60e51b81526004016106a090613c5a565b6000610f22856114aa565b6000868152600e60205260409020549091506001600160a01b03808316911614610f5e5760405162461bcd60e51b81526004016106a090613b7e565b610f67856120ad565b50506001600a55505050565b600c54600082815260146020908152604080832054600e909252808320549051631a7a034d60e31b815292936001600160a01b039081169363d3d01a6893610fc19390921690600401613f5c565b60206040518083038186803b158015610fd957600080fd5b505afa158015610fed573d6000803e3d6000fd5b505050506040513d601f19601f820116820180604052508101906110119190613142565b80610e695750600c546000838152601460205260409081902054905163997ca0c360e01b81526001600160a01b039092169163997ca0c391611057918790600401613f5c565b60206040518083038186803b15801561106f57600080fd5b505afa158015611083573d6000803e3d6000fd5b505050506040513d601f19601f82011682018060405250810190610e699190613142565b6000806110bb60028463ffffffff61219916565b509392505050565b6002600a5414156110e65760405162461bcd60e51b81526004016106a090613edf565b6002600a55816110f581611c37565b6111115760405162461bcd60e51b81526004016106a090613ea8565b81604001516001600160a01b0316336001600160a01b0316146111465760405162461bcd60e51b81526004016106a0906137c0565b600b546040516317b6b0d360e31b81526001600160a01b039091169063bdb5869890610e1390869086903390600401613fd5565b6060600080600161118b6017611f76565b03905060005b818110156111be576000818152601460205260409020548514156111b6576001909201915b600101611191565b5060608267ffffffffffffffff811180156111d857600080fd5b5060405190808252806020026020018201604052801561121257816020015b6111ff612c47565b8152602001906001900390816111f75790505b5090506000805b838110801561122757508482105b156113e0576000818152601460205260409020548714156113d8576040805160008381526008602090815290839020805460026001821615610100026000190190911604601f8101839004909202830160a0908101909452608083018281529293849392908401828280156112dd5780601f106112b2576101008083540402835291602001916112dd565b820191906000526020600020905b8154815290600101906020018083116112c057829003601f168201915b505050918352505060008381526012602090815260409182902080548351601f6002600019610100600186161502019093169290920491820184900484028101840190945280845293820193909183018282801561137c5780601f106113515761010080835404028352916020019161137c565b820191906000526020600020905b81548152906001019060200180831161135f57829003601f168201915b50505091835250506000838152600e6020908152604091829020546001600160a01b031690830152016113ae836114aa565b6001600160a01b03168152508383815181106113c657fe5b60209081029190910101526001909101905b600101611219565b509095945050505050565b6002600a54141561140e5760405162461bcd60e51b81526004016106a090613edf565b6002600a55338261141f8282611f85565b61143b5760405162461bcd60e51b81526004016106a090613c5a565b600b5460405163062f24b760e41b81526001600160a01b03909116906362f24b709061146d9087908790600401613f73565b600060405180830381600087803b15801561148757600080fd5b505af115801561149b573d6000803e3d6000fd5b50506001600a55505050505050565b6000610e6c826040518060600160405280602981526020016140c1602991396002919063ffffffff6121b516565b60098054604080516020601f600260001961010060018816150201909516949094049384018190048102820181019092528281526060939092909183018282801561066e5780601f106106435761010080835404028352916020019161066e565b60006001600160a01b0382166115615760405162461bcd60e51b81526004016106a0906139fa565b6001600160a01b0382166000908152600160205260409020610e6c90611f7a565b6002600a5414156115a55760405162461bcd60e51b81526004016106a090613edf565b6002600a5533836115b68282611f85565b6115d25760405162461bcd60e51b81526004016106a090613c5a565b60008581526011602052604090205485906115ff5760405162461bcd60e51b81526004016106a0906138be565b84848080601f0160208091040260200160405190810160405280939291908181526020018383808284376000920191909152505082511515915061165790505760405162461bcd60e51b81526004016106a090613f16565b6116978787878080601f0160208091040260200160405190810160405280939291908181526020018383808284376000920191909152506121cc92505050565b867fe3df41127db820c79e5b8d541a63e40e3e97b9af96f7a50bded13091b70df9ae338888604051610d72939291906134cd565b60078054604080516020601f600260001961010060018816150201909516949094049384018190048102820181019092528281526060939092909183018282801561066e5780601f106106435761010080835404028352916020019161066e565b600d602052600090815260409020546001600160a01b031681565b600b546001600160a01b031681565b61175e611c4a565b6001600160a01b0316826001600160a01b0316141561178f5760405162461bcd60e51b81526004016106a090613887565b806005600061179c611c4a565b6001600160a01b03908116825260208083019390935260409182016000908120918716808252919093529120805460ff1916921515929092179091556117e0611c4a565b6001600160a01b03167f17307eab39ab6107e8899845ad3d59bd9653f200f220920489ca2b5937696c318360405161181891906135b1565b60405180910390a35050565b6002600a5414156118475760405162461bcd60e51b81526004016106a090613edf565b6002600a5561185581610679565b6001600160a01b0316336001600160a01b0316146118855760405162461bcd60e51b81526004016106a090613801565b611890600082611c4e565b506001600a55565b6002600a5414156118bb5760405162461bcd60e51b81526004016106a090613edf565b6002600a5580806118cc6017611f76565b116118e95760405162461bcd60e51b81526004016106a0906136b8565b600b5460405163776a083560e01b81526001600160a01b039091169063776a08359061191b9085903390600401613f5c565b600060405180830381600087803b15801561193557600080fd5b505af1158015611949573d6000803e3d6000fd5b50506001600a5550505050565b61196284848484612211565b50505050565b6002600a54141561198b5760405162461bcd60e51b81526004016106a090613edf565b6002600a55338261199c8282611f85565b6119b85760405162461bcd60e51b81526004016106a090613c5a565b600b5460405163ba33939960e01b81526001600160a01b039091169063ba3393999061146d9087908790600401613fc1565b606081806119f86017611f76565b11611a155760405162461bcd60e51b81526004016106a0906136b8565b60008381526008602090815260409182902080548351601f6002600019610100600186161502019093169290920491820184900484028101840190945280845260609392830182828015611aaa5780601f10611a7f57610100808354040283529160200191611aaa565b820191906000526020600020905b815481529060010190602001808311611a8d57829003601f168201915b509398975050505050505050565b600c546001600160a01b031681565b60146020526000908152604090205481565b7f2952e482b8e2b192305f87374d7af45dc2eafafe4f50d26a0c02e90f2fdbe14b81565b600e602052600090815260409020546001600160a01b031681565b6002600a541415611b3b5760405162461bcd60e51b81526004016106a090613edf565b6002600a55611b4b338383611d72565b50506001600a55565b6001600160a01b03918216600090815260056020908152604080832093909416825291909152205460ff1690565b600b546001600160a01b03163314611bac5760405162461bcd60e51b81526004016106a090613b12565b611bb5826114aa565b6000838152600d6020526040902080546001600160a01b0319166001600160a01b0392909216919091179055611c04611bed836114aa565b828460405180602001604052806000815250612246565b5050565b601560209081526000928352604080842090915290825290205481565b60106020526000908152604090205481565b6000610e6c60028363ffffffff61227916565b3390565b600081815260046020526040902080546001600160a01b0319166001600160a01b0384169081179091558190611c83826114aa565b6001600160a01b03167f8c5be1e5ebec7d5bd14f71427d1e84f3dd0314c0f7b2291e5b200ac8c7c3b92560405160405180910390a45050565b6040516000904690611ccd90613412565b60408051918290038220828201825260048352635a6f726160e01b6020938401528151808301835260018152603160f81b908401529051611d56927f91beda2a71cae260ce24b7d0ba9253f7212b59cbe39b0f303ac34fac7c00047d917fc89efdaa54c0f20c7adf612882df0950f5a951637e0307cdcb4c672f298b8bc69186913091016135f1565b6040516020818303038152906040528051906020012091505090565b81518051611d925760405162461bcd60e51b81526004016106a090613f16565b60208301518051611db55760405162461bcd60e51b81526004016106a090613f16565b6040840151611dd65760405162461bcd60e51b81526004016106a09061390d565b60408085015160009081526013602052205460ff1615611e085760405162461bcd60e51b81526004016106a090613a73565b6060840151611e295760405162461bcd60e51b81526004016106a090613d2c565b6000611e356017611f76565b9050611e418682612285565b611e4b601761229f565b611e598186604001516122a8565b611e678186606001516122e1565b611e758186602001516121cc565b611e8381866000015161200a565b611e9181866080015161231a565b6001600160a01b0386166000908152600f60205260409020611eb9908263ffffffff61235316565b50604080860151600090815260136020908152828220805460ff19166001179055838252600e815282822080546001600160a01b03808c166001600160a01b03199283168117909355600d90935292849020805490931617909155600b5491516375aab41d60e11b815291169063eb55683a90611f3c9084908890600401613f97565b600060405180830381600087803b158015611f5657600080fd5b505af1158015611f6a573d6000803e3d6000fd5b50505050505050505050565b5490565b6000610e6c82611f76565b6000611f9082611c37565b611fac5760405162461bcd60e51b81526004016106a090613951565b6000611fb7836114aa565b9050806001600160a01b0316846001600160a01b03161480611ff25750836001600160a01b0316611fe784610679565b6001600160a01b0316145b8061200257506120028185611b54565b949350505050565b61201382611c37565b61202f5760405162461bcd60e51b81526004016106a090613c0e565b6000828152600860209081526040909120825161075892840190612c81565b61205f612059611c4a565b82611f85565b61207b5760405162461bcd60e51b81526004016106a090613de9565b61075883838361235f565b6000610e6983836123cc565b61075883838360405180602001604052806000815250611956565b60008181526008602090815260409182902080548351601f60026000196101006001861615020190931692909204918201849004840281018401909452808452606093928301828280156121425780601f1061211757610100808354040283529160200191612142565b820191906000526020600020905b81548152906001019060200180831161212557829003601f168201915b5050505050905061215282612411565b80511561217a576000828152600860209081526040909120825161217892840190612c81565b505b506000908152600d6020526040902080546001600160a01b0319169055565b60008080806121a886866124ea565b9097909650945050505050565b60006121c2848484612546565b90505b9392505050565b816121d681611c37565b6121f25760405162461bcd60e51b81526004016106a090613ea8565b6000838152601260209081526040909120835161196292850190612c81565b61222261221c611c4a565b83611f85565b61223e5760405162461bcd60e51b81526004016106a090613de9565b611962848484845b61225184848461235f565b61225d848484846125a5565b6119625760405162461bcd60e51b81526004016106a090613700565b6000610e69838361268a565b611c048282604051806020016040528060008152506126a2565b80546001019055565b816122b281611c37565b6122ce5760405162461bcd60e51b81526004016106a090613ea8565b5060009182526010602052604090912055565b816122eb81611c37565b6123075760405162461bcd60e51b81526004016106a090613ea8565b5060009182526011602052604090912055565b8161232481611c37565b6123405760405162461bcd60e51b81526004016106a090613ea8565b5060009182526014602052604090912055565b6000610e6983836126d5565b600b546040516328220f3560e01b81526001600160a01b03909116906328220f359061238f9084906004016135bc565b600060405180830381600087803b1580156123a957600080fd5b505af11580156123bd573d6000803e3d6000fd5b5050505061075883838361271f565b815460009082106123ef5760405162461bcd60e51b81526004016106a090613676565b8260000182815481106123fe57fe5b9060005260206000200154905092915050565b600061241c826114aa565b905061242a81600084610758565b612435600083611c4e565b600082815260086020526040902054600260001961010060018416150201909116041561247357600082815260086020526040812061247391612cff565b6001600160a01b038116600090815260016020526040902061249b908363ffffffff61283f16565b506124ad60028363ffffffff61284b16565b5060405182906000906001600160a01b038416907fddf252ad1be2c89b69c2b068fc378daa952ba7f163c4a11628f55a4df523b3ef908390a45050565b81546000908190831061250f5760405162461bcd60e51b81526004016106a090613ad0565b600084600001848154811061252057fe5b906000526020600020906002020190508060000154816001015492509250509250929050565b600082815260018401602052604081205482816125765760405162461bcd60e51b81526004016106a09190613663565b5084600001600182038154811061258957fe5b9060005260206000209060020201600101549150509392505050565b60006125b9846001600160a01b0316612857565b6125c557506001612002565b6060612653630a85bd0160e11b6125da611c4a565b8887876040516024016125f09493929190613490565b604051602081830303815290604052906001600160e01b0319166020820180516001600160e01b03838183161783525050505060405180606001604052806032815260200161408f603291396001600160a01b038816919063ffffffff61285d16565b905060008180602001905181019061266b919061317a565b6001600160e01b031916630a85bd0160e11b1492505050949350505050565b60009081526001919091016020526040902054151590565b6126ac838361286c565b6126b960008484846125a5565b6107585760405162461bcd60e51b81526004016106a090613700565b60006126e1838361268a565b61271757508154600181810184556000848152602080822090930184905584548482528286019093526040902091909155610e6c565b506000610e6c565b826001600160a01b0316612732826114aa565b6001600160a01b0316146127585760405162461bcd60e51b81526004016106a090613c91565b6001600160a01b03821661277e5760405162461bcd60e51b81526004016106a090613843565b612789838383610758565b612794600082611c4e565b6001600160a01b03831660009081526001602052604090206127bc908263ffffffff61283f16565b506001600160a01b03821660009081526001602052604090206127e5908263ffffffff61235316565b506127f86002828463ffffffff61293c16565b5080826001600160a01b0316846001600160a01b03167fddf252ad1be2c89b69c2b068fc378daa952ba7f163c4a11628f55a4df523b3ef60405160405180910390a4505050565b6000610e698383612952565b6000610e698383612a18565b3b151590565b60606121c28484600085612aec565b6001600160a01b0382166128925760405162461bcd60e51b81526004016106a090613b49565b61289b81611c37565b156128b85760405162461bcd60e51b81526004016106a090613789565b6128c460008383610758565b6001600160a01b03821660009081526001602052604090206128ec908263ffffffff61235316565b506128ff6002828463ffffffff61293c16565b5060405181906001600160a01b038416906000907fddf252ad1be2c89b69c2b068fc378daa952ba7f163c4a11628f55a4df523b3ef908290a45050565b60006121c284846001600160a01b038516612bb0565b60008181526001830160205260408120548015612a0e578354600019808301919081019060009087908390811061298557fe5b90600052602060002001549050808760000184815481106129a257fe5b6000918252602080832090910192909255828152600189810190925260409020908401905586548790806129d257fe5b60019003818190600052602060002001600090559055866001016000878152602001908152602001600020600090556001945050505050610e6c565b6000915050610e6c565b60008181526001830160205260408120548015612a0e5783546000198083019190810190600090879083908110612a4b57fe5b9060005260206000209060020201905080876000018481548110612a6b57fe5b600091825260208083208454600290930201918255600193840154918401919091558354825289830190526040902090840190558654879080612aaa57fe5b6000828152602080822060026000199094019384020182815560019081018390559290935588815289820190925260408220919091559450610e6c9350505050565b6060612af785612857565b612b135760405162461bcd60e51b81526004016106a090613e3a565b60006060866001600160a01b03168587604051612b3091906133db565b60006040518083038185875af1925050503d8060008114612b6d576040519150601f19603f3d011682016040523d82523d6000602084013e612b72565b606091505b50915091508115612b865791506120029050565b805115612b965780518082602001fd5b8360405162461bcd60e51b81526004016106a09190613663565b600082815260018401602052604081205480612c155750506040805180820182528381526020808201848152865460018181018955600089815284812095516002909302909501918255915190820155865486845281880190925292909120556121c5565b82856000016001830381548110612c2857fe5b90600052602060002090600202016001018190555060009150506121c5565b6040518060800160405280606081526020016060815260200160006001600160a01b0316815260200160006001600160a01b031681525090565b828054600181600116156101000203166002900490600052602060002090601f016020900481019282601f10612cc257805160ff1916838001178555612cef565b82800160010185558215612cef579182015b82811115612cef578251825591602001919060010190612cd4565b50612cfb929150612d46565b5090565b50805460018160011615610100020316600290046000825580601f10612d255750612d43565b601f016020900490600052602060002090810190612d439190612d46565b50565b61067691905b80821115612cfb5760008155600101612d4c565b80356001600160a01b0381168114610e6c57600080fd5b600082601f830112612d87578081fd5b813567ffffffffffffffff811115612d9d578182fd5b612db0601f8201601f1916602001614002565b9150808252836020828501011115612dc757600080fd5b8060208401602084013760009082016020015292915050565b600060608284031215612df1578081fd5b612dfb6060614002565b9050612e078383612e33565b8152612e168360208401612e33565b6020820152612e288360408401612e33565b604082015292915050565b600060208284031215612e44578081fd5b612e4e6020614002565b9135825250919050565b600060808284031215612e69578081fd5b612e736080614002565b905081358152602082013560ff81168114612e8d57600080fd5b80602083015250604082013560408201526060820135606082015292915050565b600060a08284031215612ebf578081fd5b612ec960a0614002565b9050813567ffffffffffffffff80821115612ee357600080fd5b612eef85838601612d77565b83526020840135915080821115612f0557600080fd5b50612f1284828501612d77565b60208301525060408201356040820152606082013560608201526080820135608082015292915050565b600060208284031215612f4d578081fd5b610e698383612d60565b60008060408385031215612f69578081fd5b612f738484612d60565b9150612f828460208501612d60565b90509250929050565b600080600060608486031215612f9f578081fd5b8335612faa81614055565b92506020840135612fba81614055565b929592945050506040919091013590565b60008060008060808587031215612fe0578081fd5b612fea8686612d60565b9350612ff98660208701612d60565b925060408501359150606085013567ffffffffffffffff81111561301b578182fd5b61302787828801612d77565b91505092959194509250565b60008060408385031215613045578182fd5b61304f8484612d60565b9150602083013561305f8161406a565b809150509250929050565b6000806000806101208587031215613080578182fd5b61308a8686612d60565b9350602085013567ffffffffffffffff8111156130a5578283fd5b6130b187828801612eae565b9350506130c18660408701612de0565b91506130d08660a08701612e58565b905092959194509250565b600080604083850312156130ed578182fd5b6130f78484612d60565b946020939093013593505050565b600080600060c08486031215613119578081fd5b6131238585612d60565b9250602084013591506131398560408601612e58565b90509250925092565b600060208284031215613153578081fd5b81516121c58161406a565b60006020828403121561316f578081fd5b81356121c581614078565b60006020828403121561318b578081fd5b81516121c581614078565b600080608083850312156131a8578182fd5b823567ffffffffffffffff8111156131be578283fd5b6131ca85828601612eae565b925050612f828460208501612de0565b6000602082840312156131eb578081fd5b5035919050565b60008060408385031215613204578182fd5b82359150612f828460208501612d60565b600080600060408486031215613229578081fd5b83359250602084013567ffffffffffffffff80821115613247578283fd5b81860187601f820112613258578384fd5b8035925081831115613268578384fd5b876020848301011115613279578384fd5b949760209095019650909450505050565b600080828403606081121561329d578283fd5b833592506040601f19820112156132b2578182fd5b506132bd6040614002565b602084013581526132d18560408601612d60565b6020820152809150509250929050565b60008082840360c08112156132f4578283fd5b8335925060a0601f1982011215613309578182fd5b5061331460a0614002565b602084013581526133288560408601612d60565b602082015261333a8560608601612d60565b604082015261334c8560808601612d60565b606082015261335e8560a08601612e33565b6080820152809150509250929050565b60008151808452613386816020860160208601614029565b601f01601f19169290920160200192915050565b805182526020808201516001600160a01b03908116918401919091526040808301518216908401526060808301519091169083015260809081015151910152565b600082516133ed818460208701614029565b9190910192915050565b61190160f01b81526002810192909252602282015260420190565b7f454950373132446f6d61696e28737472696e67206e616d652c737472696e672081527f76657273696f6e2c75696e7432353620636861696e49642c6164647265737320602082015271766572696679696e67436f6e74726163742960701b604082015260520190565b6001600160a01b0391909116815260200190565b6001600160a01b03858116825284166020820152604081018390526080606082018190526000906134c39083018461336e565b9695505050505050565b6001600160a01b03841681526040602082018190528101829052600082846060840137818301606090810191909152601f909201601f1916010192915050565b60208082528251828201819052600091906040908185019080840286018301878501865b838110156135a357603f198984030185528151608081518186526135578287018261336e565b8a84015192508681038b88015261356e818461336e565b848b01516001600160a01b03908116898d01526060958601511694909701939093525050509386019390860190600101613531565b509098975050505050505050565b901515815260200190565b90815260200190565b9485526001600160a01b0393909316602085015260408401919091526060830152608082015260a00190565b9485526020850193909352604084019190915260608301526001600160a01b0316608082015260a00190565b958652602086019490945260408501929092526060840152608083015260a082015260c00190565b93845260ff9290921660208401526040830152606082015260800190565b600060208252610e69602083018461336e565b60208082526022908201527f456e756d657261626c655365743a20696e646578206f7574206f6620626f756e604082015261647360f01b606082015260800190565b60208082526028908201527f4d656469613a20746f6b656e2077697468207468617420696420646f6573206e6040820152671bdd08195e1a5cdd60c21b606082015260800190565b60208082526032908201527f4552433732313a207472616e7366657220746f206e6f6e20455243373231526560408201527131b2b4bb32b91034b6b83632b6b2b73a32b960711b606082015260800190565b6020808252601c908201527f4d656469613a207370656e6465722063616e6e6f742062652030783000000000604082015260600190565b6020808252601c908201527f4552433732313a20746f6b656e20616c7265616479206d696e74656400000000604082015260600190565b60208082526021908201527f4d61726b65743a20426964646572206d757374206265206d73672073656e64656040820152603960f91b606082015260800190565b60208082526022908201527f4d656469613a2063616c6c6572206e6f7420617070726f766564206164647265604082015261737360f01b606082015260800190565b60208082526024908201527f4552433732313a207472616e7366657220746f20746865207a65726f206164646040820152637265737360e01b606082015260800190565b60208082526019908201527f4552433732313a20617070726f766520746f2063616c6c657200000000000000604082015260600190565b6020808252602f908201527f4d656469613a20746f6b656e20646f6573206e6f74206861766520686173682060408201526e6f6620697473206d6574616461746160881b606082015260800190565b60208082526024908201527f4d656469613a20636f6e74656e742068617368206d757374206265206e6f6e2d6040820152637a65726f60e01b606082015260800190565b6020808252602c908201527f4552433732313a206f70657261746f7220717565727920666f72206e6f6e657860408201526b34b9ba32b73a103a37b5b2b760a11b606082015260800190565b60208082526038908201527f4552433732313a20617070726f76652063616c6c6572206973206e6f74206f7760408201527f6e6572206e6f7220617070726f76656420666f7220616c6c0000000000000000606082015260800190565b6020808252602a908201527f4552433732313a2062616c616e636520717565727920666f7220746865207a65604082015269726f206164647265737360b01b606082015260800190565b6020808252601590820152741359591a584e8814195c9b5a5d08195e1c1a5c9959605a1b604082015260600190565b6020808252603e908201527f4d656469613a206120746f6b656e2068617320616c7265616479206265656e2060408201527f637265617465642077697468207468697320636f6e74656e7420686173680000606082015260800190565b60208082526022908201527f456e756d657261626c654d61703a20696e646578206f7574206f6620626f756e604082015261647360f01b606082015260800190565b6020808252601b908201527f4d656469613a206f6e6c79206d61726b657420636f6e74726163740000000000604082015260600190565b6020808252818101527f4552433732313a206d696e7420746f20746865207a65726f2061646472657373604082015260600190565b60208082526024908201527f4d656469613a206f776e6572206973206e6f742063726561746f72206f66206d6040820152636564696160e01b606082015260800190565b6020808252602c908201527f4552433732313a20617070726f76656420717565727920666f72206e6f6e657860408201526b34b9ba32b73a103a37b5b2b760a11b606082015260800190565b6020808252602c908201527f4552433732314d657461646174613a2055524920736574206f66206e6f6e657860408201526b34b9ba32b73a103a37b5b2b760a11b606082015260800190565b6020808252601d908201527f4d656469613a204f6e6c7920617070726f766564206f72206f776e6572000000604082015260600190565b60208082526029908201527f4552433732313a207472616e73666572206f6620746f6b656e2074686174206960408201526839903737ba1037bbb760b91b606082015260800190565b60208082526032908201527f4d656469613a20746f6b656e20646f6573206e6f7420686176652068617368206040820152711bd98818dc99585d19590818dbdb9d195b9d60721b606082015260800190565b60208082526025908201527f4d656469613a206d657461646174612068617368206d757374206265206e6f6e6040820152642d7a65726f60d81b606082015260800190565b60208082526021908201527f4552433732313a20617070726f76616c20746f2063757272656e74206f776e656040820152603960f91b606082015260800190565b6020808252601a908201527f4d656469613a206d696e74576974685369672065787069726564000000000000604082015260600190565b60208082526031908201527f4552433732313a207472616e736665722063616c6c6572206973206e6f74206f6040820152701ddb995c881b9bdc88185c1c1c9bdd9959607a1b606082015260800190565b6020808252601d908201527f416464726573733a2063616c6c20746f206e6f6e2d636f6e7472616374000000604082015260600190565b60208082526018908201527f4d656469613a205369676e617475726520696e76616c69640000000000000000604082015260600190565b60208082526018908201527f4d656469613a206e6f6e6578697374656e7420746f6b656e0000000000000000604082015260600190565b6020808252601f908201527f5265656e7472616e637947756172643a207265656e7472616e742063616c6c00604082015260600190565b60208082526026908201527f4d656469613a2073706563696669656420757269206d757374206265206e6f6e6040820152652d656d70747960d01b606082015260800190565b9182526001600160a01b0316602082015260400190565b918252805160208084019190915201516001600160a01b0316604082015260600190565b91825280515160208084019190915281015151604080840191909152015151606082015260800190565b82815260c081016121c5602083018461339a565b83815260e08101613fe9602083018561339a565b6001600160a01b039290921660c0919091015292915050565b60405181810167ffffffffffffffff8111828210171561402157600080fd5b604052919050565b60005b8381101561404457818101518382015260200161402c565b838111156119625750506000910152565b6001600160a01b0381168114612d4357600080fd5b8015158114612d4357600080fd5b6001600160e01b031981168114612d4357600080fdfe4552433732313a207472616e7366657220746f206e6f6e20455243373231526563656976657220696d706c656d656e7465724552433732313a206f776e657220717565727920666f72206e6f6e6578697374656e7420746f6b656ea264697066735822122024729b3ad7340405707da9b5cf43f870a753b84d2f7b2323026174f41d511cae64736f6c63430006080033",
  "linkReferences": {},
  "deployedLinkReferences": {}
}